:204000004343313378325231FFFFFFFF0301BFFFFCFE0700FFFFFFFFD496000038D4000058
:1840200000010000FFFFFFFF3800FFFF01BFFFFFFFFFFFFF004000005B
:204038002DE9F84305460C46480413D4A00024D4A0075CD460057ED4200500F1068120075D
:2040580000F13B81600040F1F68005F025FC24F08044F0E008F026FCDFF81C140F6D3FB149
:20407800D7E90A1202F0E04201F00A01891849D008F015FD24F48044DDE0BB48DFF8FC7396
:20409800016841F080010160B878012804D1042007F0D2F80020B87008F004FC06460420C9
:2040B80008F00CFCDFF8D8130A68904219D12A7EBAB1FA68AAB1DFF8C003806C002800F08A
:2040D8009780C16840F603020988914206D0C06840F604010088884240F08A8005F114001A
:2040F80088E040F6C4120860C5E9042284E001F079FEDFF88403006C002840F09D8024F0D9
:20411800020498E0D7E90A65D7E90A12AA43B143C7E90A1208F0C3FCB8680028AAD056EA98
:204138000500A7D0D7F808C03869B7F9301032462B46E0479EE708F0B5FB054607F0BCFE8A
:20415800002800F0B780CC48876B002F00F0B280DFF828830420CB49002288F81800C6481F
:2041780008F0F2F908F0A7FCC74808F092FCC7480068006B8047C8F810000125042088F8D1
:20419800025007F0F3F9386990F82810C8F80400490703D5436A042100229847012005F09C
:2041B80095FDD8F80400457603F064FFD8F8040081680B461A465B684BB11E88A6F60306F8
:2041D800072EF7D805FA06F616F0830FF2D0537B03F0F003013353730023FD6853602D88D0
:2041F800A5F60305012D00F28A80C8F810309FE005F1100006F0C2FA304608F050FC07F0F2
:20421800CDF978B12E6A28466FF4807100224FF00073B0479848806B10B105F03DFB01E0D8
:2042380044F00204EE692846002100224FF08063B04724F0005434B1974821462830BDE87B
:20425800F84308F078BCBDE8F8838C4EB078012804D1042006F0F0FF0020B07007F09EF9E8
:2042780038B170686FF4807100224FF00073056AA847306950B185480068006B8047326943
:204298007168801A000BC860002030617A4D81490022284608F058F902203076286C20B118
:2042B8007D480221283008F046FC05F0F5FA24F40064C0E708F0FFFB41E008F0F3FA054622
:2042D80007F0FAFDA0B1DFF8B48198F8000000070ED498F9000000280AD4684603F06EFF5D
:2042F80008B1009820B1DFF8B49199F8610048B308F0E1FB05F0D0FA24F008049BE70346FD
:2043180033F8385FA5B190F8445090F8456005F0F00580F8445006F0F005013580F8455000
:2043380000255360C5634587507B00F0F000507357480022C2610160012007F0EDFE24F4CB
:20435800806478E700260127602E0FD009EB0600817A31B18772407A07FA00F0C0B206F064
:2043780085FF2036F0E700BFCC210840032088F81800454808F08DFB08F09DFB444F3E4D0A
:204398000022786900207861F968F8602846444908F0DAF83D480068006B8047D8F80C1080
:2043B800D8F82020411A02EB1130B0EB113F38BF4FF0FF3098F82410C8F8200021B1D8F8B6
:2043D8000810B0EBC12F20D907F0B6FEB8B140F60900414621F83C0F002048804A7B02F04C
:2043F800F00201324A730A7B02F0F0020A734860F8613960B8F83E0010F4406FFAD00020B8
:20441800C8F82000012088F8240005F0A7FF2548002101600220002107F07EFE022006F087
:204438000BFF102003F07AFD98F8010020B9D8F80400503008F07BFB1B48807810B90D2043
:2044580003F06CFD98F8250028B1002088F82500052006F0F1FE002088F818001348C8F8B8
:204478001C000220B5F85610B5F85420914208BF072005F00BF83DE7FC0300206002002034
:204498005C060020ADBE0000F07B00208C01001000100440296A000098030020D07A0020E3
:2044B800159900000000046084D300001D6700002DE9F04F9DB0002800F0A3810E46062996
:2044D800C0F09F8131461446054607F031FB002800F09781CE4F28463C7008F05FF9A978DD
:2044F80095F803B0112802D0022840F08A81B01F020400F0868161F30D2BA9794A1E132AD5
:2045180014D8DFE802F00A13151824271313131313131313132E5D84C9D60DAD284603F0D5
:204538002FFA012059462A46202368E1584613E05846032110E080B2022805D3E879BB49A2
:20455800002818BF012008705846042104E05846052101E0584606211DB0BDE8F04F07F0F2
:2045780065BFF01F80B20628C0F03581D5F8070004BA002C00F02F81B4F5402F00F22B8116
:20459800B5F80B5002F036FC002800F0248141F6FF7040F6FF710026204420EA0101002018
:2045B80004F03CFB002800F0148128BA01210025000C3971C7E902463882964801700EE13C
:2045D800387918B9B86808B101203871387920B1F01F80B2062880F0858008F0CFF940F246
:2045F8001111ADF83410E90718BF6FF011008DF83A40594607238DF83600200A8DF83900F6
:20461800200C8DF83800200E8DF83700F5E03879002800F0D580F01F80B20428C0F0D0804F
:20463800D7E90209814540F0CB806FF040007A4E0DAA41F2210A00F140054FF48050B9F1E7
:20465800000F76D0B9F1400F4F468046144628BF4027394603F03CFF002800F0AF80204697
:20467800394622460B0411D003780139082485EA03254CB106EA45032DB2002D48BF83EA1E
:204698000A03013C1D46F4E70130EBE74046A9EB070908EB0700D2E75E4900203871C7E97A
:2046B8000200087006F0AAFF1320ADF834000DAA8BE0142009238DF8340038798DF8350017
:2046D800D7E9020109BACDF83610010A8DF83C10010C000E8DF83B108DF83A000DAA0320D1
:2046F80059468CE0EE7AD5F807100CBA002E3FF474AFF02E3FF671AF711D81423FF66DAFEC
:20471800B86804EB060981453FF667AF02F072FB002879D005F10C0204F58050314603F04B
:204738009DFD002872D0F868814588BFC7F80C9067E0374CA9B2208A81423FD16D462821F7
:20475800FF2205F1080008F077F9344843F6FF712A4600260190324800903248049040F224
:204778000310ADF80C004FF0FF300C904FF480500B904FF6BF70ADF80E00A0680690084494
:2047980034210990002003F069FDB8B106F036FF204826716A465946022306701220ADF846
:2047B8000000032005F06CFB4FF4FA7004F006F808F047F91C4801210160FEE706F01EFFAC
:2047D8004FF489706A46ADF8000003205946022315E006F013FF012608F0D0F8054608F022
:2047F800C7F8808810218DF836508DF8356005238DF834105946ADF837000DAA032005F049
:204818003FFB1DB0BDE8F08F0025E6E60125E4E6A405002055060020FEFF01004E564D3110
:204838004F414420FEFE07007C052043540600202DE9FE4F074608680024B0B1D7E9018A1B
:204858000E4608F02FF88146D8F8E800082888BF0124B068204202D17068204208D0032030
:204878003074484608F01BF900242046BDE8FE8FD8F8C01069B198F8F8100029EFD00621C5
:204898003174D8F8C410C8F8C4604E6198F8FC100DE000210522C8E93066C8E93411C8E965
:2048B800361198F8FC10002908BF0122327400220129726109D102204FF4E02188F8FC0069
:2048D80098F8FB0006F03AFE706889490138884205D8042006F04AFE062006F047FE022098
:2048F80006F044FE98F8F80040B9DAF83C003168814203D298F8FC0000286CD0D8E93610B1
:2049180009B118B900E028B308F0A3F8DAF80000416941F001014161484608F0C0F898F887
:20493800F80008B10124A0E708F16C05D8F8EC10284608F077F80028F4D0D8F8C000032157
:204958000174384603F084FF28460021002408F069F88AE79AF8040008F0D5F8654CDAF87B
:2049780010100222206991FAA1F1B1FA81F14368D8F8CC004068006898472069DAF8141063
:2049980002224368D8F8CC0091FAA1F1B1FA81F14068006898479AF8040007F02DFB9AF824
:2049B800040008F0B2F808F054F80020C8F8E000D8F8C0000068B0F5806F01D908F049F896
:2049D80098F8FE000028A1D1DAF80000416841F0020141609AE798F8F90020B1D8F8EC00B0
:2049F80001307FF48BAF484608F059F8B2683AB1D8F8E8000221092838BF0121009103E04C
:204A180008F1F40200200090746834B1D8F8E8000227092838BF012702E008F1F6040027F1
:204A3800DAF80000334D416841F002014160D6F800B0D946BBF1000F40D0D8F8E8000192DB
:204A580009284FF0010011D22A68B9F1000F1FD0C0071DD02178DAF8000092689047002898
:204A78001EBF3C44A9F101090120EDE72A68B9F1000F16D0C00714D02188DAF800009268D7
:204A9800904700281EBF3C44A9F101090120EDE7DAF80000D26802A99047DDE90120107014
:204AB80007E0DAF80000D26802A99047DDE9012010800098ABF1010B0244BBE7D8F8F0000A
:204AD800DAF80010CA680240102802D1002AF9D101E0002AF6D0706807F012FAD8F8C0101D
:204AF8000020C8F8C400C8F8C00008741AE700BFFEFFFF0FC40100102DE9F04F8DB0044682
:204B180000209A4616460F46CDE90B00CDE909008A488568804604F0C3F91C2803D004F00C
:204B3800BFF91B281BD1308840F60201884218BFB0F5C15F03D1F07B022810D93EE043F676
:204B5800070188420BD196F82400032807D330697B4940F0806020F0604088422ED10020D2
:204B78006FB366B3387825FA00F0C00726D03046002107F0CCFF7348C4E90176006880B195
:204B980009A800900CA90BAA0AAB304601F0A8FC0B980B214FF6FF72502307F05DFAFF2825
:204BB8000CD007F07FFE684F06467878012802D840B1012070E0304607F071FF00200DB07B
:204BD800BDE8F08F01F000FC60480DF10409016841F0020101605E48C8F80000484607F010
:204BF800CDFDDFF870B15D494A469BF801009BF8005003905848283006F0E8FA5848594989
:204C18004A4606F0E3FA484607F058FDDFF85881564A19214B460295404606F01FF8544A5C
:204C380008F11C001A214B4606F018F85148524907F013FF5148524907F00FFF51480068FE
:204C580010F4402F06D0504A07F128000421002307F0FCF89BF8020010B10D2003F056F842
:204C780008F1400007F07BFC08F1380007F077FC4649002007223876B8843862386181F86C
:204C980060200521C7E902104149F96138700420002107F041FA78782F4941F8204001305F
:204CB8007870304607F0FBFEBAF1000F02D0DAF8000008E00DF1040A36492022504607F0EE
:204CD80041FF4FF0FF30DAF80420BAF81010DAE90635002AB2FA82F608BF40F6C4122060A7
:204CF800012076096183256360762B4826764FF4FA766261C4E90362C4E90700C4E90903B6
:204D1800DAF80C0000B12062DAF8140000B16062DAF8080000B1E06104F13800C82107F038
:204D3800A9FE04F15000002107F026FA1B4904F1B80007F092FE204641E700BFCC2108401D
:204D58000F0000052C0600206002002000200940110000E084D3000098030020D9C200004C
:204D7800787C0020DD780000FC03002015990000FD910000347C002089BE0000F07B0020B5
:204D980085C20000B44F00503D9F0000D07A00201D67000068D20000079B0000D5CA00001C
:204DB8002DE9FC47D0E900588246D8F80000D0F8409019F4F06FC0F8449035D05FEA495161
:204DD80017D5D5E91401411A504606F049FDD8F800008169C90605D401688DF807109DF8D3
:204DF8000710F6E7296801312960A97B09B90121A973696C40684FF0004600F00F0404EA44
:204E18000100B0FA80F126FA01F1014005D02F6C1FB12A68AB6C5046B847B4FA84F026FA4B
:204E380000F020404042A863D5F85801D8F83C1009F0400740680068D0F80425114039432D
:204E580047D0DAE90064504604F0F6FBD7B1F07C90B90BE0316F69B10068B16EB26F88541B
:204E7800306FB16F01310138B167306720688169C906EFD5F07C28B1D6E91401411A504632
:204E980006F0EEFC96F86400E0B13079022819D017B1B179012901D0316F99B90024B16EB9
:204EB8000128346786F86440B46607D1B36CB26FD6F8CC6050460094B04703E006F17C0051
:204ED80007F035FE504601F01DFFD5F858014068006800F204500068D8F83810084228D0AF
:204EF800D5F8F80028B3DAE90076504603F01AFF504602F087FC7879012812D1D7F8F40054
:204F180078B997F8E80060B1002087F8E800BB6CD7F8EC10D7F8FC20D7F8504100905046D6
:204F3800A047D7F8F80020B93068816B41F4006181635FEA095023D5D8F800008169090770
:204F5800FCD4016B21F480710163297A91B10020287295F84400800606D52C6C24B1AB6C3E
:204F7800504620210022A0475046012106F028FDD8F80000816B21F400618163687908B1B6
:204F9800BDE8FC8705F58070BDE8FC4707F0CFBD2DE9FF41DFF8BC81002003900290D8F8FD
:204FB8003840B4B3D8F84C0010B9D8F8480070B3D8F8480060B12069D8F8481009698142CB
:204FD80006D194F83300C00602D5D8F84C0090B1002702A887F0010103AA03F055FD0546A2
:204FF800FFB9F5B10299002900F09D805A4807F011FA002714E0D8F84800C068408800287B
:20501800F9D0D8F84800C06840880128F3D00127DFE752480221283007F08DFD00270025EB
:2050380000242CB34E48466816B30298B0FA80F04009284001281BD1D8F84800D8F84C108A
:20505800039A87F00103CDE9003208F1380208F14003B047012868D0022809D1D8F8480055
:20507800012201230069D8F84810B1F9301065E0002C204618BF01203840012851D1394843
:2050980021694068814203D034484FF4806145E00298002818BF01202840012806D1D8F879
:2050B800480018B9D8F84C0000284DD0082007F0F9F894F833004C25C00608F1380058BF10
:2050D800482506F065FF48F80500274BD4E90601C2439A60DA681043D860C8431860586867
:2050F8000843214658600820E56807F015F8284606F0A2FF288843F60601411A022906D361
:20511800B0F5C15F03D040F60201884203D10120294607F001F811484FF08041283007F0E0
:205138000AFDBDE8FF8100277BE70398002818BF044601220023B4F930102069009200224E
:2051580000F0F6FEBDE8FF81082006F08FF8BDE8FF8100BFFC030020347C002098030020FB
:205178003406002060020020081004402DE9FE4FD0F80080994614460E46824613B10020FB
:20519800C9F8000007F08EFB834698F8070038B198F8640048B107F08BFC6FF00805B4E002
:2051B80007F086FC6FF00E05AFE0002C4AD0504604F042FA00200121C8E91A64C8F8704070
:2051D800C8F87800C8F8380088F80C0088F80A00504688F8641005F06DFF504601F092FD70
:2051F80008F14C0402AD2046294606F0E2FED8F87810D8F870707218B84238BF0746029989
:2052180010463A4607F09EFC2046394606F0CDFAD8F87000D8F87810C21B3944012FC8F88B
:205238007020C8F8781001DBB842DCD198F8041002290CD10020C8F8680088F86400C8F863
:2052580070001CE007F034FC6FF009055DE0B84215D10020D8F86860012988F86400C8F893
:2052780068000CD10124584688F8104007F017FC98F80F0000284BD007F014FB834607F08C
:2052980017FC98F8040008B100252FE0D8F8701008F17C0031B30C9907F0C4FB10B101207C
:2052B80088F80C0007F0FEFA0446504604F0C4F90020C8F86800C8F8700088F864005046D8
:2052D80001F020FD98F80A6098F80C50204607F0E6FB002D18BF6FF00C05002E18BF6FF0AC
:2052F8000D0503E00021002507F09CFB07F0DAFAB9F1000F07D098F8041001291CBFD8F8F9
:205318007810C9F8001007F0CAFB2846BDE8FE8F002598F810000028AED007F0C3FAA8F801
:205338000F4007F0BCFBD8F84830D8F87820D8F8CC70504631460095B84788F80F50E8E74D
:205358002DE9FE4FD0E90198D8F80010CA690A62D20740F0AF80D8E904014FF0000A4FF07B
:20537800000B0843D9F8CC1049680968C1F8040509F13000029009F1C8000190BBF1010F63
:2053980000F2A180D9F8C000002800F09C80D9F8E010DC22D9F8CC702023002908BFD82224
:2053B80008BF182358F803404FF0240308BF1C237F68D8F8146058F803303F68D7F8045557
:2053D800354211D0A46864070ED10468D9F8D050A54209D144693CB9D8F80040656A25F053
:2053F80002056562C7F804659B685B0702D00BF1010BC3E759F80230002BF8D049F802A05D
:20541800B1FA81F1D9E934424909006849011A448442C9F8D420C9F8E01028BF82420CD208
:205438004846414600F07CFB99F8FE000028DED007F0C0F818BF8862D9E707F033FAD9F84E
:20545800C820D9F8C010019B81F810A022B113465269002AFBD114331960C9F8D4A04A6961
:20547800C1F814A0D9F8E01000294FF0DC01C9F8C02008BFD82159F80110C9F8D01007F046
:205498000EFBD9F8C00058B14846414600F048FB99F8FE0050B107F08DF818BF886205E057
:2054B800D8F80000416A21F003014162029807F044FB9CE7D9F8C0203AB103211174BDE864
:2054D800FE4F03F0C5B9BDE8FE8F486820F002004860486A20F003004862D8E904021043D1
:2054F800D9F8CC2052681268D062C2F80405486920F001004861012008624046BDE8FE4F40
:2055180006F0EFBBB0B560480021604C016094F83A01032812D002282ED0012840F0AF8014
:2055380094F8400103F024FE002084F840015948817B0220002908BF06209EE0544801683C
:20555800B1F5C060C4F82C01B8BFC1F5C060D4F81011002900D5494288422ADDD4F814010F
:2055780006F02CFCD4F8180106F03AFCD4F8280106F05AFC01201DE04548056807F0CEF8CE
:20559800C4F8140107F0D2F8C4F8180107F0D6F8B5F5C061C4F82801C4F8101109D094F8D5
:2055B80030215AB1D4F81401D4F82021D4F82C110AE0002084F8300106205EE0C4F8240184
:2055D800D4E94502C4F82C110223C4F81C01002901EB410148BF6FF001031944042391FBE7
:2055F800F3F111440029C4F820110FDD1F2931D3D4F824212AB33E28A8BF3E200130292970
:20561800A8BF2921C4F81C010B3909E0D4F82421032A09D111F1140FD8BF6FF0130115312E
:20563800C4F82011002113E00128D8BF0120013811F10A0FD8BF6FF00901C4F81C010B3107
:2056580003E03329A8BF33211539C4F820110321C4F8241106F0B2FB012006F0D3FBD4F894
:20567800200106F0BDFBD4F8240106F0DDFBA5F2FF510420032938BF0620C4F83C01BDE892
:20569800B04000F0B9BF00BF3C500C400000002008400C403CD300002DE9FF47D0E90159D1
:2056B8000E46044607F0FEF895F8FD1021B97169102901D8032906D807F0F1F90024204672
:2056D80004B0BDE8F087012785F8FD7007F0E7F900204E4A85F8FC00C5E93000C5F8C80065
:2056F80085F8FE003069C5F8E4007069C5F8E800307B85F8F9000028317885F8F81071680F
:20571800C5F8EC10B9F80E10A5F8F610317E52F8211085F8FA1008BF1027C5F8F07099F8E9
:205738000C0002F0F3FA204604F05CFD99F83B00374985F8FB008A46D4E901873A6B97F8A6
:205758003A0002F08BFA7A6B98F8FB00514602F085FA98F8F91097F83800012915D1FA6A34
:20577800514602F07BFABA6A97F8390046F2020102F074FA98F8FB00264906F05BFD98F8B4
:20579800FB00214606F00CFF0AE0BA6A46F2020102F064FAFA6A97F83900514602F05EFAE8
:2057B800E846404606F08AFF99F805001A4A4346CDE90040284699F8041005F04FFA40464E
:2057D80006F0DCFFD9F80800144942460094029005F1300005F0FAFC04F0C2F8104AC5F826
:2057F800CC0005F11C000421234606F02FFB95F8F80008B1B06805E005F16C00002106F051
:20581800BBFC0848C5F8BC0059E700BF0CD3000002600020256B000059530000E1A20000D1
:20583800C5C9000095CA0000FEB504465A480078A04213D908780D46012801D1686868B1C7
:205858006878012801D1A86840B1544F57F8346007F028F8F17921B107F021F900242046E0
:20587800FEBD07EBC40401216768F17107F017F9002005F1040C7074F081B0603060298875
:20589800B180A98BC6E93D00C6E90E0086F86400B186297D2B69B1719CE80610C6F85021A4
:2058B800BCF1000FC6E910C34FF0FF32C6F8CC10A969C6E93B203163A97F86F83610296A59
:2058D800C6E91A00C6E91C00B16486F8E800C6F8580102D13249C6E9101097F8400002F0AC
:2058F80015FAD7E9031206F14C0006F03FFFD7E9051206F1D00006F039FF2A4938680968E5
:20591800C96888477A6C97F8240046F2020102F0A5F9254DBA6C97F82000294602F09EF9CC
:20593800F86901280CD1FA6C97F82800294602F095F93A6D97F82C0046F2020102F08EF9C6
:2059580004F00EF8C6F85801204600F05FFF174A06F5AE700421234606F078FA6D462846D9
:2059780006F0ACFE387A7968114A2B460094019006F1140005F072F906F17C00002106F0F6
:20599800FBFB06F58070002106F0F6FB3868D7E90C121060486062E7A7D2000074D3000067
:2059B800879C0000D0010010026000201DC60000B94D00002DE9F84FD0E900B79846164659
:2059D8008946054613B10020C8F800008EB106F0B0FD824606F066FF04469BF8070060B1F7
:2059F8009BF8E80078B107F060F86FF00800BDE8F88F6FF00900BDE8F88F07F056F86FF0D1
:205A18000E00BDE8F88F00200121CBE93B96CBF8F460CBF8FC008BF8E810CBF83C008BF89A
:205A38000D008BF80B000BF580700021009006F0F9FF384606F084FFBAF1000F02D19BF80D
:205A5800050070B3284601F0DDFE07F02EF89BF8050068B90A99009806F0E4FF10B1012000
:205A78008BF80D00284603F05DF900208BF8E800B8F1000F1CBFDBF8FC00C8F800009BF887
:205A98000B0030B100208BF80B006FF00D00BDE8F88F9BF80D00002818BF6FF00C00BDE80D
:205AB800F88F07F002F8D5E9007497F84400C00615D5D7F840C0BB6C284610210022E047C3
:205AD8000DE0D7F8FC00314609EB0002204605F001FCD7F8FC10361A0144C7F8FC10002EC8
:205AF800EFD1204606F052FE0028FAD0204606F01BFF97F84400800605D53C6CBB6C28464A
:205B180020210022A0470020B8F1000F87F8E800C5D0D7F8FC00C8F800000020BDE8F88F78
:205B38002DE9FC4FD0F8C080D0F8D0C0D0F8E820D8F80030C346E6469C4511D3D8F814B02E
:205B5800BBF1000F00F0898090F8FC3005244FF0000E002B08BF0124DBF800308BF8104062
:205B7800A3EB0E05A2F1080AB5F5806F28BF4FF48065D0F8D82032B101F1200301F124024F
:205B9800C0F8DC5005E0C0F8D85001F1180301F11C020026BAF1000FC8BF0126DBF8044082
:205BB80012681F68CDF800E07CB1354B53F82630BB6005FA06F30126BAF1000FC8BF022636
:205BD8000EFB06332344013B05E02E4B53F82630BB6000F1F6033B6043F6F0740191D1F831
:205BF800009004EB0516264009F1080EC7F804E0BC683443BC600024BAF1000FC8BF012499
:205C1800DBF808709FB16146DFF87CC05CF824308C46936005FA04F30124BAF1000FC8BF4E
:205C38000224009901FB043139444C1E05E0154951F8241000F1F40491605460C2F800E08D
:205C5800916831439160C34504BF05EB0C01C0F8D01090F8FE10019A09B1BDE8FC8FD9F882
:205C7800241041F00301C9F82410D0F8CC00D2E904124068114300688162BDE8FC8F00BF13
:205C9800F4D20000FCD2000004D300002DE9F047012816D1DFF830A1DAF83401012813D168
:205CB8000220CAF8340105F0AFFD0120012405F0BDFC60B1CAF8344106F0FEF94FF0FF3477
:205CD8007FE06FF001047CE06FF0040479E09AF85A419AF859119AF85801002C18BF012491
:205CF800002918BF0234002818BF0434012006F0E5FD013818BF01209AF83811B1FA81F1FD
:205D1800490910EA010902D1002001F0E1FBDAF808002E4D10F0010807D12D4F286A816828
:205D3800384688470428F9D00646404606F070FEB8F1000F08D1012E04D1286A01214268E0
:205D58002348904706F0E2FC28684169204688479AF8540118B14FF4806006F0B5FD9AF899
:205D7800530118B14FF4816006F0AEFD19480121016003200021CAF83401174801602046E4
:205D980004F096FC0128FAD1144E3068042005F04DFC044612480125B9F1000F0560306895
:205DB80002D1012001F094FB06F04FFE082005F03DFC0443CAF8345118BF4FF0FF3406F0F1
:205DD8007BF92046BDE8F08700000020B801001000400340282008600C2008402C20094090
:205DF8000C4009402DE9F047DFF83491D9F840A0BAF1000F00F088800AF10C020820FF2159
:205E180051FA80F0C3B21B1A18BF012312686AB163B11388A3F60303012B01D90432EFE715
:205E3800DAF8100092E8FA003830FAC0DAF808200025DAE90A10CAE90A55B2B110F0E2443B
:205E58000CD021F00F0220F0E2434FF0000852EA030005D006F0E8FCB04701E088460446D2
:205E780006F0E2FC42462346B04706F01BFD0446B9F8560001306FF31F30A9F856004FF6D1
:205E9800FD70AAF8300009F140008AF8335006F07FF8204606F003FEB9F85600B9F8541086
:205EB800884231D11F48204940680D6830B190F8FC200720002A08BF052000E005204C6896
:205ED80003F0E4FA55B195F8FC00002100284FF0000008BF286885F8FC1000E0002044B1ED
:205EF80094F8FC200021002502B9256884F8FC1000E00025A84288BF0546681C04D02DB90D
:205F1800BDE8F04706F0B2B9BDE8F08706F0BEFDB5FBF0F10548BDE8F04706F07BBA00BFBB
:205F3800FC0300206002002098030020F07B00202DE9F84F4FF00054002A994616460F46B8
:205F5800804618BF4FF080444D1C06F0ABFC824635B140463946002204F0EEFB07460FE095
:205F78003C48816C11B10969414506D0C16C11B10969414503D0876B02E0876C00E0C76C74
:205F980037B197F93300B0F1FF3F03DD04245BE0032459E0DFF8BCB00A9DDBF848008742EE
:205FB80018D0DBF84C00874229D0404639464A462B4602F0ADFD0028E8D02748017E012966
:205FD80041D0007E04283ED024482549283006F0B2FD38E0DBF848000022234605F094FDC5
:205FF80006F066FC1F48002E18BF00F5803006F023F8F5B1DBF8480006F005FD0CE006F074
:2060180057FC1848002E00F100501CBF0120C2F2024006F011F865B1DBF84C0006F0F3FC3B
:2060380038690E49086291F8240040F0010081F82400B9F1000F06D0DBF838104046012218
:206058002B4602F065FD8324504606F028FD2046BDE8F88FFC03002060020020980300201D
:2060780002000040010001042DE9F0410546880058BFBDE8F0810020002403F027FE3D4997
:206098003D483E4FCC61086040F60A008846B887FC8797F8480000F0F00087F848003C6453
:2060B80097F8490000F0F000013087F84900284601F0E0FFAC68012021460E46496849B13E
:2060D8000A88A2F60302072AF7D800FA02F212F0830FF2D0707B00F0F000707307F13C0053
:2060F80070602748806B28B1C0680088A0F6030002281AD3284630F8381FB1B10021E96369
:206118006987386495F8440095F8451000F0F00085F8440001F0F000013085F8450097F824
:20613800490000F0F00087F8490006F057FA1548F86197F8250030B105F0D2FC0028FBD00E
:2061580004F030F90BE0012006F0B8FB012806D0707B00F0F000013070730B48F8610020AB
:206178002146C8F81C00C8F800400120BDE8F04105F0D2BF0010044001010E04600200205D
:20619800FC03002039400000B1A100002DE9F04387B0DFF8FC8081462025EFF3118085F333
:2061B8001188D8F838501DB180F3118800256AE0C8F83890374F80F311880020C9F80C1076
:2061D8004FF48031C9F81C20002BC9E91200C9E9080118BF1F46D7E90116C9F81810397B5C
:2061F800012905D1C9E91060C9F8146030460DE0294A002031460023002506F00DFAC9E9CC
:2062180010012649C9F814008E423CD80021DFF890E0C9E9160197F800C0C9F85410BCF1DB
:20623800020F08BF0146BCF1000FC9F8501001AB9EE8F5001946F5C108F124001A4ACDF8C8
:2062580008900090174808BF024609F12800142105F068FE05462020EFF3118180F31188D3
:2062780081F3118899F8100010B9484604F0E2F835B108F13000494606F04CF84D4602E0E6
:206298000025C8F83850284607B0BDE8F08300BFF0010020A8D2000040420F003F420F00D1
:2062B80024D3000065AD0000F5C700001EF0040F14BFEFF3098169468869A1F1480214BF52
:2062D80082F30988954621ED100BF1EE102A41F8082DEFF3118102B400B5DFF8D8E0F04770
:2062F800374A1268116801EA000010605DF804EB1EF0080F09D101BC80F311885DF8080B43
:20631800E1EE100ABDEC100B704704BC1EF0040F14BFEFF309816946A1F1200114BF81F338
:2063380009888D464A604FF08070C86125488861234B1B681868086040F20110186070473E
:2063580002B401B4EFF3148100291CBF002282F3148802B402B4DFF860E0F04701BC01BCD8
:2063780000281CBF022181F3148801BCDFF84CE0F0470F484FF08051016001BC80F3118847
:2063980000BF00BFFFF7FEBF1EF0040F14BFEFF30981694601F1200151F8080BE1EE100A4D
:2063B800B1EC100B14BF81F309888D46704700BF04ED00E07D950000F3CA0000F9CA000089
:2063D800F8D30000586300002DE9FF413B4E96F8420100286AD1012086F8420106F07AFAC0
:2063F800374F86F87001374D7868C6F86C01387B86F84101A86810F4402F13D1386988B1CD
:2064180028686421C0F3066000FB01F406F03EFBB4FBF0F22C4906F19400002305F076F800
:2064380006F06CF901AC204606F0DEFA2749A846002506F10C00002206F0E8F9204606F02D
:20645800D3FA234906F15000082206F0DFF9214A06F1D8003221002304F000FC1E4C1F4A39
:2064780006F1F4002C2100232560454604F0F6FBD8F80800797BC0F3815021B1032804BFA4
:20649800012186F83911032803D040F00200022810D1206840F040002060022005F066F8D2
:2064B8006868400702D4002005F060F8002004B0BDE8F08104F0C6FDF2E700BF0000002011
:2064D8003CD30000AC4F00506BC8000043AF0000F9A9000011950000902208401D55000071
:2064F8002DE9F8431D46434BDDF8208043F606061C68038814F0007411D0B34227D0B3F58C
:20651800C15F33D040F60206B3423ED100F112030B604169116081692960C1692EE0B342D2
:206538000AD0B3F5C15F03D040F60206B34203D100F11203143002E000F11A031C300B60D6
:206558000068106000202860C8F800004BE000F11A034FF000090B60C1691160016A296068
:20657800416AC8F8001000F118011CE000F112030B6041691160416A2960816AC8F8001007
:2065980000F1100190F80F900DE000F11A030B60C1691160816A2960C16AC8F8001000F159
:2065B800180190F82490286868B10E8806F035F9042808D8074606F00701484603F028FB10
:2065D800296841F82700D8F8000060B106F025F9042808D805464846FF2103F019FBD8F8E1
:2065F800001041F82500002C18BF01242046BDE8F88300BF941200502DE9F84F3C4C3D4E42
:206618003D4D42F62A294FF0010A4FF0030B00274FF00508D4F83C01062833D8DFE800F04A
:206638000433183B203D4B000F20F060C6F8109004F050FB45F804AC55F8040C8007FBD553
:20665800C6F81CA094F8390190B10120EF6210E02F60C4F83CB128688007FCD40320DBE73B
:206678002F60C4F83C8128688007FCD40520D3E70320C6F800B0C4F83C012F6029688907FA
:20669800FCD4C9E7FEE70126022084F83A6104F0C7F92E6009E0022000E0032084F83A0116
:2066B800002004F0BDF90120286004F15000BDE8F84F06F024BA002045F8040C286055F808
:2066D800040C8007FBD428688007FCD40B480025012105600A4801600D2001F01FFC022048
:2066F80004F0AAFDC4F83C5184F83B51BDE8F88F0000002000400C4058600C403C500C40E2
:2067180004800C40B0B50C46880722D4600758BFB0BD354D0120A870042004F027FF3348F6
:206738000068006B8047E8602D48806BF0B16968046961B1A1420AD094F82800400704D57D
:20675800636A2046042100229847012060766C600DE0FFF747FB2248006CE0B3214844F0DA
:2067780002012830BDE8B04006F0E5B96C6860681F4900780860022004F0F8FE102001F06C
:20679800C5FA012028761B48807810B90D2001F0BDFA6868416818488A680AB9C96821B1D9
:2067B80000218160154940F8141C154907220A60016800210160426841601249124AE961D1
:2067D8000168114301601A2006F09FF91920BDE8B04006F09AB9BDE8B04003F05DB800BF48
:2067F800FC03002098030020600200208C010010D021084084D30000141004405100070632
:20681800000004608160000002400040FEB5D0E9005401A805F03AFF95F834003649374A41
:20683800384E085C95F83510515C354A084395F83610515C2A6B40EA0103316820684F68F2
:206858000299B847206840F2F272E1692E4B2F4F426494F854209A5C94F85530FB5C1A43C6
:206878000129426311D10146D4E90A2351F8307FFF2A27F4004718BF07F50047FF2B0F60E8
:2068980009D00A6842F4804208E0014651F8302F22F400420A600A6822F480420A60C16A25
:2068B80041F01001C162016B41F001010163E16B09B3A16BF9B1012105F018FED5F8580147
:2068D800E16B40680068C162C0F8041591FAA1F17268B1FA81F15368022298477068A16B9A
:2068F80002224368D5F8580191FAA1F1B1FA81F1406800689847FEBDF4D3000029D10000E6
:20691800DCD30000D0010010E6D30000E1D300002DE9F047A4B005F0C5FF33490A78012ADF
:2069380004D124B0BDE8F04706F0B9B84FF0010981F8009006F0B3F8FFF746FD082001F00E
:20695800E5F921AC204605F0B9FEDFF8A0A0294A10212346DAF80C002290254804F07EF9D6
:206978002548002501AE0478244890F800804746A74213D8DAF8000050F8271021F0FF000C
:2069980046F82700880707D4F8B201F0010105F08DFE09FA07F005430137E9E718480560E4
:2069B8001848C16801F44001B1F5800F07D10068000E56F8201041F0070146F820101248FE
:2069D800A4EB0802042306EB880103EB820240EA880006F0B7F80D482022016862F30D2119
:2069F800016024B0BDE8F0877106002064D30000107E002041A60000A5D200002BD1000058
:206A1800D0200240A84F005000100840003009402DE9FE4F4FF4804005F060FEA0B1354C89
:206A380035496068D1F8132009786FF39F5201F00401806842EA417101AA00F07DFE60688E
:206A58008168012005F068FB2E482C4F2C4D44F2020B00244FF0000A00F14009BAF1020FAC
:206A78003CD055F82A80D8F80000A0B3D8F80000806905F033FE0646D8F800000023324642
:206A980005F042F816F00A0F1ED0D8F800008069B9686BEA00000840B860D8F80000C0691A
:206AB800396821EA000038601020D8F8001005F033FBD8F80010484605F038F9002044F05F
:206AD8000204C8F8000006E02EB1D8F800000D4944F4804408650AF1010ABFE724B10A48B1
:206AF8002146283006F027F801F08AFDBDE8FE4FFEF74EBA60020020850300210C100440B8
:206B1800B4D30000FC03002098030020F8B5044605F0C4FD07464568204605F037FDB8B15D
:206B3800D7E9014605F0BEFE0546D4F8C000B8B104210174384601F0E1FBD4F8C800B0B16B
:206B5800014640690028FBD1D4F8C000486112E005F0A8FE0446D5F8C00078B3103034E021
:206B78003068416821F002014160284630E0D4F8C000C4F8C800416900274761C4E93477A8
:206B9800C4E93677C4F8C01031B320463146FEF7C7FFD4F8C000C4F8E0700068B0F5806FE7
:206BB80003D920463146FEF7BBFF94F8FE0010BB3068416841F0020141601CE095F8FB0066
:206BD800002104F0BBFC05F1FC00012101702046BDE8F84005F063BF94F8FB000021C4F88E
:206BF800C47004F0ABFC012084F8FC003068416A21F003014162284605F051FF04F1300042
:206C1800BDE8F84005F099BF82B001F0B1FE00285ED03B48374C384F384E4FF000080DF1B2
:206C380006054FF0080942F25C4A834605F0B2FE10B105F0B5FEC0B12046FF212A46ADF824
:206C5800068002F02DF880B1BDF8060068B1062805D3204605F0A2FD112800D028B9BDF8DB
:206C7800061020460122FDF723FC387820B37B88304601210022CDF8009004F039F978888F
:206C98000E21A6F806A0C6F80AB07072000A3072304600F04BFB7888012101306FF39F3033
:206CB8007880072005F002FD4CF2503004F04EFD0720002105F0FAFC787800284FF47A7034
:206CD80004BF47F6F060C0F20E0004F03FFDADE7074C0720012105F0E9FC204604F036FDC5
:206CF8000720002105F0E2FC204604F02FFDF0E7A08601000077002054060020607E0020CE
:206D1800DEADBEEF2DE9FC4706680446707A00286BD0D4F80490D6F85801D0F80480D9F821
:206D38003470204602F088FC706F20B306F14C05284605F0F8FE316F884221D23079022838
:206D58001ED0B06E002850D0204602F075FC346F284605F0E8FE201AD6F868A0B46F706708
:206D7800284605F0E0FE0021F1740AEB040108440190706F0CE0B06E10B1306F0028D5D146
:206D980006F14C0001A904F027FD01217067F17458B30021B0F5806FB17384BF4FF480602E
:206DB8007067012301990144013979601049B96043F6F07101EB00100840B9680843B860FA
:206DD800D9F83C10D9F8000091FAA1F2B2FA82F203FA02F2D8F800309A61D6F85821526882
:206DF80012689162012105F08DFBBDE8FC8700BF0180000CB0B58CB0344D687808B101241B
:206E180056E004AC204605F083FD0821002009912F4928708DF828008DF810008DF81C00C3
:206E380000200891214603F01BFE686078B32949142005F031FE1420012105F037FCAB2008
:206E58000021012200248DF80F000DF10F0004F069F900B3012001F0B1FC04F06FFA00B339
:206E78006FF06000002404220290019402A801A904F058F9F8B19DF805009DF80710C22858
:206E980008BF142919D02873697350200AE01020002428700CE020202870686805F011FE98
:206EB80005E030202870686805F00BFE00246C6020460CB0B0BD4020EEE74FF48010012473
:206ED800A86041F2C2406C70A881F1E7F005002000093D00016400202DE9F0418EB00446D1
:206EF8004A1E002012F1030F0AD809AA0490029107922F4A06928DF814000222684600E02C
:206F180003220C908DF834202020EFF3118680F31188608A30B1608A01386082012086F390
:206F3800118842E000293DD02248012104F1140790F808800172806909AD45620B9003F055
:206F58005FFFA06909970A900560A5619DF83400022808D118494A680C9801604260106017
:206F7800486001F0E1FB86F31188404603F066FF2021EFF3118081F311880C9939B10A68D2
:206F98004B681A604A6809684A6000210C910B9900224A6280F311889DF83400002818BFDB
:206FB800012002E086F3118800200EB0BDE8F081C1B40000A4040020300300202DE9F843CF
:206FD80015460C46804601F0A7FF2C4800212D4F01602B48814600683868816927208847DB
:206FF800294E2A49306B08403063B06F20F48070B0673868016B4FF4806088473868016BD5
:207018004FF4816088473868016B4FF4C06088471F48012101601F48C6F88041316001685D
:20703800890704D4691C08BF4FF04045C560D9F80000F0698007FCD5072003F017FB0228C3
:20705800FAD1B8F1000F13D1134C386A8168204688470428F9D0012804D1386A032142682F
:2070780020469047D6F8180220F00300C6F818023868806BBDE8F843004700BF0C400940E2
:207098002C200940B80100100C200840FFFFFEFE28200860100009400040034070B5203902
:2070B800062918D8DFE801F01A23042D38404800147800222321FF2CF1D0D0E9015695F838
:2070D800FB0003F0ADFD726B2B49204685F8FB4000F0C4FD49E06FF001044AE0406890F8F9
:2070F800F910012943D1012180F8FC103DE045680021002495F8FB0004F020FA85F8FC402D
:2071180037E0446894F8FB00FF282ED003F088FDFF2084F8FB0028E04068D0F8C01031BBA6
:20713800012180F8FE1020E04068D0F8C010F1B9002480F8FE401CE04168D1F8C020B2B11A
:2071580091F8FE209AB180680268D0E90430546A184344F003045462D1F8CC104968096815
:207178008862506840F002005060002401E04FF0FF34204670BD00BF026000202DE9F043DF
:207198008FB00C46002730491546814624229846009703A805F0D6FC6B46002050210022F3
:2071B800C9F8007003F068FE002848D0074627484FF40071002C07F14806816008BF044619
:2071D8000021D4E90032A0680792002A4FF0000208BFE268FE64F963C7E90D51F962796466
:2071F800BB6023691044002B18BF01233B63BE644FF0FF33089001200C91CDE90D11CDF836
:207218002880CDE9045700218DF83000069307F110000CAA04F0C8FC0D4803A96A4603F014
:207238009BFBF86040B14563C9F800702168F86800F05EFC002003E0384604F03DFB0C2072
:207258000FB0BDE8F08300BF24D20000B805002081C60000F0B5314A046A516B137D0C611F
:20727800446A01F1200C032B0B704C61846A8C61C46ACC6190E8F000ACE8F00000F140047D
:2072980000F110074C64F0CF01F1300CACE8F000046B0C64446B8C64846BC06BCC64086578
:2072B8000BD8DFE803F0020D1016156DC4B2106C936C55F824404C600FE0002000230CE0F6
:2072D8001748C06D06E0174880694860D0E90A3003E000204860106C936C926BC1E902036F
:2072F80032B12BB110F8014B013B02F8014BF8E70D4802684A6590F824208A6590F825200C
:20731800CA65C28C0A66826A4A66C26A8A66026BCA66426B0A67806B4867F0BDC8020020C4
:20733800F0010020A404002004ED00E0FEB5304E05463078012804D11DB10C4609B1FF2C64
:2073580002D900242046FEBD7078012807D1B0684FF0FF31012205F051F800207070254FB0
:2073780029462246781C3C7005F0ECFB012005F075F82149601C002500220023CDE9005524
:20739800C873087B4F6100F0F0000873B06804F082FC10F0020F0446757018BF05F00EFA6E
:2073B8000020C4F3400405F059F8B06801F0F4FB42F2107004F0CAF901F06CF920B141F297
:2073D800883004F0C3F9BDE70C4D0426002EF6D00720012105F06AF9284604F0B7F9072038
:2073F800002105F063F9284604F0B0F9013EEDE720060020007600208C050020803801009F
:2074180070B52548066804F057FB24480025244C0560206C806C80472248006838B1224844
:207438000068B6F1FF3018BF304600F0C7FC1F4840F2391205601E48016862F31B410160CC
:207458001C48016801F44051B1F5805F06D10168194A114001F5003202600160174D0126D2
:20747800EE612068016A142088471548016841F4E021016013482E60006800F44000B0F528
:20749800000F03D1206C416C0F4888470F4801680029FCD170BD00BF1C1300508404604247
:2074B800B001001080012843800520438C2108404820034028000940EFFFFCFC00002443C1
:2074D80000200940B44F0050BD3786000C00684270B5F8B1012858D1012005F0EFF9012861
:2074F80053D02D4C94F8380100284ED12848294E0569306810F4402F30D17DB304F0CCFD7E
:20751800502005F0CFFA0120A84704F1940005F0F6FA25E005F0FDFA1E48006810F4402F75
:207538000AD11B4804693CB11B48943005F0B1FA04F0A2FD0020A047174C94F8380120B33F
:207558001648016821F08001016080218160032003F072FE002084F8380116E005F0DDFABA
:20757800012084F83801306810F4402F00D14DB9207A800606D4094880218160016841F0D4
:2075980080010160032003F0F1FF002070BD00BF3CD30000B44F0050000000209022084063
:2075B8002DE9F84F1E4614460F46814605F07AF9804604F0A1FD00284AD005462848DDF8EA
:2075D8002CB005F066FADFF89CA0274A0A9B4FF0FF31BAF854001A40023201306FF31F3054
:2075F800AAF854000020AE6085F83240C5E90379C5E90F100BF0200185F8440085F83800D7
:207618006863C5E90800C5E906218022BAF85410A5F85000C5E9120085F833202986397B64
:2076380001F00F01022904D1012185F83810B968696389F8FC000AF13800294604F076FBD9
:20765800DAF83800A84208BF02F026F92C8E01E04FF6FE74404605F022FA20B2BDE8F88F5F
:20767800F07B0020FC030020FDEFFF9F2DE9F8432020EFF3118980F311882C480068006B5E
:2076980080472B4E4FF000082A4F012286F85D8086F85C20D7E9104522462B4604F0BCFFBD
:2076B800A0FB042300FB053301FB0431746DC7E91221B168B268611A821A914205D986F84F
:2076D8005C8089F31188BDE8F883051B89F311880020854206D304442D1A0120214602F083
:2076F80007FAF6E72021EFF3118781F3118896F85D1019B10020214602F0FAF9411C05D069
:20771800411BB06D814238BF084600E0B06D011904F0B0FE002086F85C00012086F85E0020
:20773800B46087F31188BDE8F88300BF8C01001030030020387B0020F0B585B00D4600211A
:207758001446CDE90311CDE9011101A9009104A903AA02ABFEF7C4FE029F002F394618BF06
:207778000121019E0140002E324618BF01221140002D10D411B3049840F22B2105806FF328
:207798009F5538462A4604F0A9FB0398314601F01FFF676010E0C9B104984FF0FF316FF398
:2077B8009F552A46018030462B2104F097FB0398314602F03FF8666015201EE0C8B104983B
:2077D8004FF6FF720188914214D110E078B16FF39F5503982B212A4604F080FBFF2806D068
:2077F80004984FF0FF3101801420656005E0032005E004980580658010202080832005B0D1
:20781800F0BD7047F8B505680446D5F8F80000B1F8BD68796668022807D105F1D000694637
:2078380004F0C7FBC5F8F80009E0D5F8EC10D5F8FC20D5F8F4001144C5F8F80000910028A6
:20785800E6D031688A6B22F400628A6395F84410C9060AD52F6C47B1297A31B9AB6C20463B
:2078780010210022B847D5F8F800B0F5806F84BF4FF48060C5F8F8000099336B01444A1E46
:207898003168B66B1A600E4A9A6043F6F07202EB001010409A6810439860D5F85801406847
:2078B800006886620846022104F02CFE287A0028AED120460121012604F000FA2E72F8BD96
:2078D800018000C02DE9FC412A4D95F86100002844D000240026602C40D095F86100F04057
:2078F800C00702D120340136F5E7112095F8618000FA06F704F0D6FF95F86110B94385F899
:20791800611005F0CCF8281928D0817A31B31021194A2C59B14011EA080190F9091052F813
:2079380021804668CFB209D001F032FB002079B200224FF00073009020460EE0017A0229BF
:2079580002D1C17CC90601D401F022FBCDF8008079B2204600224FF00063B04795F86100CE
:2079780028B106480021BDE8FC4105F0E4B8BDE8FC8100BFD07A002094300440787C0020CD
:20799800002850D02DE9F8432021044605F072F804F00CFF206024484FF0000801784278E7
:2079B8008368C4F80630C368C4F80A308388C5880669627121710022C4F81260E38125822A
:2079D8004169C4F816108178A1760321C078E076002004F021FB1548154F395881460320D5
:2079F8008847144E05F00AF80546386840688047002003210022A58304F00EFB57F80910FA
:207A18000520884704F0FAFF0546386840688047A8B241F2CC01484340F6FF71B0FBF1F0FC
:207A3800E083BDE8F84370475C050020A8FEFFFFE40100101C900C4070B5012953D0044666
:207A5800002942D128480121057A01722021EFF3118681F3118894F82010032916D002298E
:207A78001BD0012929D12168E26C636819606168236859601168914204D1A169C26822EA56
:207A98000101C160606AC0B1C0680FE020686168086060682168486012E0616A69B10A685E
:207AB800C8684B681A604A6809684A6028B1016842681160416800684160204603F04EFBD3
:207AD80086F31188284603F0B9F9216B481C0AD006480029806818BF0846D4E90A21436888
:207AF800BDE87040184770BDA4040020F00100202DE9F0412B4B012702462024187A1F7220
:207B1800EFF3118C84F3118854698C4202D18CF3118841E01D6A002907FA01F705EBC106C7
:207B380048BF03F12C0648BF002792F82050012D26D1D2F800E0D2F84C805568C5F800E019
:207B5800D2F804E01568C5F804E0D8F80050454505D1D2F818E0DD6825EA0E05DD609D6955
:207B78009542354601D1DE613568D5F804E01560C2F804E0CEF800206A60DD683D43DD6077
:207B9800B1F1FF3FD66497615161DCBF0021D961012119748CF3118803F050F92046BDE805
:207BB800F08100BFA404002070B504F04AFF04F097FE04F09BFE044600F00C000C2803D1EF
:207BD80000BF00BF30BF3AE060071DD402F0E8FF05464FF47A70012105FB00F6012004F030
:207BF80037FB864210D91C4C04F10C00656104F0C1FC00BF00BF0120FEF748F800BF00BF58
:207C1800002084F820001CE000BF00BF200715D40E4E0F4D30688168284688470428F9D09B
:207C3800B0FA80F004F01001400940EA111004F072FF084801210160006800E030BF00BF4B
:207C580000BFBDE8704004F000BF00BFD8010010004003402C200940000000202DE9F84F08
:207C7800FF2831D0264B0C4605464FF4BE21AF0004F0020843EA80004158C9B2914227D15B
:207C980021489A464FEA142947EA0006834604F009FE0BF10101220C86F8009039430A70E2
:207CB80046F00201220E0A7004F0F9FEB8F1000F02BF45EA0A0004F001010170114801214A
:207CD80081EA5801384316E04FF0FF30BDE8F88F00F5BE2024F0FF0162B9B8F1000F02BF42
:207CF8002B4304F001041C70064B012484EA58043B431C60114301600020BDE8F88F00BF7F
:207D180000200240001A4442011008402DE9F041254E0546371804F0C5FD044697F84A01C2
:207D3800411C87F84A1128B1204604F0B8FE0020BDE8F081DFF8748018F8257007F03F002F
:207D5800142898BFFFF7E2FF08EB8500458878B2B0F1FF3F0CDD78061FD41548006841698A
:207D780028468847284602F0A3FC0128FAD1DBE70F4E3068C169284688473068416A2846EC
:207D980088473068C16A284688470A4801210160094801688907FCD5C6E706EB8500D0F821
:207DB800601101208847BFE700000020ACD10000B80100102820086028200840F8B5054606
:207DD8002248234E4168890705D40168F02242EA114186F84D101F494FF001221F4F0A6028
:207DF8001D49098839680968846820468847A00105D4E00103D5307840F0020030703868F4
:207E1800214642682846904703F042FE1448154A0068C0F305311170C1054FF0130158BF04
:207E3800232140237354382101EA901000F56050A2F85C003868816820468847022003F06A
:207E580091F8094801210160F8BD00BFAC4F00500962084004A40C4000A00C40F00100105A
:207E78000C1400500EB00C40940460428B4208BF824207D9009A002A01D010605160002127
:207E980000207047002B08BF002A10D1009A002A01D01060516002000B0000210020002BC7
:207EB80008BF002A1CBFC943C04302F032BAF0B51C4615460B46024600200021B4FA84F68D
:207ED800202E04BFB5FA85F62036B3FA83F7202F04BFB2FA82F72037F61BB6F1200727BF7F
:207EF80005FA07F400257F42B4403EBF25FA07F73C43B540A34208BFAA4201D3521BA3414B
:207F1800404149416D0845EAC4756408761EF1D5059F002F01D03A607B60F0BDF8B5254FB4
:207F380005463E1804F0BEFC044696F84A01013886F84A01000637D11F4810F9251000EB17
:207F580085004588CEB2B1F1FF3F0CDD70061FD41A480068816928468847284602F086FB33
:207F78000228FAD11AE0154F3868016A284688473868816A284688473868016B284688473D
:207F98000F48012101600F4801688907FCD505E007EB8500D0F860110020884706F03F0015
:207FB800142898BFFFF7BAFF204604F078FD0020F8BD00BF00000020ACD10000B80100109E
:207FD80028200860282008402DE9F041002918D41F4615460E46044604F00AFB804620466A
:207FF8003146802202F0A8FB20B1064690F9330000280AD4404604F0A2FD00210220BDE8DB
:20801800F08100200021BDE8F081D6E9080145F00A0547F0E04728403940084310D0404684
:2080380004F08DFDD6E9082303EA070102EA050042404B40C4E92C01C6E90823BDE8F08103
:20805800B1680B48814203D0B168C4F8A810B0604046C4E9285704F072FD04F150004FF0D0
:20807800FF3104F0DFFCD4E92C01BDE8F08100BFA59A000010B586B00146427E80680023DE
:2080980043F606040593CDE903330293438003881C1B022C10D3B3F5C15F03D040F60204FF
:2080B800A34212D1038A002A23F4FE6312BF038243F43472028208E0038B23F4FE630AB151
:2080D800038302E043F43472028300224A7602A9009105A904AA03ABFEF702FA28B105982F
:2080F8004FF6FF71008888420ED0049C0299204601F06EFA0748016821B1204606B0BDE83E
:208118001040084706B010BD049C0299204601F091FBEFE72C060020F8B515460446254820
:208138000E461168D268AF690068002F18BF3846216120636261D5E90421002908BF4FF43E
:20815800007162B1D31D11444FF0FF3023F007032063C91A21F00701C4E90A1308E007314A
:20817800082221F00701A16202F086FEE062F0B1D5E9010104F13803EA69666307C395F8E5
:20819800200084F8480018B10B4841690131416100206065204600F0AFFF08B10230F8BDC0
:2081B800054804F1080104F0B5F80020F8BD0120F8BD00BF887E0020A40400202DE9F84F06
:2081D80000248046002100220460684600F05CFC204DDFF884A081464FF0FF374FF0190BF9
:2081F8000020602C1ED02A19917AB9B1107A022816D0DAF80400418B0069084495F8621025
:2082180011FB0B01506903F0B9FA064604F03EFCB6FBF0F0B84238BF074601202034E0E74A
:208238000120002709EA0001012904D10099B94238BF0F4606E0B9F1000F01D0009F01E01B
:20825800C10701D0C8F8007040EA090000F00100BDE8F88FD07A0020600200202DE9F04FAC
:20827800C1B0824624484078012808D1934632B10D4621B105EB0A00B0F5801F04D9002665
:20829800304641B0BDE8F08F6846002400F10409B5FA85F04609002DF2D004EB0A085FFAAF
:2082B80088F0C0F58077BD4238BF2F4602F0F8FB0028E5D002200BEB04013A468DF80380B0
:2082D8008DF800004FEA18208DF802004FEA18408DF80100484604F035FC3A1D6846002119
:2082F80002F020FF0028CAD003F028F80028C6D0ED1B3C44CCE700BFF0050020F8B5D0E94D
:2083180001650446287904F0FEFBD6F8CC206969286852681268D16296F8F93013B9C368D6
:20833800DB06FCD4436823F0020343602B69D3621943476A27F003074762C2F804154169F1
:2083580021F00101416101210162D6E93512D6F8C00001604AB1EB699B68C3F309139A42D6
:2083780003D91144DA4311440160D6F8DC204AB16B6A9B68C3F309139A4203D9DB431A443E
:2083980011440160204601F02DFF287903F034FE2879BDE8F84004F0B8BB704770B58AB0CB
:2083B800FEF7B6FA1C49072004F076FB1B4C072000210025A0471C200021A0471D200021B2
:2083D800A04702F0FDF901AC204604F007FB1448022621460022CDE90255049605904FF421
:2083F800006006900F4802F0B7FA0F490860204604F0F4FA0D48214600220496CDE90255E8
:2084180005904FF400700690094802F0A5FA0949086000200AB070BD00600020C5C60000B8
:20843800205B0020216C0000807E0020F06C0020B5A900008C7E0020F8B50446FD201D4663
:208458008DF8030020461E68324600F08DF810B101208DF803009DF80300FD2815D1A6B13F
:20847800E068007B00F00F0002280ED13768204631463A4600F078F820B9002F3E46F5D16B
:20849800002602E002208DF803009DF80300FD2804D1E06B10B104208DF803009DF80370C0
:2084B800042F0FD0022F06D0012F0FD12846214603F04EFC0AE0326822B12846214603F04A
:2084D800D7FB03E02846214603F030FC78B2F8BD2DE9F04FADF5037D0646224840780128EE
:2084F80007D114462AB10F4619B1B819B0F5801F04D900200DF5037DBDE8F08F01A84FF098
:2085180000084FF0030900F1040A42A800F1040B37B308EB06003D468DF80891010A8DF8F3
:208538000B01000CB7F5807F8DF809018DF80A11584628BF4FF48075FF22294604F07CFA7A
:2085580042A82A1D01A902F0EDFD0028D1D004EB080051462A4604F0F5FA7F1BA844D7E75E
:208578000120C7E7F005002070B5B2FA82F3B1FA81F45B096409B0B312B190F844506DB366
:2085980089B191F844406CB3446B0E69096C05698908A408AE4214BFED6800252944611AF2
:2085B800B1F1704F22DAB2B1D168097B01F00F01022915D1516B0569006C146980088908E8
:2085D800A54214BFE26800221044081AB0F1704F01DB012804DB0124012304E0002302E071
:2085F800012400E0002404EA030070BD00240029C8BF0124002AF6D00129D5DAF3E77047C9
:208618002DE9F84F204E214FDFF8848000254FF0010B4FF002094FF0110A602D08BFBDE81F
:20863800F88F7C192ED0A07A01282BD1607A41B20BFA00F01131C0B20BFA01F1CA433260BD
:2086580072681143716003F02DFE04F11000002103F0F0F8812809D1A06920B1002103F073
:20867800E9F8812802D184F80A900BE0607A97F861100AFA00F00843002187F861004046E4
:2086980004F059FA2035C8E708100440D07A0020787C00207CB51F4D2879F0B91E4C40F21A
:2086B80001101E494FF4866204230090204601F08FF80146002001B17CBD1949C1E90740C5
:2086D800FF20CA7B087501202871887B40F00600887302F05400A330C873114C0026207B41
:2086F800E17D668000F0F000207301F0F0000130E075002003F0B2FE4FF40001A868094BD9
:208718000022CDE900162146FEF74AFF012068707CBD00BF20060020707E002020630020C6
:2087380038050020959D00002DE9F041044680681F4F206297F85E00E8B197F85C00D0B92F
:208758001C480068006B8047DFF86C80D8E910562A46334603F060FFA0FB052300FB0633E7
:2087780001FB0531C8E91221B9687B6DBA689A1A411A91420CD903F0E1F801212175A2684B
:208798001044E06097F85C0078B187F85D100CE001212175A2681118181A8242E16004D249
:2087B8001046BDE8F04103F065BEBDE8F08100BF300300208C010010387B0020002840D08F
:2087D8002DE9F0418EB01F490AAE002503904FF020080896059507918DF8185001A8012135
:2087F8000D901948EFF3118788F31188047A017280690C9002F004FB14494A680D98016059
:20881800426010604860FFF78FFF0C9846620B960A96204687F3118802F010FBEFF311808C
:2088380088F311880D990A684B681A604A6809684A600D9580F311880C9845620EB0BDE89E
:20885800F041704781C30000A404002030030020F8B5D0E90167054604F024F80446D6F878
:20887800C00098B396F8F81019B9007C0338012831D82846FFF742FDD6F8C000002202230C
:20889800016805463DB12F7C033F022F28BF2B742A606D69F6E73246016052F8C81F21B161
:2088B8000A4649690029FBD1143210600020C6E93000C6E93400C6E93600204604F0EFF8EB
:2088D80006F13000BDE8F84004F037B93868416821F0020141602046BDE8F84004F0DFB8CC
:2088F8002DE9F843DFF880900646D9F8000028B326B30024154612B3DFF870800F466B4646
:2089180004220094414603F065FBC0B90098042815D198F800000024222810D198F8010018
:2089380069280CD1B8F8020090FA90F8B8F1000F04D0B84598BFB8F5807F03D900242046FB
:20895800BDE8F883D9F800006B463146424603F041FB00240028F2D10098404504BFA5F8A3
:2089780000800124EBE700BF6C060020F673002070B58AB002AC204603F0C4FF19481A49A1
:208998001A4A2346FCF7B8F8194D0024A86028B3142002F0A5F8A868164900220023CDE9B5
:2089B800004403F078F9002003F058FD012003262870114DFFF76EFE04467EB1072001212B
:2089D80003F074FE284602F0C1FE0720002103F06DFE284602F0BAFE013EEEE720460AB009
:2089F80070BD00BF0075002000060020E00400202006002074050020803801002DE9F041D5
:208A180086B0DFF8708098F8650078BB012088F86500C8F80480C8F8008003F0D9F816486D
:208A380001AA114690E8F8000520F8C10490134808F11004124900F12403204601F01EFCEE
:208A5800C8F84C4002F08CF80E48D0E9102347F69160101A73F1000031BF4FF0FF300020C0
:208A780047F6906103F0D8FDC8F8580006B0BDE8F08100BF3003002050D30000F0010020BE
:208A980085760000387B002010B504461E4849B138300068B0B1C3681B7B03F00F03022B5D
:208AB800F7D101E0806B68B102B11060C268137B03F00F03022B08D151B101698A8DC96857
:208AD800114415E0002100201CE00120002119E012880169A2F60302012A4A8B8CBF09695E
:208AF800496919231144094A92F8622012FB0311406B02F043FE206003F0C8FF2168B1FB4E
:208B1800F0F10120216010BDFC030020D07A00202DE9F84F07461E4815460E46009300F121
:208B380038094C4624680CB1B442FBD14FF0000A00F1400B44B32069D4F80080B84220D103
:208B5800204600224FF0805302F0DEFF009870B1204600224FF0807302F0D6FF30690D496B
:208B7800086291F8240040F0010081F824004846214602F079FF5846214603F0D7F80AF1D7
:208B9800010A002D4446D5D15046BDE8F88F00BFFC03002098030020F8B5044603F082FE90
:208BB8001A4F05464FF0FF30386204F1B80003F070FF174EB6F85600B6F85410884210D1AC
:208BD800144890F82400397E022918BF002808D0284603F064FF072000F058FC03F062FE3A
:208BF8000546B6F85600B6F85410884206D10A4803F04FFF082002F039FB02E0012084F8FB
:208C1800FC002846BDE8F84003F049BF60020020FC03002098030020F07B00202DE9F843C2
:208C38001E4A5278012A35D1A1B30144002401F6FF7240F6FF7122EA0106B6F5801F2AD88F
:208C58006FF00F0220EA01014FF02008E94602EA10270D46B14218D201F022FFA8B1280CF8
:208C7800002104228DF802708DF800808DF803408DF80100484602F055FA58B102F05EFB28
:208C9800103705F580510028E3D10024B54228BF012400E000242046BDE8F883F005002008
:208CB8002DE9F047DFF87090064699F8000001282AD14EB314463AB399F801000F4610B97F
:208CD800FFF7E8FC00B399F8020008B307200121012503F0EBFC114802F038FD0720002190
:208CF8004FF0000A03F0E2FC99F803800C493046B84588BF5FFA87F8424603F023FFA4F80E
:208D1800008089F802A000E000252846BDE8F08700252580F9E700BF20060020A086010033
:208D38000078002070B50568D5F8F81031B3D5F8582144685668A16B20683268D162022104
:208D580003F0D4FBD5F85801A16B154A40680068C0F8041591FAA1F112683068B1FA81F17B
:208D7800926990470446D5F8F800011B6879022806D105F1D00002F018FD0BE000240CE034
:208D9800D5F8F400D5F8FC200A44401AC5F8FC20C5F8F4000020C5F8F800204670BD00BFB8
:208DB800D401001070B5184B2021EFF3118081F31188174C1548DA6C02609C64154C1A6624
:208DD8001C64154B04689C4210D14268144B22F47F421A44426081764FF40071C160D0F8FC
:208DF8002C1221F04041C0F82C1270BD0B4D0024362CEAD00E2C8EBF42F8245053F82460CC
:208E180042F824600134F3E7C802002008ED00E000060000003A0120FCD3000071BB000052
:208E38000000FA0570B50446B0F90E00227A81B2920702D5227B1F2A0CD8154A6368D26C84
:208E580052F820509D4218BF42F820304A42E281227B0BE00E4B1D6D45F820400D4DDB6C68
:208E780053F82060AE4218BF43F82050102901D30A4902E0042902D3074901440A70217AAF
:208E9800C90718BF01F024FD0020A060002070BDC8020020C562000014ED00E0F0E300E0EF
:208EB8001A481B4AD0F8841000681140194A914211D1C0F30332C0F34061082A0ED0092A27
:208ED80011D00F2A07D1020213D400F08072A9B1A2B1112000E0FF2040B270470A200029E2
:208EF80008BF0C20F8E74FF0FF30002908BF0920F2E70E20002908BF0D20EDE70B20002AB4
:208F180018BF1020002918BF0F20E5E79412005000F0FF0F0010B40B10B517480168890757
:208F380026D417480468A00221D41648006800688047C0F13E000722C1100729B8BFC21066
:208F5800012000EB24718A42D8BF0A460E490968C1F30321891A0F29A8BF0F210129D8BFD2
:208F7800014641F0F000094981F84D00087810BD0249C16010BD00BF10000940FD0000407E
:208F9800B44F0050EC0100100C1300500D620840F8B5054603F086FC0446A87A50B36F7A7E
:208FB800012603F0C9F8697A48B1154A48B21130536806FA00F08343C0435360106006FAB1
:208FD80001F31049002206FA07F02A72AA72C5E90422AA61C5E9002291F8605091F8622068
:208FF8002B4381F8603012B1013A81F86220C0B202F03CF92046BDE8F84003F050BD00BF4E
:2090180008100440D07A00202DE9F041D0E901480546D8F80000416821F00201416020464A
:2090380003F06FFDD4F8CC0002F060F804F1300003F07FFD94F8F80018B904F16C0003F09A
:2090580074FDD5E901750D4E95F83800B04795F83900B04795F83A00B04797F8FB00B04740
:2090780098F80C00FEF75AFF04F11C0003F034F8002084F8FD00BDE8F08100BF39AC00006B
:20909800F8B51A4901220446087A0A7254F8485F01F0D4FEA54208BFF8BD15484FF0FF3158
:2090B800FDF71AFF2068134EA0421AD0076881680569026843681A60426803685A602A6820
:2090D8006B681A606A682B685A60096811B1C06800B18847B06829461C2243689847384664
:2090F800E2E70348BDE8F84000F032BDA40400202C7E0020F001002070B51A491A4A0446AF
:2091180002F0DCFA0146E061012051B3002184F8200061626069B0F1FF3F1ADD60690121B8
:20913800124A01FA00F0A0616069157A1172116A01EBC000E0642020EFF3118680F31188C4
:20915800204603F0C7F986F31188284601F076FE06E00648A16121462C30E06403F0DAF8F7
:20917800002070BD85BF0000F9AB0000A4040020F8B5054616484BF2F521174E006800FB69
:2091980001F714483C0A006800F44020B0F5802F10D11248006880030CD4F0680068804780
:2091B80001F07AFD3168C9688847C010390B484304EBE0342DB90A48006820F07F40204421
:2091D80044083069416C2046BDE8F840084700BF08400C40B44F0050E00100108C130050CD
:2091F80010200940F8B5164F1648BD6C03F07EFA0446154801680668214011F0200318BF00
:20921800002D0AD0284600223D6502F07DFC0F484FF48041283003F08EFC04EA060010F46A
:20923800602008BFF8BD0A4991F8612042EA504081F8610007480021BDE8F84003F07BBCB0
:20925800FC03002020000E000C10044098030020D07A0020787C002000B17047B0B51A4CDD
:20927800606D58B340F2000CEFF311808CF311882020EFF3118180F31188D4E91850616D82
:20929800B1FA81F1C1F11F0100EBC101A94215D9086802680A6051600A688A4204D1416A8E
:2092B800626D22EA0101616500F0FAF9616D29B1606EB1FA81F1C1F11F01E5E7002084F843
:2092D8005000BDE8B0407047F00100207CB504460698362903DB00220092174A0CE0164616
:2092F800124A1D46124BE181126E52F821209A4207D0002200920F4A0B4602F0A1F8012010
:209318007CBD084601F0C2FA286969682073C4E90016287AA060297D11B140F00200A0600D
:209338002046FFF77FFD00207CBD00BFC802002071BB000091CF0000A3D00000F0B5836AAA
:209358005C1E144218BF1A460C4018BF1C1B14EB010C01D30020F0BD571E00F120031C46FC
:209378001B68002BF6D017EA030618BF961B596806EB0C05A942F2D34A1BF01856B1A942FD
:209398005E6012D0196840F80C1000EB0C014A601960F0BDA94201D1196805E0196840F89C
:2093B8000C1000EB0C014A602160F0BD10B596B0184C2020EFF3118180F31188E06810B969
:2093D80002F028FBFAE7E068216A134A0223B0FA80F0C0F11F00137501EBC002E26151F87E
:2093F800300000212174A06140F2000CEFF311808CF311882020EFF3118180F3118803F0F2
:2094180029F9A16968461C301C3102F0F5FB16B010BD00BFA4040020C8020020F0B540F600
:20943800FF7C10F8013B0024082CFAD00646DF0716F8015B0DD1467806F00F070337122F74
:209458000DD190F90220D7B2B2F1FF3F09DD03300DE001F8015B304601345B08E4E702309B
:2094780006E0C27807F07F07043047EAC2171237320942EA0515654508BFF0BDED43002FB2
:20949800EAD04A5D013F0A700131F8E770B5054603F008FA174E044696F82400A84386F859
:2094B8002400306820B1B83003F025FB054600E00025706818B1B83003F01DFB054396F852
:2094D800240030B92DB9306A18B190F82810890704D42046BDE8704003F0E1BA456A204698
:2094F80003F0DDFA306A022100220024A847346270BD00BF98030020B0B5174C6068216842
:2095180001EA000521EA0002680622601DD51348006800F44000B0F5000F03D11048006815
:2095380001F070FE042003F0C9F9811E022905D201F088FD022001F07FFE03E0012808BF61
:2095580001F080FD202002F071F8280648BF00F06FFEA560B0BD00BF90220840B44F0050DA
:20957800580600202DE9F0414FF02008EFF3118188F311880122144F11490D7A0A721149E2
:2095980091F8506081F850200021104A3C7D3975396D1268D2B251F82210886040F2000C6A
:2095B800EFF311808CF31188D1E900018847EFF3118088F311883C7546EA0520BDE8F081DB
:2095D800A4040020F0010020C802002004ED00E089B36FF0C0020B0E02EA8112202B05D0CA
:2095F800212B05D0A02B05D1302118E0102116E0202114E0B1F1807F01D240210FE0102BED
:2096180005D0112B05D0402B05D1702107E0502105E0602103E09021502B08BF80211143F1
:2096380041F00F0104C8531C18BF8A42FAD14FF0FF3140F8041C704770B50468616F59B33D
:20965800D4F8582145685668E96B28683268D162012102F04BFFD4F85801E96B0F4A4068B9
:209678000068C0F8041591FAA1F112683068B1FA81F192699047616F091AE07C20B104F166
:209698004C0001F0FBFC05E0206FA26F401A20675018A0670020606770BD00BFD4010010F1
:2096B8002DE9F047164C002100F12C03154D4FF0010A80F8281084F850100ECBD4E9168935
:2096D800276E2E7DC4E91703A26585F814A0016340F2000CEFF311818CF31188D0E9053215
:2096F800C169104698472020EFF3118180F311882E7584F850A0C4E916892766BDE8F0872F
:20971800F0010020C8020020B0B5134D0124E86B01680120884701281BD028683C2101227C
:2097380000230024C5680D48A84790B101F06EFC0B480C490068D1E900238860C01A0A4BB9
:20975800A2EB92025843B2EB104F98BF020C01240A602046B0BD00BFA401001000A00C4012
:2097780030200940E005002040420F00B0B51448144D807B95F83911084306D003F092F810
:2097980095F83B1121B103F08AF900242046B0BD012485F83B4103F082F9022001F0E6FE16
:2097B8000D20FEF7B3FA084801680029EED1074940220A604A60002185F83A11C461E4E782
:2097D8003CD300000000002004800C4038500C40F0B5DDF814C02CF0030404F10C0505FB27
:2097F80003F4944201D9012220E00CF003024FF0000E0F460E460024ACEB02020C327BB167
:20981800BE1887F804E0A7F806C0013B3E607E7906F0F0067E7104FB05162F440134EEE74F
:209838000022016031604260014801601046F0BD7C7E002079B36FF0C0020B0E02EA8112AE
:20985800202B05D0212B05D0A02B05D1302118E0102116E0202114E0B1F1807F01D2402194
:209878000FE0102B05D0112B05D0402B05D1702107E0502105E0602103E09021502B08BF5A
:209898008021114341F00F0104C8531C18BF8A42FAD140F8041C70471CB51548017E0229EA
:2098B80004D11920BDE81C4002F010BF017E01291DD0007E04281AD002F0F4FF044601A8BE
:2098D800FEF77CFC28B101990A4831B102F0A2FD0AE0084803F0DDF806E003F0DAF80648D0
:2098F8000421283003F027F9204603F0D8F81CBD60020020347C002098030020B0B54FF00D
:20991800FF3002F0EBFE104D04461049E86988420DD10F480F49002202F016FE0220287695
:2099380001F03CFE18B9FEF76BFEFBF731FB0A48044208BFB0BD09484FF000512830BDE8ED
:20995800B04003F0F8B800BF6002002039400000FC030020296A00000200004098030020F3
:209978002DE9FF41144DD5E900673879FEF7CEF902F098FF04463078B0B90DF10408404612
:2099980002F09CFEB87979790C4A434601950290301D01F063F938684FF0FF31C1620849DC
:2099B8008160012131704160204603F078F8024804B0BDE8F08100BFBCD3000047CA00000E
:2099D80000180020B0B58AB010484179D9B901250F492422457101AC204603F0B3F84FF486
:2099F80000708DF824500D4D0D49224600230690084805900020049007480190284602F03C
:209A18000FF9084845630AB0B0BD00BFF001002024D20000F070002088D20000987B002034
:209A3800FFCA0000A404002021F003010844009940F8083C40F80C2C40F8041C029940F86C
:209A5800101C019940F8141C0F4940F8181C4FF0FF3140F81C1C40E9091140E90B1140E96C
:209A7800131140E9111140E90F1140E90D1140F8781DC0E90911C0E90111C0E90311C0E91E
:209A98000511C0E907117047D5C400002DE9F041D0F8A8501F4616468846044625B120466B
:209AB800414632463B46A847D4E928010F40064056EA070008BFBDE8F081204641468022F1
:209AD80000F03AFEC4E92C6740B1D4F8A8108160D0E90812B143BA43C0E908120020C4F84D
:209AF800A80004F15000BDE8F04103F020B870472DE9F047054615488A464FF0FF394FF08E
:209B1800000804686768BC421DD026462468307D0028F8D06DB1F06850450AD1306918B122
:209B380030625044F06001E086F81480D6E906108847307D0028E6D0F068A0EB0A004845FB
:209B580038BF8146DFE74846BDE8F08730030020B0B5164A0121147A11722022EFF31185BA
:209B780082F31188024652F8143F93420FD010680368136001745A60C16809B100220A751D
:209B98008068294601F042FC85F3118808E0017CC90706BF418A01310121418285F3118829
:209BB8002046BDE8B04001F049B900BFA404002070B5144E2021306EEFF3118581F311882D
:209BD800716D726EB1FA81F1C1F11F0102EBC101814210D90C480121047A01720B4802F0B9
:209BF8000BFB002086F85000204685F31188BDE8704001F023B9002086F8500085F31188C1
:209C180070BD00BFF0010020A4040020DD9F00000F280ED840F20252DFE800F0141012104B
:209C3800080D081010100D100810100D4FF2011208E01E2802D141F2011203E0002201E0EC
:209C58004FF4817231B1FF2907D14FF203101040C03008E042F0300005E0C8070CBF42F045
:209C7800200042F01000000400F2037070477047B0B5144DA969CC6B20640120A063616C0F
:209C980031B1D1E900238868096951649847F6E72046FFF7F5F9206B48B10121287A2972ED
:209CB8000949CA692260CC6101F0C8F803E004F11000FFF74DFFE0684FF0FF31BDE8B04031
:209CD800FDF716BFA4040020F0010020B0B5124949684A68D2E90115D46860B155EA040046
:209CF80005D00E480022C2610D4A5032026021B1FEF785FC01E001B1884755EA040008BFED
:209D1800B0BD02F06BFC05B1A84704B1A0470448BDE8B04002F090B9600200200010044032
:209D380001000706B0B588B002F0F8FB02AC204602F088FB0120019001A9204602F080FCC2
:209D580005462046012102F01FFE054320464FF4806102F0BCFE284300D0FEE7064A07A86C
:209D780002A90023FDF70AFA00B1FEE702F094FD002008B0B0BD00BFB5830000100258BF87
:209D9800704770B502F0B8FD054610F8084FC4B1211891F902004978CA09002102F09EFA05
:209DB8000A4EB07838B1F07884420AD2084802F020FEF47005E0064802F01BFE0120F47091
:209DD800B070BDE8704002F0FFBB00BF200600200078002000B5EFF3038212F0FF0F0DD0A4
:209DF8006A46A2F1200282F309886FF0020E10604FF08071D1610B49916170475DF804EB5E
:209E1800694681F3098880F308884FF00200EFF3148180F314880448016821F04041016004
:209E3800704700BF149E000034EF00E010B502F039FD0F4C217E022902D0217E042904D15A
:209E58000E490C6802F02BFE10E002F028FE09480068006B8047084AA0FB020301FB0231F0
:209E780010F1905041F17A00E16C0C18204610BD600200208C01001000093D0004300440BC
:209E9800F8B5124F1C460B460146114E15460022788801306FF39F3078803046009401F071
:209EB80027F825B1B01D2946224602F04BFE3978A01D29B181B20648BDE8F840FDF736BA2C
:209ED80081B20348BDE8F84000F0A4B8A4050020F0720020B0B501F001FB0E4C0E4D14203D
:209EF800611CA8470A202146A84709202146A8470A490820A847B92000F0B4F8084C142078
:209F1800A0470A20A0470920A04708202146BDE8B040084700640020B1CA0000022000206D
:209F380039AC000010B504281CD10F4802F0E3FDC0B102F0ABFD04460B4802F0DAFD604309
:209F580080084A280ED8084802F0A3FD052001F00DFB0648012180F8251005480421283022
:209F780002F0E9FD002010BD347C00206002002098030020F0B52022EFF3118182F311888E
:209F980090F8282012B181F31188F0BD0C4A012492F8503082F85040466B456A7768066028
:209FB8004760386080F82840546D2C435465706081F3118803B1F0BDBDE8F040FFF7F8BDC3
:209FD800F0010020B0B5124CD4E91851606DB0FA80F0C0F11F0001EBC001086802680A60C7
:209FF80051600A688A4204D1416A626D22EA01016165FFF755FB606D40B1616EB0FA80F04A
:20A01800C0F11F0001EBC001A942E6D8B0BD00BFF0010020FEB5124F06463868E8B1E6B195
:20A0380000240D46D1B146F622118DF80B5001940422ADF80810290A8DF80A1002A901AB1F
:20A0580002F0F9FB50B9386801AB31462A4602F0F2FBB0FA80F0440900E000242046FEBD5B
:20A078006C060020B0B504461420002102F01EFB07250A20002102F019FB681C0FD024FA29
:20A0980005F000F00101092002F010FB0A20012102F00CFB082002F005FD013DE9E71420F8
:20A0B800012102F003FB4FF42F70BDE8B04002F0F9BCB0B5836A5C1E14EA020518BF5D1B38
:20A0D80000F120031C46204624680CB18C42FAD32A44C1E9004201603CB15518A54204D1D7
:20A0F800D4E900542244C1E90052984207D043681C188C4203D109681A4442600160B0BD64
:20A1180010B50E480078012816D10D4801F0EEFA0C4C204601F034FD0B48046101F090FC41
:20A1380040F2000CEFF311808CF3118802F0DEFCBDE81040FFF73AB902F0A8FBF0010020EE
:20A15800FDA50000407D0020C80200200E480F4A0F4B0168825800680340D0B20D4A7F2807
:20A1780088BF0020934207D1090F022906D307D0032901D1153004E0FF2002E00A2000E08E
:20A198000B3040B2704700BF1813005088FDFFFF00F0FF0F0010B40B80B50D4801420CD090
:20A1B800012002F08BFB012808D10B4800210C4AC1610A49CA613C31016080BD02F066FC23
:20A1D8003221B1FBF0F10348BDE8804002F022B904000020347C0020001004406002002040
:20A1F800394000007FB5D0E90154204601F079FD2068416821F002014160416921F00F010E
:20A2180041610321016202A802F040FA074995F8F93095F8FA202068D5E9396509680C68B1
:20A238000399CDE90065A0477FBD00BFC4010010B0B502F037FB044602F013FC0028FBD0D1
:20A25800032000F0F9FF0B48002180F83811204602F025FC0848816802200D468847044666
:20A27800102001F0E3F924B103202946BDE8B0400847B0BD000000203CD30000F8B592E8BB
:20A298007800771C08BF0526002780F828700127C0E9043100F11801B740F0C11169C0E997
:20A2B8000B1108494A6E02EBC602426301F148024060006000F10801104602F02BF8002046
:20A2D800F8BD00BFF00100202DE9F0414768044602F0E8FA05464FF00008D7F8C8609EB1F5
:20A2F80071697068C6F81480C7F8C81001F008FE284602F0D4FBD7F8BC2020463146904726
:20A3180002F0D0FA0546E8E72846BDE8F04102F0C6BB7047F8B50C4890F8281001B18FBD22
:20A33800012180F8281002F047FB00200849019006480290081A0390064801A900F042FD41
:20A35800054988608FBD00BFC8020020201B0020205B0020147D0020F00100200E4850223A
:20A37800016841F4087121F0020101600B48032140F8041C41F230018160012101608260C0
:20A398004FF4CA62016082604FF48652016082600160034801607047000004605860044071
:20A3B80000410440B0B502F07DFA044602F059FB0C48002180F83811032000F03DFF2046B7
:20A3D80002F06DFB0848816802200D4688470446102001F02BF924B103202946BDE8B04003
:20A3F8000847B0BD000000203CD300002DE9FC479846AAB115460E46074600244FF0FF3A30
:20A418000DF1040931192A1B38464B46CDF800A0FAF7ACFE01990C4428B96D1AF2D102E084
:20A4380000246FF00900B8F1000F18BFC8F80040BDE8FC87B0B52021EFF3118481F3118897
:20A4580001250B49CA6A0D604069030CB0F5802F38BF0423981848610648232100680268E2
:20A47800002090470448056084F31188B0BD00BF04200940840100108002244310B50446E6
:20A498000868082898BF0820A062431ED1E901211340E26103D0C31A1A44C91AE261B1FBD0
:20A4B800F0F1484304F110016062054801F032FFE069616A002202602062416010BD00BF9A
:20A4D800440600202DE9F843DFF838900546984617460E46484601F01BFA0446284631466D
:20A4F8003A46FEF72BFF07464846214602F0B8F92FB9054A40462B46009600F0A1FF3846EE
:20A51800BDE8F883687D002004CF0000B0B5104C00252574E06810B901F07CFAFAE7E0680B
:20A53800216AB0FA80F0C0F11F0001EBC000E169884209D9E061A169026801F11C0002F136
:20A558001C01A26101F058FB207C0028E1D1B0BDA404002010B5FEF725FC01F01DFEFFF7F7
:20A57800D9FE0B480B490C4C016094F8440010B9012084F84400FEF741FA01F029FB01F0DC
:20A5980063FBFFF71FFA00F00DFF0120207010BD847E0020387B0020F001002070B50D463E
:20A5B800044602F07FF9D4E901128A4204D102F076FA4FF0FF3070BDE36822680133B3FBAA
:20A5D800F1F606FB11315554E160A168626901319142A16088BF0A46626102F060FAA068C7
:20A5F80070BD704710B50C48032290F85010012180F8501009480275094A137A11720069AB
:20A6180040B1084C204602F0A7F92046BDE8104002F0A8B910BD00BFF0010020C8020020B0
:20A63800A4040020FBA50000F8B50D480D4D0E4F0126046804608CB1B4FA84F0696880F04A
:20A658001F0006FA00F251F8201094430029F2D057F820205203EED58847ECE7F8BD00BFD9
:20A67800E020024064D30000001008400F49C3070A68496D01D1002106E001F0040102F0E6
:20A698000103C91818BF0121830744BF02F0020341EA5301400744BF02F0040041EA9001C5
:20A6B8000220002918BF0120704700BF402108400F49C3070A68496D01D1012106E001F00B
:20A6D800040102F00103C91818BF0121830744BF02F0020301EA5301400744BF02F004008A
:20A6F80001EA90010220002918BF0120704700BF40210840B0B511F1800201D1002112E096
:20A718000C4A002303EB830544577F2C09D00544D5F801501540954203D08C4201DC0133CE
:20A73800F0E72BB1591E01EB81010844D0F801201046B0BDFFFF3F00F0B50F4C00234FF0D2
:20A75800580C8EB20027B3F5307F0FD0E1180D8EB54208D139B10D69854204D14AB191F8FC
:20A778003350154203D158330137ECE700210846F0BD07FB0C41FAE7306A002070B5044608
:20A7980005680D48C6680D480068006B8047811B080B05EB1132B5EB113F40F6C41188BF9E
:20A7B80050088842206004D880084A2802D84FF49671216070BD00BF600200208C01001059
:20A7D80070B502F06FF804460B48017821B12046BDE8704002F063B90121017007480578D3
:20A7F8000748002DF3D0064656F80C1B89688847013D3046F5E700BF72060020A6D2000022
:20A81800DCD20000012919D010B5C08901B280EAE130A0EBE13084B2204600F037F808487C
:20A83800084AC16C51F82430934218BF41F824200021006D40F82410BDE81040704700BF56
:20A85800C802002071BB0000F8B50D4E04460D4F306E50F82100B84201D00020F8BD0A4823
:20A878000D4624300090204601F05CFB0028F4D0306E50F82500C01B18BF2046F8BD00BF58
:20A89800C802002071BB0000F001002010280FD310380E4A0123410900F01F0002EB8101D3
:20A8B80003FA00F0D1F8F020C1F87001104070470F281CBF0020704704480168026822F06F
:20A8D8000202026001F00200704700BF10E000E010280FD310380E4A0123410900F01F008A
:20A8F80002EB810103FA00F0D1F8F020C1F8F000104070470F281CBF0020704704480168BD
:20A91800026842F00202026001F00200704700BF10E000E000B1704780B52021EFF3118093
