:2000000000400120F90900003B1200002B1200003912000039120000391200000000000012
:20002000000000000000000000000000391200003912000000000000391200003912000094
:20004000391200003912000039120000391200003912000039120000391200003912000048
:20006000391200003912000039120000391200003912000039120000391200003912000028
:20008000391200003912000039120000391200003912000039120000391200003912000008
:2000A0003912000039120000391200003912000039120000391200003912000039120000E8
:1800C00039120000391200003912000039120000391200003912000066
:2000D8002DE9F04F9BB0B1484FF47051006801EA8020AF49086000F09DFB002800F0AC804C
:2000F80003AC0EAD4FF0FC0A4FF000085FFA88F008212246000300F027FD204600F0F4FF30
:2001180060B9204600F0DEFF002840F0938008F101085FFA88F02C28E8D38BE04FFA88F7FB
:20013800002F00F187803E0334212A46304600F00BFD9DF84800FE2879D19DF844000328BB
:2001580075D19DF84500012871D19DF84900FC286DD01498DDF864B05844B0F5801F66D80A
:2001780058462C2122468DF80BA000F0EDFC0999584600F04BFE8146013058D00A98484543
:2001980055D3099901EB0902904250D858464A4600F096FB019046F0100001210DF10B02D9
:2001B80000F0DAFB0198002841D17948099B0022016800200090C9F3473000F0EBF805994B
:2001D800884222D1FE2001214FEA59368DF80B0078030DF10B0711303A4600F0BDFBF0B21C
:2001F80011213A46012300F0F3FD9DF81E00072815D8012101FA00F010F08B0F0FD000F0EC
:20021800F9FE0A9800F0F8FF09E00DF10B070BF1110001218DF80BA03A4600F09DFB0BF1EA
:20023800100001213A468DF80BA000F095FB08F101085BE700F0DEFE4FF000080EAC01250D
:200258004FF0FE0A0DF10C0900264FF0000B30462146082200F05AFF204600F033FF88B1AB
:20027800304621462C2200F051FF9DF84A00072808D805FA00F010F08A0F03D0149B581C8F
:20029800022807D20BF1010B06F50056BBF12C0FDDD135E0B3F5B02FF4D81598B042F1D38A
:2002B800F1188842EED89DF844100329EAD19DF845100129E6D19DF84910FE291DD0FF29C8
:2002D800E0D1334800228DF80CA0CDF8008001685FFA8BF000F05EF8074610984946874272
:2002F8001CBFFC208DF80C00012206F1110000F051FD10988742C5D1159800F07DFFC1E72D
:2003180000F088FAE0B30EAA0020342100F01CFC9DF84900FE2833D11499199D4819B0F51A
:20033800801F2DD8284600F071FD0446013027D01598A04224D314990A19904220D8284635
:20035800224600F0BDFAC8B91148149B0022016800200090C4F3473000F01CF8109988420D
:200378000CD1600BFE2101238DF80C10C0B203AA112100F02DFD159800F03EFF00F03AFECC
:2003980000F0E8FC00201BB0BDE8F08F30240340000100202DE9F04F8BB08246581C0228B4
:2003B80003D200200BB0BDE8F08F14981D4616460C46B3F5801F01D90028F2D1B5F5B02FFF
:2003D80001D90028EDD038B14E4A504600214FF4807300F04FFE06E00AFB046149484FF477
:2003F800807200F0DFFE681E01234FF0FF38B0FBF4F101FB1400013082B2C5B2100A002D43
:2004180018BF03EB1220029001EB0A0006F580713C4E08BF4FF4807503940191C0B251469E
:20043800069508900898CDB2854268D8029A4FF0FF3018BF220A079150FA82F009920A90B5
:20045800019805FB040000240590481C049009985FFA84FBC0B283454ED20898A946574637
:20047800854206984FF4807508BF05460A9858454FF4807018BF0546079880EA0A004FF0CF
:20049800000A2043000608BF4FF00C0A1FFA8AF085420AD9305C80EA0800C0B200F048FED2
:2004B80080EA18280AF1010AF0E7149858B10A98584513D10498002132464FF48073C0B2E8
:2004D80000F0D8FD07E005984FF4807200EB0B21304600F067FEBA464D460BE04FF48070F3
:2004F80032464FF480734D4600EB0B21484600F0C1FDBA460134AAE7DDE9034192E76FEAAE
:2005180008004FE7000000202DE9F84315460C46804600F0A5FA2C4800212D4F01602B482D
:20053800814600683868816927208847294E2A49306B08403063B06F20F48070B06738689A
:20055800016B4FF4806088473868016B4FF4816088473868016B4FF4C06088471F4801215F
:2005780001601F48C6F8804131600168890704D4691C08BF4FF04045C560D9F80000F0695B
:200598008007FCD5072000F0A1FB0228FAD1B8F1000F13D1134C386A81682046884704285C
:2005B800F9D0012804D1386A0321426820469047D6F8180220F00300C6F818023868806B51
:2005D800BDE8F843004700BF0C4009402C200940B80100100C200840FFFFFEFE282008600C
:2005F800100009400040034070B52548066800F02DFD24480025244C0560206C806C804748
:200618002248006838B122480068B6F1FF3018BF304600F051F81F4840F2391205601E482A
:20063800016862F31B4101601C48016801F44051B1F5805F06D10168194A114001F5003233
:2006580002600160174D0126EE612068016A142088471548016841F4E021016013482E60A9
:20067800006800F44000B0F5000F03D1206C416C0F4888470F4801680029FCD170BD00BF3D
:200698001C13005084046042B001001080012843800520438C2108404820034028000940F3
:2006B800EFFFFCFC0000244300200940B44F0050BD3786000C006842F8B505462248234E16
:2006D8004168890705D40168F02242EA114186F84D101F494FF001221F4F0A601D49098883
:2006F80039680968846820468847A00105D4E00103D5307840F00200307038682146426851
:200718002846904700F08EFC1448154A0068C0F305311170C1054FF0130158BF232140239E
:200738007354382101EA901000F56050A2F85C003868816820468847022000F09FFB0948A0
:2007580001210160F8BD00BFAC4F00500962084004A40C4000A00C40F00100100C1400503B
:200778000EB00C40940460422DE9FF41234D80466868416902208847022000F0C9FA012828
:20079800FAD16868C1694FF4807088471C48012101601C4801688907FCD52868082609217D
:2007B8000A224FF0FF33476C4FF080400096B8472868C16B1420884713480121134F00227D
:2007D800002301701249386820F002003860286904684FF08040CDE90086A047386840F0D9
:2007F8000200386003AC2869214602694FF0804090470028F7D1BDE8FF8100BFB4010010C6
:2008180028200860282008401420024004000040006CDC02BFB52548FFF7A6FF244C01256A
:20083800AB20012125708DF80900002020700DF1090000F027FA4FF4FA702570019001985C
:20085800411E00280191FAD100F0F6F91948042103900020ADF80A00207003A800F012FA9E
:2008780010B10120207007E00DF10A00022100F0BDF90121217010B1002004B0B0BD0E482B
:200898009DF80A109DF80B2003683BB10379994202D143799A4205D00830F5E7074900205F
:2008B8000860EAE7054908600120E6E700093D001420024090FFFF003C1200000401002086
:2008D8002DE9F043C1B0814690070DD188180D461446411E1F480068B1FBF0F1B2FBF0F66F
:2008F8008E4298BF2C2904D9FF2040B241B0BDE8F083B5FBF0F101FB1050002818BF01314F
:20091800C8B250FA86F7F0B2874205D900F026FB0136FF28F7D1E7E74FF480760DF10408ED
:20093800B5B1B0B242468542484638BF2E46B7B2394600F009F90028D6D0204641463A467A
:2009580000F028FA0028CFD1ED1B3C44B944E7E70020CAE7000100202DE9F84FD2B30D462B
:200978004FF00009B1B31D4914460646E8464FF0010BB5FA85F047096DB38A4600F05CF985
:2009980000F08CFB38B302208DF803608DF80000300A8DF80200300C8DF80100F0B28AF8A7
:2009B8000090C0F580774046BD4238BF2F46042100F068F958B92046394600F063F98AF8B8
:2009D80000B038B95146ED1B3C443E44D1E701208AF8000000273846BDE8F88F142002401B
:2009F80082B0194C6068416904208847042000F08FF90128FAD16068C1694FF4A06088474F
:200A1800124801210160124801688907FCD52068C16B072088470F48012101700E49019140
:200A380001994A1E00290192FAD1002101700B4801900198411E00280191FAD1FFF7D4FD5B
:200A580000F0A6BAFEE700BFB401001028200860282008400720024080841E0020A1070032
:200A780010B517480168890726D417480468A00221D41648006800688047C0F13E000722D8
:200A9800C1100729B8BFC210012000EB24718A42D8BF0A460E490968C1F30321891A0F2925
:200AB800A8BF0F210129D8BF014641F0F000094981F84D00087810BD0249C16010BD00BF01
:200AD80010000940FD000040B44F0050EC0100100C1300500D620840F0B540F6FF7C10F894
:200AF800013B0024082CFAD00646DF0716F8015B0DD1467806F00F070337122F0DD190F95A
:200B18000220D7B2B2F1FF3F09DD03300DE001F8015B304601345B08E4E7023006E0C278AB
:200B380007F07F07043047EAC2171237320942EA0515654508BFF0BDED43002FEAD04A5D3A
:200B5800013F0A700131F8E7F8B5D2B100260C4611B31546074600F06FF803208DF803702C
:200B780004218DF80000380A8DF80200380C0B4F8DF8010068463E7000F084F818B1012014
:200B98003870002608E02846214600F02FF8B0FA80F00121460939703046F8BD14200240C6
:200BB8000E480F4A0F4B0168825800680340D0B20D4A7F2888BF0020934207D1090F02294F
:200BD80006D307D0032901D1153004E0FF2002E00A2000E00B3040B2704700BF18130050FD
:200BF80088FDFFFF00F0FF0F0010B40BF8B5B0B10C46A1B10E4F05466E469CB13868002171
:200C180042684FF08040904738683146C2684FF0804090470098013C05F8010BEDE74FF034
:200C3800FF30F8BD03480168C906FCD40020F8BDC40100100C0000402DE9FC41104E052099
:200C58004FF000088DF8070086F8008000F09CFA01270DF107040DF10605377020460121BC
:200C780086F8008000F00EF828460121FFF7BEFF37709DF80600C007F0D1BDE8FC8100BF7A
:200C980014200240F8B5A0B10C4691B10D4F05466E468CB1386815F8011B42684FF080402A
:200CB800904738683146C2684FF080409047013CEFE74FF0FF30F8BD03480168C906FCD4A5
:200CD8000020F8BDC40100100C0000400F49C3070A68496D01D1002106E001F0040102F0FB
:200CF8000103C91818BF0121830744BF02F0020341EA5301400744BF02F0040041EA9001FF
:200D18000220002918BF0120704700BF402108400F49C3070A68496D01D1012106E001F044
:200D3800040102F00103C91818BF0121830744BF02F0020301EA5301400744BF02F00400C3
:200D580001EA90010220002918BF0120704700BF4021084000F055FA0C4C2068016A4FF4D0
:200D7800807088472068016A4FF4A0608847084D01262E60206881690720884700200021E4
:200D98004FF0FF322E60FFF7BFFBFEE7B801001028200860F8B514460D46064600F0A6F8FB
:200DB800074628463146224600F0D2F904462FB1054801210068426804489047002C18BFF5
:200DD800FF242046F8BD00BFD801001000400340F8B51C46154601EB403600F087F807460A
:200DF80028463146224600F0B3F904462FB1054801210068426804489047002C18BFFF24FE
:200E18002046F8BDD801001000400340FEB50C4605462C276E4678190C213246FFF794FE1E
:200E380058B19DF8000001280AD001994FF0FF3011B10F44A742EED3FEBD4FF0FF30FEBD4E
:200E58000298FEBD10F1240FD8BF6FF023001B28A8BF1B2003210F222430A1EB101122EA91
:200E7800000022FA01F14FF6FF7222FA00F040EA014001490860704718A00C40B0B50A49FA
:200E98000A4A0B4B0C684D68AC42FCD1844208BFB0BD155C145DAC424FF0FF3538BF012552
:200EB8002C441C5D0C60EDE700600C40741200007812000080B50948016821F002010160D1
:200ED80007480068016A4FF480708847054801210160054801688907FCD580BD040000406E
:200EF800B8010010282008602820084070B50B4E0B4C3068816820468847054600060AD01B
:200F18003068002142682046904730688168204688470028F9D1E8B270BD00BFD801001002
:200F38000040034070B50948094C84420BD0094D094EB54207D0F5E8020110F8012B54F8CF
:200F580022209047F5E700BF00BF70BD881200007C12000098120000A8120000B0B504469E
:200F7800FFF7C4FF0546600300F000F904462DB1054801210068426804489047E0B2002883
:200F980018BFFF20B0BD00BFD8010010004003400A4880F308880A48016841F47001016094
:200FB80000BF00BF00F038F908B1FFF7BBFF0020FFF786F8012000F031F900BF0040012022
:200FD80088ED00E007480068C00608D406480749006808400649884204BF01207047002029
:200FF800704700BFB04F00505013005000C4FF3F00C0071C7CB5B920084C002501210126B0
:201018008DF807000DF107002570FFF73BFE2670FFF750FF024805607CBD00BF142002406B
:201038000401002080B5FFF7CDFF60B10648006881034FEA00414FF0000058BF0816BDE89E
:201058008040FFF7FFBE80BDB44F005080B506480649006808400649884204D1FFF7A0FD72
:201078001328C8BF80BDFEE71813005000F0FF0F0010B40B70B51C46154601EB403600F0F8
:20109800ADF8210405D016F8011B013C05F8011BF7E708B900F0B9F8002070BDBCB50620F5
:2010B800074C012101258DF80700002020700DF10700FFF7E7FDB0FA80F025704009BCBDF1
:2010D80014200240B0B5074907231A465BB2002B05D4D3B2CC5CC55C531EA542F5D0D0B2C5
:2010F800C009B0BD6C120000B0B5074907231A465BB2002B05D4D3B2CC5CC55C531EA542AE
:20111800F5D0D0B2C009B0BD6412000070B514460D46064600F062F82CB116F8011B013C18
:2011380005F8011BF8E708B900F06FF8002070BD10B5064A08210B0608BF10BD82EA500398
:20115800C40708BF430801391846F4E72083B8ED80B5044B1B689B699847034900220A601D
:2011780080BD00BFA80100108404604280B50449096849698847034900220A6080BD00BF30
:20119800A801001084046042BCB5054D01AC2868214602694FF0804090470028F7D1BCBD43
:2011B800C401001010B530B1431E01391AB18C5C9C54013AFAE710BD10B500239A4208BFEA
:2011D80010BDCC5CC4540133F8E7D0F80300002218B101F8012B0138FAE7704780B500F006
:2011F80010F8002818BF012080BD0B46D0F80320C11D184600F00EB8016881F3088841682E
:201218008F46EFF3108072B67047EFF3108062B67047FEE7FFF7D0BF0120704700BFFEE769
:04123800FEE7FEE7E8
:20123C0000002000C215000000001000C214000000000800EF12000000000400EF110000A8
:20125C0000000000000000004F4144204E564D314343313378325231010200030200010339
:20127C00F10A000003120000E311000002000000040100000001000000FFF00088120000BD
:0C129C000000002090120000040100205F
:020000040005F5
:207FA80000008001100080FFFDFF5800FFFFBBF3FFFFFFFFFFFFFFFFFFFFFFFFFFFFFFFFB9
:207FC800FFFFFFFFFFFFFFFFFFFFFFFFFFFFFFFFFFFFFF00FFFFFFFF00FFFFFF00C5C5FF2A
:187FE800000000FF00000000FFFFFFFFFFFFFFFFFFFFFFFFFFFFFFFF92
:00000001FF
