:06000000020329020403C3
:03000B0002040BE1
:03001300020413D1
:03001B000200934D
:03002300020423B1
:03002B0002042BA1
:0300330002043391
:03003B0002043B81
:0300430002044371
:03004B0002044B61
:0300530002045351
:03005B0002045B41
:0300630002046331
:03006B0002046B21
:0300730002047311
:03007B0002047B01
:0300830002009CDC
:03008B0002048BE1
:1200930030D1030273EC02041B30D103027A2C020483A0
:0570000075AE02002244
:0570060075AE0100223F
:030390000200A5C3
:0500A50012019480FE31
:20700B00AF8290DF0274FFF090DF037420F090DF047441F090DF06E4F090DF017491F09014
:20702B00DF0074D3F090DF0C74F8F090DF0D7420F090DF0E7403F090DF0F74A3F090DF1070
:20704B0074B9F090DF117411F090DF127407F090DF137430F090DF1403F090DF1514F09083
:20706B00DF16746CF090DF177403F090DF187440F090DF197491F090DF1A7456F090DF1BDE
:20708B007410F090DF1C74E9F090DF1D742AF090DF1EE4F090DF1F741FF090DF237488F08F
:2070AB0090DF247431F090DF25740BF090DF2E74C0F0BF001F90DF07740CF090DF08E4F0CA
:1C70CB0090DF097421F090DF0A74E3F090DF0B748DF080047582012275820022CA
:2000AA007E407F831EBEFF011FEE4F70F775C689E5BE30E6FB75C680E5BE30E6FB43BE04EB
:0100CA002213
:2070E700AE82AF8375BCFF75BCFF7800E2FC08E2FD8C028D031CBCFF011DEA4B600E8E82C4
:1F7107008F83E0F5BDA3AE82AF8380E5AFBD7E00ACBC7D00EC4206ED42078E828F8322DE
:2000CB007811E4F278127428F290F03F12722B7E3F7FF08FD575D43F7E477FF08FD375D23B
:2000EB004722E58275F008A4243FFE74F035F0FF8E828F837802E208E2F08E828F83A37896
:20010B0002E2F08E828F83A3A37804E208E2F08E828F83A3A3A37804E2F074062EF582E404
:20012B003FF5837806E2F074072EF582E43FF5837807E2F022E58275F008A4243FFE74F042
:20014B0035F0FF8E828F83A3A3A3A3780AE2FD53051F7808E24205EDF08E828F83A3A3A359
:20016B00A3A37809E2F022E58275F008A4243FFE74F035F0FF8E828F83780BE208E2F08E69
:09018B00828F83A3780BE2F022BD
:2071260090F0671272FEE582FF700122BF0600404C90F06BE0FEBE014490F067E0FDA3E083
:20714600FE9003FEE493FB740193FCEDB50306EEB504028006BDFF25BEFF22782D7462F21D
:2071660074F108F2782CEFF290F0671274D5E582FE600A782BEEF290F16212736022781F10
:20718600740DF2E408F2746008F290F0671278B7E582FF700122C007127AA9D007BF060011
:2071A600405490F06BE0FEBE014C90F067E0FDA3E0FE9003FEE493FB740193FCEDB503066A
:2071C600EEB504028006BDFF2DBEFF2A782D7462F274F108F2782CEFF290F0671274D5E532
:1771E60082FE60127826EEF2C203780D7927E2F390F162127AE822EA
:2071FD00AE82AF83780EE2FC08E2FD7810E2FB8B021BEA60188C828D83E0FAA3AC82AD835D
:20721D008E828F83EAF0A3AE82AF8380E222AE82AF837812E2FD8D041DEC600F8E828F83D6
:20723D007811E2F0A3AE82AF8380EB22AE82AF837816E4F27813E2FB08E2FC7815E2FA8A3D
:20725D00051AED6024C0028E828F83E0FDA3AE82AF838B828C83E0FAA3AB82AC83EA620575
:20727D007816E24DF2D00280D67816E224FF22AE82AF837D00ED2EFBE43FFC7817E22DF5BE
:17729D008208E23400F583E0FA8B828C83F0EA60030D80E18D8222F0
:0E038200C202781B7480F2781CE4F2781DF23F
:2077CA00AF82781AEFF2781EE27819F222C2A890DF04E030E0047F0080027F01EF245DFF1D
:2077EA00E434F2FE780274D9F274DF08F27804EFF2EE08F278067413F278077411F2758248
:20780A00010200EDC2A890DF04E030E0047F0080027F01EF245CFFE434F3FE780474D9F2EA
:20782A0074DF08F27802EFF2EE08F278067413F278077441F27582010200ED90DF04E03027
:20784A00E01378087420F2780974FFF2E408F275820102014090DF027809E0F2E408F2780C
:20786A0008F275820102014075E10490F45BE4F0A3F090F45DF0A3F0A3F0A3F090F461F0CA
:20788A00A3F0A3F0A3F090F465F0A3F0A3F0A3F090F469F0A3F0A3F0A3F090F46DF0A3F089
:2078AA00A3F0A3F0781EF27582000277CAAF83E5827822F2EF08F22001047582002290F208
:2078CA005DE0FDBD0900501C90F46DE02401F0A3E03400F0A3E03400F0A3E03400F0C20194
:2078EA00758200228D0474FD2C7824245DF2E434F208F274FD2DFD90DF04E030E054C0050D
:20790A0074FF2C7800F2E408F290F25D1270E7AD82AF837824E22402F58208E23400F5831C
:20792A00E0FBA3E0FEEDB50308EFB50604D0058073D005C20190F465E02401F0A3E0340091
:20794A00F0A3E03400F0A3E03400F0127AA9758200221C1C7800ECF2E408F290F25EC00580
:20796A001270E7AE82AF83D0057824E22402F58208E23400F583E0FBA3E0FCEEB50306EFB7
:20798A00B50402801FC20190F465E02401F0A3E03400F0A3E03400F0A3E03400F0127AA9B8
:2079AA007582002290F45BE4F0A3F07822E2F58208E2F583780E745DF274F208F27810EDEB
:2079CA00F2C0051271FDD0057822E2FE08E2FF7824E2F58208E2F583E0FBA3E0FC8E828FDE
:2079EA0083EBF0ECA3F0781FE2FC08E2FE08E2FF90F25EE030E6047B0180027B008C828E6B
:207A0A00838FF0EB127C5CC20190F461E02401F0A3E03400F0A3E03400F0A3E03400F08D66
:207A2A008222C0E0C082C083C0D075D008759B00E5E930E702C202E5E930E4051002028060
:207A4A0000E5E930E41D20021AD20175E9EF90DF3A781BE0F290DF39E0781CF290DF387886
:207A6A001DE0F2E5E930E005200202D200E5E930E321900000E0FCA3E0FDA3E0FEA3E0FF43
:207A8A0090000074012CF0E43DA3F0E43EA3F0E43FA3F075E900D0D0D083D082D0E03253C4
:207AAA009AFE75E10490DF30745BF090DF2F04F0C2A0781AE2F58212700B75D6821277D7D3
:207ACA00127845C28953D1FD43D60275E900759119439A01C202C200C20175E10222AE82F8
:207AEA00AF837826E2240350012278267928E22403F3539AFE75E1047819E2F582C007C03F
:207B0A000612700B75D68212780E1278457811E4F2781214F290F35C12722BD006D00778F2
:207B2A000EEEF2EF08F278267910E2F390F35CC007C0061271FDD006D0077826E2245CFBD4
:207B4A00E434F3FC7827E26002744090F35DF08B028C058E828F83E0FEA3E0FF8A828D83F1
:207B6A00EEF0EFA3F090DF04E030E04090F35C7828E2F074022BFEE43CFF7828E2FA7D00F0
:207B8A0074FF2AFA74FF3DFD7800EAF2ED08F290F35CC007C0061270E7AA82AD83D006D085
:207BAA00078E828F83EAF0EDA3F0803D90DF02E090F35CF074022BFBE43CFC7828E27F00A2
:207BCA0024FEFDEF34FFFF7800EDF2EF08F290F35DC004C0031270E7AE82AF83D003D00442
:207BEA008B828C83EEF0EFA3F090DF30745BF090DF2F04F0D2A0759190C289C2A875E900F4
:207C0A00439A0153D1FD43D602D20275E1032002FD127AA990F45DE02401F0A3E03400F042
:0B7C2A00A3E03400F0A3E03400F022DF
:047C940000000000EC
:2072B400E4F52AF52BF52CF52D743F55FF4440F5FF53F1FD43FD1043F33075FA1875FC0CDA
:2072D4007F00EF242FF876000FBF030040F475F8C075FB8243A90853B9F743FD08C2835370
:2072F4009AF7D2ABD2EA43A80822AF83E5827829F2EF08F27D007C00EC242FF9E76037EDEA
:207314002432F88603ED75F0FBA42467FA74F635F0FF780EEAF2EF08F27810EBF27829E24B
:20733400F58208E2F583C003C0011271FDD001D00377008B82220C8C05BC030040BA7582C5
:207354000022AF8230EAFD8FF9C2EA22AE82AF83758222C007C0061273567582691273563B
:20737400782BE2F582127356D006D007782BE2FD8D041DEC601E8E828F83E0FCA3AE82AF5B
:20739400838C82C007C006C005127356D005D006D00780DC22AD82AE839003FEE493FB7444
:2073B4000193FC90FA53EBF0ECA3F090FA55E4F0A3F090FA5704F090FA587411F07817ED04
:2073D400F2EE08F290FA5912728CAF82782B74062FF290FA53027360C0E0C0F0C082C083D6
:2073F400C0D075D010AFF9E52E24FC50030274C2E52E75F003A490740E7302741A0274285C
:2074140002743F02747ABF220280030274C2752E010274C2BF6906752E020274C2BF22024B
:2074340080030274C2752E010274C2EF24044005BF01005005752E018074753500E53524B0
:207454002FF9E76004053580F474FD25355008753500752E008057E5352432F8A6177536E0
:2074740000752E038048E53575F0FBA42467FD74F635F0FEAC360536EC2DF582E43EF58310
:20749400EFF0E5352432F9E7B53623E535242FF87601752E00AC2AAD2BAE2CAF2D74012C17
:1974B400F52AE43DF52BE43EF52CE43FF52DD0D0D083D082D0F0D0E032F0
:0874CD0075C9AB75C95B80FEB7
:20019400C2AF75C90875C9A875C958759A0075B80075A8001200AA1200CB127C35D2D112AE
:1801B40076861201FE5010C2AF759A0075B80075A800C2D10204002241
:2074D500AF83E582782FF2EF08F2C204782F7931E22406F308E2340009F3782DE2FA08E2E1
:2074F500FB783374062AF2E43B08F28A048B059003FEE493FE740193FF8C828D83EEF0EF0C
:20751500A3F074022AFEE43BFF782FE22402F58208E23400F583E0FCA3E0FD8E828F83ECE1
:20753500F0EDA3F08A828B83A3A3A3A37401F074052AFEE43BFF8E828F8374FFF07D06787C
:207555002FE22405F58208E23400F583E0FC602BBC02028070BC0C028040BC10028008BC1C
:20757500FF02800D0276648E828F837410F00276648E828F8374FFF002766475C9A875C995
:2075950058D2048E828F837401F07833E2F58208E2F583E4F07D0702766475C9A875C9580B
:2075B500D204C007C0061276BFD006D0078E828F837401F07833E2F58208E2F5837401F00D
:2075D5007D0702766475C9A875C958D2047831E2FB08E2FC8B828C83E0FA7831793BE2241F
:2075F50001F308E2340009F38A82C007C006C005C004C003127774E582D003D004D005D0D3
:2076150006D00760098E828F83740FF080418B828C83E0FABAFF1EC007C006C004C00312C6
:2076350001FED003D004D006D0075009783574E8F2740308F28E828F837401F07833E2FE0B
:1E76550008E2FF8B828C83E08E828F83F07D0730040978357470F2749908F28D8222A4
:2003CC00000000000000000000000000000000000000000000000000000000000000000011
:2003EC000000000000000000000000000000000000000000000000000000000000000000F1
:20040C000000000000000000000000000000000000000000000000000000000000000000D0
:20042C000000000000000000000000000000000000000000000000000000000000000000B0
:20767300D2D175C9A875C9581272B4D2AF127872027AA9127673D206127C57907C7B75F05A
:20769300801273A978357470F2749908F27835E224FFF208E234FFF27835E2F5F008E24549
:0C76B300F0600812712612718480E2223F
:197C7B004F70656E4C535420424C20633361353265612D64697274790020
:2076BF00D310AF01C3C0D07E007F04E5AE20E7FB75AB24EFC313FC7D00743E5CF5AD8DACC4
:2076DF00C007C006127006D006D007E5AE20E7FB8E048F0574042DFD8C068D078E048F0520
:2076FF00C374FF9C746B9D50C2D0D092AF22AE82AF8375AB24EFC313F5ADEFC313CE13CE87
:20771F008EAC780474AFF274DF08F278377902E2F308E209F378067412F27807744AF275B3
:20773F0082001200ED7808E4F278397909E2F308E209F3758200120140E5AE20E7FB53D162
:20775F00FE43D601127000E5D130E0FBE5AE54C070FAF58222AF82E4C3CF13CF13CFFE8F0D
:20777F00048E0574FC2D40047582012274802CFCE43DFDC3E49C746C9D4019783B7937E2C0
:18779F00F308E209F378397480F2E408F28F828E8302770D75820122C2
:2001CC00AE82AF83780BEEF2EF08F2758202120172E5B330E3FB53D1FB43D6045398FC78A6
:2001EC003DE24401F5B3E5D130E2FBE598540360FA227F00EF245EF582E434FBF583E4F00E
:20020C000FBF100040EE780274B2F274DF08F27804744EF274FB08F27806741EF278077459
:20022C0012F27582031200ED7808E4F278097410F2E408F2758203120140C205780474B1D5
:20024C00F274DF08F27802E4F208F27806741DF278077442F27582021200ED7808E4F2781B
:20026C00097410F2E408F27582021201407F00EF75F010A424CCFD740335F0FE8D828E839B
:20028C00783D7454F2C0071201CC783D7456F290FB5E1201CCD0077D007E04780BEDF2EEDE
:2002AC0008F2758202C007C006C005120172D005D006D007C3ED94E0EE946B50047C508035
:2002CC000853D1F743D6087C008D828E83783DECF2C007C006C0051201CCD005D006D007EC
:2002EC0074102DFDE43EFEC3ED94F0EE946B40ABE5D130E3FB781374F0F2746B08F278150D
:1D030C007410F290FB4EC007127249D0074002D2050FBF0300500302027BA2052295
:207C350053F3BF43FD40D28653F37F43FD8053F5FE43FF01C2A090DF30745BF090DF2F04E2
:077C5500F022A20692872233
:06035800E478FFF6D8FD79
:200336007904E94400601B7A01907C947800759300E493F2A308B800020593D9F4DAF27573
:0203560093FF13
:1B7C5C0020F71130F6138883A88220F509F6A8837583002280FEF280F5F02227
:20035E00783FE84400600A79007593F0E4F309D8FC782FE8440B600C790C90F03FE4F0A308
:04037E00D8FCD9FAD4
:0D032900758136127C77E58260030200A525
:047C770075820022F0
:00000001FF
