:0600000002035C02040390
:03000B0002040BE1
:03001300020413D1
:03001B000200934D
:03002300020423B1
:03002B0002042BA1
:0300330002043391
:03003B0002043B81
:0300430002044371
:03004B0002044B61
:0300530002045351
:03005B0002045B41
:0300630002046331
:03006B0002046B21
:0300730002047311
:03007B0002047B01
:0300830002009CDC
:03008B0002048BE1
:1200930030D1030273FE02041B30D103027A8402048336
:0570000075AE02002244
:0570060075AE0100223F
:0303C3000200A590
:0500A50012019A80FE2B
:20700B00AF8290DF0274FFF090DF037420F090DF047441F090DF06E4F090DF017491F09014
:20702B00DF0074D3F090DF0C74F8F090DF0D7420F090DF0E7403F090DF0F74A3F090DF1070
:20704B0074B9F090DF117411F090DF127407F090DF137430F090DF1403F090DF1514F09083
:20706B00DF16746CF090DF177403F090DF187440F090DF197491F090DF1A7456F090DF1BDE
:20708B007410F090DF1C74E9F090DF1D742AF090DF1EE4F090DF1F741FF090DF237488F08F
:2070AB0090DF247431F090DF25740BF090DF2E74C0F0BF001F90DF077406F090DF08E4F0D0
:1C70CB0090DF097410F090DF0A742FF090DF0B7469F080047582012275820022B3
:2000AA007E407F831EBEFF011FEE4F70F775C689E5BE30E6FB75C680E5BE30E6FB43BE04EB
:0100CA002213
:2070E700AE82AF8375BCFF75BCFF7800E2FC08E2FD8C028D031CBCFF011DEA4B600E8E82C4
:1F7107008F83E0F5BDA3AE82AF8380E5AFBD7E00ACBC7D00EC4206ED42078E828F8322DE
:2000CB007811E4F278127428F290F03E12723D7E3E7FF08FD575D43E7E467FF08FD375D22D
:2000EB004622E58275F008A4243EFE74F035F0FF7802E208E2FC8E828F83ECF08E828F83CB
:20010B00A37802E2F08E828F83A3A37804E208E2FCECF08E828F83A3A3A37804E2F074068A
:20012B002EF582E43FF5837806E2F074072EF582E43FF5837807E2F022E58275F008A4245A
:20014B003EFE74F035F0FF8E828F83A3A3A3A3780AE2FD53051F7808E24205EDF08E828F25
:20016B0083A3A3A3A3A37809E2F022E58275F008A4243EFE74F035F0FF780BE208E2FC8E14
:0F018B00828F83ECF08E828F83A3780BE2F022B9
:2071260090F066127310E582FF700122BF0600405590F06AE0FEBE014D90F066E0FDA3E061
:20714600FE9003FEE493FB740193FCEDB50306EEB50402800E90F066E0FDA3E0FEBDFF261C
:20716600BEFF23782C7461F274F108F2782BEFF290F0661274E9E582FFFE600A782AEEF236
:2071860090F16112737222781F740DF2E408F2746008F290F0661278DBE582FF700122C034
:2071A60007127B01D007BF0600405D90F06AE0FEBE015590F066E0FDA3E0FE9003FEE493D3
:2071C600FB740193FCEDB50306EEB50402800E90F066E0FDA3E0FEBDFF2EBEFF2B782C749A
:2071E60061F274F108F2782BEFF290F0661274E9E582FFFE60127825EEF2C203780D7926C2
:09720600E2F390F161127B3522E4
:20720F00AE82AF83780EE2FC08E2FD7810E2FB8B021BEA60188C828D83E0FAA3AC82AD834A
:20722F008E828F83EAF0A3AE82AF8380E222AE82AF837812E2FD8D041DEC600F8E828F83C4
:20724F007811E2F0A3AE82AF8380EB22AE82AF837816E4F27813E2FB08E2FC7815E2FA8A2B
:20726F00051AED6024C0028E828F83E0FDA3AE82AF838B828C83E0FAA3AB82AC83EA620563
:20728F007816E24DF2D00280D67816E224FF22AE82AF837D00ED2EFBE43FFC7817E22DF5AC
:1772AF008208E23400F583E0FA8B828C83F0EA60030D80E18D8222DE
:0E03B500C202781B7480F2781CE4F2781DF20C
:2077E600AF82781AEFF2781EE27819F222C2A890DF04E030E0067E007F0080047E017F0070
:20780600EE245CFEEF34F2FF780274D9F274DF08F27804EEF2EF08F278067413F2780774AD
:2078260011F27582010200EDC2A890DF04E030E0067E007F0080047E017F00EE245BFEEFAC
:2078460034F3FF780474D9F274DF08F27802EEF2EF08F278067413F278077441F27582019C
:207866000200ED90DF04E030E01378087420F2780974FFF2E408F275820102014490DF0223
:20788600E07809F2E408F27808F275820102014475E10490F45AE4F0A3F090F45CF0A3F0FE
:2078A600A3F0A3F090F460F0A3F0A3F0A3F090F464F0A3F0A3F0A3F090F468F0A3F0A3F07C
:2078C600A3F090F46CF0A3F0A3F0A3F0781EF27582000277E6AE82AF8320010475820022F8
:2078E60090F25CE0FDBD0900501C90F46CE02401F0A3E03400F0A3E03400F0A3E03400F0BB
:20790600C20175820022C006C0078D037C0074FD2BFA74FF3CFFEA245CFAEF34F2FF782395
:20792600EAF2EF08F2782274FD2DF290DF04E0D007D00630E069C006C00774FF2BFA74FF41
:207946003CFD7800EAF2ED08F290F25CC007C0061270E7AA82AD83D006D0077823E224022D
:20796600F58208E23400F583E0FEA3E0FFEAB5060BEDB50707D007D006027A01D007D0065D
:20798600C20190F464E02401F0A3E03400F0A3E03400F0A3E03400F0127B0175820022EBBA
:2079A60024FEFBEC34FFFC7800EBF2EC08F290F25DC007C0061270E7AC82AD83D006D0076E
:2079C6007823E22402F58208E23400F583E0FAA3E0FBECB50206EDB50302801FC20190F463
:2079E60064E02401F0A3E03400F0A3E03400F0A3E03400F0127B017582002290F45AE4F0DA
:207A0600A3F08E048F058C828D83780E745CF274F208F278227910E2F3C007C00612720FC9
:207A2600D006D0077823E2F58208E2F583E0FCA3E0FD8E828F83ECF0EDA3F0781FE2FD08E5
:207A4600E2FE08E2FF90F25DE030E6067B017C0080047B007C008D828E838FF0EB127CB23F
:207A6600C20190F460E02401F0A3E03400F0A3E03400F0A3E03400F07822E2F58222C0E0BA
:207A8600C082C083C0D075D008759B00E5E930E702C202E5E930E4051002028000E5E9304A
:207AA600E41D20021AD20175E9EF90DF3A781BE0F290DF39E0781CF290DF38781DE0F2E554
:207AC600E930E005200202D200E5E930E321900000E0FCA3E0FDA3E0FEA3E0FF90000074B7
:207AE600012CF0E43DA3F0E43EA3F0E43FA3F075E900D0D0D083D082D0E032539AFE75E17E
:207B060004C2A0781AE2F58212700B75D6821277F3127869C28953D1FD43D60275E90075EB
:207B26009119439A01C202C200C20175E10222AE82AF837825E2FC7D00C374FC9C74808D4A
:207B4600F063F08095F050012278257927E22403F3539AFE75E1047819E2F582C007C0066F
:207B660012700B75D68212782E1278697811E4F2781214F290F35B12723DD006D0078E032E
:207B86008F04780EEBF2EC08F278257910E2F390F35BC007C00612720FD006D0077825E2DE
:207BA600245BFBE434F3FC7826E26002744090F35CF08E828F83E0FEA3E0FF8B828C83EE4D
:207BC600F0EFA3F090DF04E030E04090F35B7827E2F074022BFEE43CFF7827E2FA7D007411
:207BE600FF2AFA74FF3DFD7800EAF2ED08F290F35BC007C0061270E7AA82AD83D006D00797
:207C06008E828F83EAF0EDA3F0803D90DF02E090F35BF074022BFBE43CFC7827E27F00242A
:207C2600FEFDEF34FFFF7800EDF2EF08F290F35CC004C0031270E7AE82AF83D003D0048B7F
:207C4600828C83EEF0EFA3F0D2A0759190C289C2A875E900439A0153D1FD43D602D20275AF
:1F7C6600E1032002FD127B0190F45CE02401F0A3E03400F0A3E03400F0A3E03400F02282
:047CEA000000000096
:2072C600E4F52AF52BF52CF52D743F55FF4440F5FF53F1FD43FD1043F33075FA1875FC0CC8
:2072E6007F00EF242FF876000FBF030040F475F8C075FB8243A90853B9F743FD08C283535E
:207306009AF7D2ABD2EA43A80822AF83E5827828F2EF08F27D007C00EC242FF9E76037EDD8
:207326002432F88603ED75F0FBA42466FA74F635F0FF780EEAF2EF08F27810EBF27828E23B
:20734600F58208E2F583C003C00112720FD001D00377008B82220C8C05BC030040BA7582A0
:207366000022AF8230EAFD8FF9C2EA22AE82AF83758222C007C00612736875826912736805
:20738600782AE2F582127368D006D007782AE2FD8D041DEC601E8E828F83E0FCA3AE82AF39
:2073A600838C82C007C006C005127368D005D006D00780DC22AD82AE839003FEE493FB7420
:2073C6000193FC90FA52EBF0ECA3F090FA54E4F0A3F090FA5604F090FA577411F07817EDF6
:2073E600F2EE08F290FA5812729EAF82782A74062FF290FA52027372C0E0C0F0C082C083A3
:20740600C0D075D010AFF9E52E24FC50030274D6E52E75F003A49074207302742C02743AFF
:2074260002745102748DBF220280030274D6752E010274D6BF6906752E020274D6BF2202D8
:2074460080030274D6752E010274D6EF24044005BF01005006752E010274D6753500E53541
:20746600242FF9E76004053580F474FD25355008753500752E008058E5352432F8A61775DF
:207486003600752E038049E53575F0FBA42466FD74F635F0FEAC360536EC2DF582E43EF54B
:2074A60083EFF0E5352432F9E7FFB53623E535242FF87601752E00AC2AAD2BAE2CAF2D74B0
:1B74C600012CF52AE43DF52BE43EF52CE43FF52DD0D0D083D082D0F0D0E032AF
:0874E10075C9AB75C95B80FEA3
:20019A00C2AF75C90875C9A875C958759A0075B80075A8001200AA1200CB127C85D2D11258
:1801BA0076961202045010C2AF759A0075B80075A800C2D10204002224
:2074E900AF83E582782EF2EF08F2C204782EE22406FC08E23400FD7830ECF2ED08F2782CC9
:20750900E2FA08E2FB74062AFEE43BFF7832EEF2EF08F29003FEE493FE740193FF8A828BCA
:2075290083EEF0EFA3F074022AFEE43BFF782EE22402F58208E23400F583E0FCA3E0FD8EFE
:20754900828F83ECF0EDA3F08A828B83A3A3A3A37401F074052AFEE43BFF8E828F8374FFD3
:20756900F07D06782EE22405F58208E23400F583E0FC602BBC02028070BC0C028040BC1064
:20758900028008BCFF02800D0276748E828F837410F00276748E828F8374FFF002767475BA
:2075A900C9A875C958D2048E828F837401F07832E2F58208E2F583E4F07D0702767475C977
:2075C900A875C958D204C007C0061276CFD006D0078E828F837401F07832E2F58208E2F594
:2075E900837401F07D0702767475C9A875C958D2047830E2F58208E2F583E0FC7830793A3E
:20760900E22401F308E2340009F38C82C007C006C005127788E582D005D006D00760098EFC
:20762900828F83740FF080437830E2F58208E2F583E0FCBCFF16C007C006120204D006D01C
:20764900075009783474E8F2740308F28E828F837401F07830E2F58208E2F583E0FF7832E3
:1A766900E2F58208E2F583EFF07D07300409783474C8F274AF08F28D822284
:2003CC00000000000000000000000000000000000000000000000000000000000000000011
:2003EC000000000000000000000000000000000000000000000000000000000000000000F1
:20040C000000000000000000000000000000000000000000000000000000000000000000D0
:20042C000000000000000000000000000000000000000000000000000000000000000000B0
:20768300D2D175C9A875C9581272C6D2AF127896027B01127683D206127CA8907CD175F004
:2076A300801273BB783474C8F274AF08F27834E224FFF208E234FFF27834E2F5F008E245BC
:0C76C300F0600812712612718D80E22226
:197CD1004F70656E4C535420424C20623939363933352D64697274790043
:2076CF00D310AF01C3C0D07E007F04E5AE20E7FB75AB24EFC313FC7D00743E5CF5AD8DACB4
:2076EF00C007C006127006D006D007E5AE20E7FB8E048F0574042DFD8C068D078E048F0510
:20770F00C374FF9C746B9D50C2D0D092AF22AE82AF8375AB24EFC313FC8CADEFC313CE13B1
:20772F00CE8EAC780474AFF274DF08F278367902E2F308E209F378067412F27807744AF24B
:20774F007582001200ED7808E4F278387909E2F308E209F3758200120144E5AE20E7FB53AB
:20776F00D1FE43D601127000E5D130E0FBE5AE54C0600280F875820022AF82E45401A2E048
:20778F00CF13CF13CFFE8F048E0574FC2D40047582012274802CFAE43DFBC3E49A746C9B36
:2077AF004019783A7936E2F308E209F378387480F2E408F28F828E8302771D74802CFCE419
:1277CF003DFDC3E49C74809D4004758201227582022221
:2001D200AE82AF83780BEEF2EF08F2758202120176E5B330E3FB53D1FB43D6045398FC789C
:2001F2003CE24401F5B3E5D130E2FBE598540360FA227F00EF245DF582E434FBF583E4F00A
:200212000FBF100040EE780274B2F274DF08F27E4D7FFB7804EEF2EF08F27806741EF278DD
:20023200077412F2758203C007C0061200ED7808E4F278097410F2E408F27582031201442B
:20025200C205780474B1F274DF08F27802E4F208F27806741DF278077442F2758202120068
:20027200ED7808E4F278097410F2E408F2758202120144D006D0077D00ED75F010A424CCE4
:20029200FB740335F0FC8B828C83783C7454F2C007C006C0051201D2783C7456F290FB5DA0
:2002B2001201D2D005D006D0077B007C04780BEBF2EC08F2758202C007C006C005C004C0B5
:2002D20003120176D003D004D005D006D007C3EB94E0EC946B50047A50800853D1F743D670
:2002F200087A008B828C83783CEAF2C007C006C005C004C0031201D2D003D004D005D006AE
:20031200D00774102BFBE43CFCC3EB94F0EC946B409BE5D130E3FB8E828F837BF07C6B7886
:2003320013EBF2EC08F278157410F2C007C006C00512725BD005D006D0074002D2050DBD3C
:0A0352000300500302028BA20522F3
:207C850053F3BF43FD40D28653F37F43FD8053F5FE43FF01C2A090DF2F745BF090DF307422
:0D7CA5001CF022A206928722A207928722DD
:06038B00E478FFF6D8FD46
:200369007904E94400601B7A01907CEA7800759300E493F2A308B800020593D9F4DAF275EA
:0203890093FFE0
:1B7CB20020F71130F6138883A88220F509F6A8837583002280FEF280F5F022D1
:20039100783EE84400600A79007593F0E4F309D8FC782FE8440B600C790C90F03EE4F0A3D7
:0403B100D8FCD9FAA1
:0D035C00758136127CCDE58260030200A59C
:047CCD00758200229A
:00000001FF
