:204000004343313378325231FFFFFFFF0301BFFFFCFE0700FFFFFFFF909D0000F0DA0000D7
:1840200000010000FFFFFFFF3800FFFF01BFFFFFFFFFFFFF004000005B
:204038002DE9F84305460C46480413D4A00024D4A0075CD460057ED4200500F1068120075D
:2040580000F13B81600040F1F68005F075FE24F08044F0E008F03EFFDFF81C140F6D3FB1DC
:20407800D7E90A1202F0E04201F00A01891849D009F04DF824F48044DDE0BB48DFF8FC7362
:20409800016841F080010160B878012804D1042007F08CFB0020B87008F01CFF06460420F1
:2040B80008F024FFDFF8D8130A68904219D12A7EBAB1FA68AAB1DFF8C003806C002800F06F
:2040D8009780C16840F603020988914206D0C06840F604010088884240F08A8005F114001A
:2040F80088E040F6C4120860C5E9042284E001F0C1FFDFF88403006C002840F09D8024F090
:20411800020498E0D7E90A65D7E90A12AA43B143C7E90A1208F0FBFFB8680028AAD056EA5D
:204138000500A7D0D7F808C03869B7F9301032462B46E0479EE708F0CDFE054608F0BAF975
:20415800002800F0B780CC48876B002F00F0B280DFF828830420CB49002288F81800C6481F
:2041780008F00AFD08F0DFFFC74808F0CAFFC7480068006B8047C8F810000125042088F83F
:20419800025007F0ADFC386990F82810C8F80400490703D5436A042100229847012006F0DE
:2041B80015F8D8F80400457604F0B6F9D8F8040081680B461A465B684BB11E88A6F6030630
:2041D800072EF7D805FA06F616F0830FF2D0537B03F0F003013353730023FD6853602D88D0
:2041F800A5F60305012D00F28A80C8F810309FE005F1100006F03CFD304608F088FF07F03A
:2042180087FC78B12E6A28466FF4807100224FF00073B0479848806B10B105F08DFD01E0C9
:2042380044F00204EE692846002100224FF08063B04724F0005434B1974821462830BDE87B
:20425800F84308F0B6BFBDE8F8838C4EB078012804D1042007F0AAFA0020B07007F058FC34
:2042780038B170686FF4807100224FF00073056AA847306950B185480068006B8047326943
:204298007168801A000BC860002030617A4D81490022284608F070FC02203076286C20B1FD
:2042B8007D480221283008F084FF05F045FD24F40064C0E708F037FF41E008F00BFE054636
:2042D80008F0F8F8A0B1DFF8B48198F8000000070ED498F9000000280AD4684604F0C0F916
:2042F80008B1009820B1DFF8B49199F8610048B308F019FF05F020FD24F008049BE703466E
:2043180033F8385FA5B190F8445090F8456005F0F00580F8445006F0F005013580F8455000
:2043380000255360C5634587507B00F0F000507357480022C2610160012008F0EBF924F4D1
:20435800806478E700260127602E0FD009EB0600817A31B18772407A07FA00F0C0B207F063
:204378003FFA2036F0E700BFCC210840032088F81800454808F0C5FE08F0D5FE444F3E4DDF
:204398000022786900207861F968F8602846444908F0F2FB3D480068006B8047D8F80C1065
:2043B800D8F82020411A02EB1130B0EB113F38BF4FF0FF3098F82410C8F8200021B1D8F8B6
:2043D8000810B0EBC12F20D908F0B4F9B8B140F60900414621F83C0F002048804A7B02F052
:2043F800F00201324A730A7B02F0F0020A734860F8613960B8F83E0010F4406FFAD00020B8
:20441800C8F82000012088F8240006F0FDF92548002101600220002108F07CF9022007F03B
:20443800C5F9102003F0CCFF98F8010020B9D8F80400503008F0B9FE1B48807810B90D20FA
:2044580003F0BEFF98F8250028B1002088F82500052007F0ABF9002088F818001348C8F8AE
:204478001C000220B5F85610B5F85420914208BF072005F05BFA3DE7FC03002060020020E2
:2044980068060020A9C40000B08700208C01001000100440F16E0000980300209086002071
:2044B800B59D0000000004601CDA0000E56B00002DE9F04FA1B0002800F018820E4606290D
:2044D800C0F0148231461446054607F02FFE002800F00C82DFF82484284688F8004008F0F3
:2044F8007DFCA0F11101022945D3A97895F803B0022802D0102840F0F981B01F020400F041
:20451800F58161F30D2BA9794A1E282A3AD8DFE812F0290039003B003E0039003900390044
:20453800390039003900390039003900390039004E007F00AA00F000FE003900390039008B
:204558003900390039003900390039003900390018011E0124012A01300136013C0142010B
:204578004801500111AD284603F05CFC012059462A462023B8E12846314621B0BDE8F04F6C
:2045980007F03EBB58460DE0584603210AE080B2022805D3E879E049002818BF0120087086
:2045B8005846042121B0BDE8F04F08F057BAF01F80B20628C0F08481D5F8070007BA002F7A
:2045D80000F07E81B7F5402F00F27A81B5F80B5002F0F6FD002800F0738141F6FF7040F6F7
:2045F800FF710026384420EA0101002004F066FD002800F0638128BA01210025000C88F85D
:204618000410C8E90276A8F81000BD4801705BE198F8040028B9D8F8080010B1012088F834
:20463800040098F8040020B1F01F80B2062880F0CA8008F0C7FC40F21111ADF84410E907D8
:2046580018BF6FF011008DF84A70594607238DF84600380A8DF84900380C8DF84800380EC1
:204678008DF847003EE198F80400002800F01D81F01F80B20428C0F01881D8E902018142B0
:2046980040F013816FF040009E4E11AA41F2210A00F140054FF48050002900F0BD80402992
:2046B8000F4603918146144628BF4027394604F05FF9002800F0F7802046394622460B04D4
:2046D80011D003780139082485EA03254CB106EA45032DB2002D48BF83EA0A03013C1D4607
:2046F800F4E70130EBE70399484609EB0700C91BD2E78349002088F80400C8E90200087067
:2047180007F04EFA1320ADF8440011AAD2E0142009238DF8440098F804008DF84500D8E971
:20473800020109BACDF84610010A8DF84C10010C000E8DF84B108DF84A0011AA032059464D
:20475800D2E04020202108F0B8FC00212EE04020212108F0B2FC012128E04020222108F006
:20477800ACFC022122E0C820232108F0A6FC03211CE04020242108F070FC04211EE0DC2046
:20479800252108F06AFC052118E04020262108F064FC062112E08020272108F08EFC072195
:2047B80004E04020282108F088FC08210022002306E02020292108F050FC0921C3B2584679
:2047D80000F016FF92E0EE7AD5F807100FBA002E3FF42FAF802E3FF62CAF711D81423FF6B2
:2047F80028AFD8F8080007EB060981453FF621AF02F0E6FC00287CD005F10C0207F580500E
:20481800314603F07DFF002875D0D8F80C00814588BFC8F80C9069E0B8F81000A9B28142C1
:2048380041D104AD2821FF2205F1080008F034FC354843F6FF712A460026059033480490AD
:204858003348089040F20310ADF81C004FF0FF3010904FF480500F904FF6BF70ADF81E0030
:20487800D8F808000A90084434210D90002003F047FFC0B107F094F9214888F80460594636
:20489800022306701220ADF8100004AA032005F00FFC4FF4FA7004F0E1F908F002FC1D48D7
:2048B80001210160FEE707F07BF94FF48970ADF8100004AA03205946022315E007F070F932
:2048D800012608F07FFB054608F076FB808810218DF846508DF8456005238DF84410594655
:2048F800ADF8470011AA032005F0E2FB21B0BDE8F08F00259DE601259BE600BFA405002038
:2049180063060020FEFF01004E564D314F414420FEFE07007C0520435C0600202DE9FE4F16
:20493800074608680024B0B1D7E9018A0E4608F0D1FA8146D8F8E800082888BF0124B06888
:20495800204202D17068204208D003203074484608F0DDFB00242046BDE8FE8FD8F8C01077
:2049780069B198F8F8100029EFD006213174D8F8C410C8F8C4604E6198F8FC100DE00021D8
:204998000522C8E93066C8E93411C8E9361198F8FC10002908BF012232740022012972612F
:2049B80009D102204FF4E02188F8FC0098F8FB0007F07EF8706889490138884205D804207D
:2049D80007F08EF8062007F08BF8022007F088F898F8F80040B9DAF83C003168814203D249
:2049F80098F8FC0000286CD0D8E9361009B118B900E028B308F05DFBDAF80000416941F065
:204A180001014161484608F082FB98F8F80008B10124A0E708F16C05D8F8EC10284608F04E
:204A380030FB0028F4D0D8F8C00003210174384604F05EF928460021002408F022FB8AE71C
:204A58009AF8040008F09DFB654CDAF810100222206991FAA1F1B1FA81F14368D8F8CC0047
:204A78004068006898472069DAF8141002224368D8F8CC0091FAA1F1B1FA81F140680068FB
:204A980098479AF8040007F0B5FD9AF8040008F07AFB08F00EFB0020C8F8E000D8F8C0008C
:204AB8000068B0F5806F01D908F003FB98F8FE000028A1D1DAF80000416841F0020141609A
:204AD8009AE798F8F90020B1D8F8EC0001307FF48BAF484608F01BFBB2683AB1D8F8E800F0
:204AF8000221092838BF0121009103E008F1F40200200090746834B1D8F8E800022709284B
:204B180038BF012702E008F1F6040027DAF80000334D416841F002014160D6F800B0D946F5
:204B3800BBF1000F40D0D8F8E800019209284FF0010011D22A68B9F1000F1FD0C0071DD005
:204B58002178DAF800009268904700281EBF3C44A9F101090120EDE72A68B9F1000F16D0B2
:204B7800C00714D02188DAF800009268904700281EBF3C44A9F101090120EDE7DAF8000036
:204B9800D26802A99047DDE90120107007E0DAF80000D26802A99047DDE901201080009856
:204BB800ABF1010B0244BBE7D8F8F000DAF80010CA680240102802D1002AF9D101E0002A2D
:204BD800F6D0706807F09AFCD8F8C0100020C8F8C400C8F8C00008741AE700BFFEFFFF0F87
:204BF800C40100102DE9F04F8DB0044600209A4616460F46CDE90B00CDE909008A488568FC
:204C1800804604F09DFB1C2803D004F099FB1B281BD1308840F60201884218BFB0F5C15F05
:204C380003D1F07B022810D93EE043F6070188420BD196F82400032807D330697B4940F0C1
:204C5800806020F0604088422ED100206FB366B3387825FA00F0C00726D03046002108F07D
:204C780094FA7348C4E90176006880B109A800900CA90BAA0AAB304601F00AFE0B980B2178
:204C98004FF6FF72502307F0E5FCFF280CD008F021F9684F06467878012802D840B10120DE
:204CB80070E0304608F033FA00200DB0BDE8F08F01F062FD60480DF10409016841F0020150
:204CD80001605E48C8F80000484608F06FF8DFF870B15D494A469BF801009BF800500390D0
:204CF8005848283006F02CFD584859494A4606F027FD484607F0FAFFDFF85881564A192191
:204D18004B460295404606F063FA544A08F11C001A214B4606F05CFA5148524908F0D1F9B9
:204D38005148524908F0CDF95148006810F4402F06D0504A07F128000421002307F084FBA7
:204D58009BF8020010B10D2003F032FA08F1400007F01DFF08F1380007F019FF464900205E
:204D780007223876B8843862386181F860200521C7E902104149F96138700420002107F02C
:204D9800C9FC78782F4941F8204001307870304608F0BDF9BAF1000F02D0DAF8000008E0B2
:204DB8000DF1040A36492022504608F009FA4FF0FF30DAF80420BAF81010DAE90635002A1F
:204DD800B2FA82F608BF40F6C4122060012076096183256360762B4826764FF4FA766261DD
:204DF800C4E90362C4E90700C4E90903DAF80C0000B12062DAF8140000B16062DAF80800D8
:204E180000B1E06104F13800C82108F06BF904F15000002107F0AEFC1B4904F1B80008F006
:204E380050F9204641E700BFCC2108400F000005340600206002002000200940110000E045
:204E58001CDA000098030020F1C8000038880020817D0000FC030020B59D00009D9600004E
:204E7800F487002085C40000B08700209DC80000B44F0050E9A3000090860020E56B000015
:204E9800E4D80000A79F000045D100002DE9FC47D0E900588246D8F80000D0F8409019F43B
:204EB800F06FC0F8449035D05FEA495117D5D5E91401411A504606F0BDFFD8F800008169EB
:204ED800C90605D401688DF807109DF80710F6E7296801312960A97B09B90121A973696C3F
:204EF80040684FF0004600F00F0404EA0100B0FA80F126FA01F1014005D02F6C1FB12A683B
:204F1800AB6C5046B847B4FA84F026FA00F020404042A863D5F85801D8F83C1009F040072C
:204F380040680068D0F804251140394347D0DAE90064504604F0D0FDD7B1F07C90B90BE0CE
:204F5800316F69B10068B16EB26F8854306FB16F01310138B167306720688169C906EFD51D
:204F7800F07C28B1D6E91401411A504606F062FF96F86400E0B13079022819D017B1B17987
:204F9800012901D0316F99B90024B16E0128346786F86440B46607D1B36CB26FD6F8CC60B7
:204FB80050460094B04703E006F17C0008F0FDF8504602F08DF8D5F858014068006800F240
:204FD80004500068D8F83810084228D0D5F8F80028B3DAE90076504604F0F4F8504602F0CC
:204FF80063FE7879012812D1D7F8F40078B997F8E80060B1002087F8E800BB6CD7F8EC1046
:20501800D7F8FC20D7F8504100905046A047D7F8F80020B93068816B41F4006181635FEA39
:20503800095023D5D8F8000081690907FCD4016B21F480710163297A91B10020287295F86B
:205058004400800606D52C6C24B1AB6C504620210022A0475046012106F09CFFD8F8000016
:20507800816B21F400618163687908B1BDE8FC8705F58070BDE8FC4708F097B82DE9FF41A1
:20509800DFF8BC81002003900290D8F83840B4B3D8F84C0010B9D8F8480070B3D8F84800B8
:2050B80060B12069D8F848100969814206D194F83300C00602D5D8F84C0090B1002702A880
:2050D80087F0010103AA03F02FFF0546FFB9F5B10299002900F09D805A4807F0B3FC002788
:2050F80014E0D8F84800C06840880028F9D0D8F84800C06840880128F3D00127DFE752482F
:205118000221283008F055F80027002500242CB34E48466816B30298B0FA80F040092840F6
:2051380001281BD1D8F84800D8F84C10039A87F00103CDE9003208F1380208F14003B04798
:20515800012868D0022809D1D8F84800012201230069D8F84810B1F9301065E0002C204621
:2051780018BF01203840012851D1394821694068814203D034484FF4806145E0029800288C
:2051980018BF01202840012806D1D8F8480018B9D8F84C0000284DD0082007F08FFB94F818
:2051B80033004C25C00608F1380058BF482507F0EDF948F80500274BD4E90601C2439A6061
:2051D800DA681043D860C843186058680843214658600820E56807F09DFA284607F02AFAB1
:2051F800288843F60601411A022906D3B0F5C15F03D040F60201884203D10120294607F052
:2052180089FA11484FF08041283007F0D2FFBDE8FF8100277BE70398002818BF04460122C5
:205238000023B4F9301020690092002200F0C8FFBDE8FF81082006F0D3FABDE8FF8100BF5E
:20525800FC030020F4870020980300203C06002060020020081004402DE9FE4FD0F80080D6
:20527800994614460E46824613B10020C9F8000007F030FE834698F8070038B198F86400BA
:2052980048B107F04DFF6FF00805B4E007F048FF6FF00E05AFE0002C4AD0504604F01CFC93
:2052B80000200121C8E91A64C8F87040C8F87800C8F8380088F80C0088F80A00504688F899
:2052D800641006F0B1F9504601F002FF08F14C0402AD2046294607F06AF9D8F87810D8F8CB
:2052F80070707218B84238BF0746029910463A4607F066FF2046394606F041FDD8F87000C8
:20531800D8F87810C21B3944012FC8F87020C8F8781001DBB842DCD198F8041002290CD1CC
:205338000020C8F8680088F86400C8F870001CE007F0F6FE6FF009055DE0B84215D1002068
:20535800D8F86860012988F86400C8F868000CD10124584688F8104007F0D9FE98F80F008A
:2053780000284BD007F0B6FD834607F0D9FE98F8040008B100252FE0D8F8701008F17C004B
:2053980031B30C9907F07DFE10B1012088F80C0007F0A0FD0446504604F09EFB0020C8F8AB
:2053B8006800C8F8700088F86400504601F090FE98F80A6098F80C50204607F0A8FE002D2E
:2053D80018BF6FF00C05002E18BF6FF00D0503E00021002507F055FE07F07CFDB9F1000F5C
:2053F80007D098F8041001291CBFD8F87810C9F8001007F08CFE2846BDE8FE8F002598F816
:2054180010000028AED007F065FDA8F80F4007F07EFED8F84830D8F87820D8F8CC705046B1
:2054380031460095B84788F80F50E8E72DE9FE4FD0E90198D8F80010CA690A62D20740F05E
:20545800AF80D8E904014FF0000A4FF0000B0843D9F8CC1049680968C1F8040509F13000A6
:20547800029009F1C8000190BBF1010F00F2A180D9F8C000002800F09C80D9F8E010DC22DC
:20549800D9F8CC702023002908BFD82208BF182358F803404FF0240308BF1C237F68D8F802
:2054B800146058F803303F68D7F80455354211D0A46864070ED10468D9F8D050A54209D142
:2054D80044693CB9D8F80040656A25F002056562C7F804659B685B0702D00BF1010BC3E73F
:2054F80059F80230002BF8D049F802A0B1FA81F1D9E934424909006849011A448442C9F8FD
:20551800D420C9F8E01028BF82420CD24846414600F04EFC99F8FE000028DED007F062FB3D
:2055380018BF8862D9E707F0D5FCD9F8C820D9F8C010019B81F810A022B113465269002ADA
:20555800FBD114331960C9F8D4A04A69C1F814A0D9F8E01000294FF0DC01C9F8C02008BFE4
:20557800D82159F80110C9F8D01007F0D0FDD9F8C00058B14846414600F01AFC99F8FE000F
:2055980050B107F02FFB18BF886205E0D8F80000416A21F003014162029807F00CFE9CE7DA
:2055B800D9F8C0203AB103211174BDE8FE4F03F09FBBBDE8FE8F486820F002004860486A01
:2055D80020F003004862D8E904021043D9F8CC2052681268D062C2F80405486920F0010034
:2055F8004861012008624046BDE8FE4F06F077BE2DE9F04F8FB0DFF890A18046189C1D4643
:2056180093460F46DAF80000C8B90DF11809484607F0B4FC032000264946ADF834004FF4A9
:20563800E1308DF836600C900220ADF81800012000F042FA0028CAF8000000F0858046F643
:20565800221100260322ADF81510691C06968DF817100DF1150106AB07F00DFC002873D1EC
:20567800DAF800008DF8147005A906AB012207F002FC08B1002667E0BBF1000F199C18BF53
:20569800002D06D0DAF8000006AB59462A4607F0F2FB0027661E41F2873B0DF113050022A1
:2056B80000204FF000098DF8137003ACC0B20090002001900292D94544D8DAF800002946F1
:2056D80001222346039706F083FF039830B94FF47A7006F025FB09F10109ECE7029800F0EC
:2056F8000300DFE800F0020A27169DF813002238B0FA80F040090290DDE79DF81300A0F19B
:205718002201B1FA81F14909692808BF02210291D1E7019880B2864203DD9DF813101B4A89
:2057380011540198009903220130019080B28842C0D31FE09DF813000028024618BF4FF017
:20575800FF32B3E70026189CB2B21148B2FA82F14909047041701AB10C49023007F030FDC3
:20577800B01C0B4A414683B2032004F0A1FC0FB0BDE8F08F1999054A884238BF064600216E
:20579800B0B21154DFE700BF78060020E0830020FF820020B0B560480021604C016094F81C
:2057B8003A01032812D002282ED0012840F0AF8094F8400103F02CFF002084F84001594870
:2057D800817B0220002908BF06209EE054480168B1F5C060C4F82C01B8BFC1F5C060D4F832
:2057F8001011002900D5494288422ADDD4F8140106F0E2FDD4F8180106F0F0FDD4F82801A3
:2058180006F010FE01201DE04548056807F09EFAC4F8140107F0A2FAC4F8180107F0A6FAF5
:20583800B5F5C061C4F82801C4F8101109D094F830215AB1D4F81401D4F82021D4F82C110B
:205858000AE0002084F8300106205EE0C4F82401D4E94502C4F82C110223C4F81C01002910
:2058780001EB410148BF6FF001031944042391FBF3F111440029C4F820110FDD1F2931D3E1
:20589800D4F824212AB33E28A8BF3E2001302929A8BF2921C4F81C010B3909E0D4F824218C
:2058B800032A09D111F1140FD8BF6FF013011531C4F82011002113E00128D8BF0120013839
:2058D80011F10A0FD8BF6FF00901C4F81C010B3103E03329A8BF33211539C4F82011032127
:2058F800C4F8241106F068FD012006F089FDD4F8200106F073FDD4F8240106F093FDA5F246
:20591800FF510420032938BF0620C4F83C01BDE8B04001F0D5B800BF3C500C4000000020EF
:2059380008400C40D4D900002DE9FF47D0E901590E46044607F0CEFA95F8FD1021B97169F4
:20595800102901D8032906D807F0E1FB0024204604B0BDE8F087012785F8FD7007F0D7FB0B
:2059780000204E4A85F8FC00C5E93000C5F8C80085F8FE003069C5F8E4007069C5F8E80048
:20599800307B85F8F9000028317885F8F8107168C5F8EC10B9F80E10A5F8F610317E52F87B
:2059B800211085F8FA1008BF1027C5F8F07099F80C0002F0FDFB204604F06AFE99F83B00E7
:2059D800374985F8FB008A46D4E901873A6B97F83A0002F095FB7A6B98F8FB00514602F0B9
:2059F8008FFB98F8F91097F83800012915D1FA6A514602F085FBBA6A97F8390046F2020101
:205A180002F07EFB98F8FB00264906F01FFF98F8FB00214607F0DCF80AE0BA6A46F20201EF
:205A380002F06EFBFA6A97F83900514602F068FBE846404607F05AF999F805001A4A43465A
:205A5800CDE90040284699F8041005F0C1FB404607F0ACF9D9F8080014494246009402906E
:205A780005F1300005F06CFE04F0CAF9104AC5F8CC0005F11C000421234606F0E5FC95F8EB
:205A9800F80008B1B06805E005F16C00002106F071FE0848C5F8BC0059E700BFA4D9000013
:205AB80002600020ED6F0000455400008DA700000DD0000005D10000FEB504465A48007859
:205AD800A04213D908780D46012801D1686868B16878012801D1A86840B1544F57F83460C7
:205AF80007F0F8F9F17921B107F011FB00242046FEBD07EBC40401216768F17107F007FB1C
:205B1800002005F1040C7074F081B06030602988B180A98BC6E93D00C6E90E0086F86400B1
:205B3800B186297D2B69B1719CE80610C6F85021BCF1000FC6E910C34FF0FF32C6F8CC10A9
:205B5800A969C6E93B203163A97F86F83610296AC6E91A00C6E91C00B16486F8E800C6F831
:205B7800580102D13249C6E9101097F8400002F01FFBD7E9031206F14C0007F00FF9D7E9E5
:205B9800051206F1D00007F009F92A4938680968C96888477A6C97F8240046F2020102F0CC
:205BB800AFFA254DBA6C97F82000294602F0A8FAF86901280CD1FA6C97F82800294602F0F5
:205BD8009FFA3A6D97F82C0046F2020102F098FA04F016F9C6F85801204601F07BF8174AAE
:205BF80006F5AE700421234606F02EFC6D46284607F07CF8387A7968114A2B4600940190B6
:205C180006F1140005F0E4FA06F17C00002106F0B1FD06F58070002106F0ACFD3868D7E94B
:205C38000C121060486062E723D900000CDA000087A10000D0010010026000204DCC000047
:205C5800A54E00002DE9F84FD0E900B7984616468946054613B10020C8F800008EB106F03F
:205C780080FF824607F036F904469BF8070060B19BF8E80078B107F050FA6FF00800BDE8B9
:205C9800F88F6FF00900BDE8F88F07F046FA6FF00E00BDE8F88F00200121CBE93B96CBF877
:205CB800F460CBF8FC008BF8E810CBF83C008BF80D008BF80B000BF580700021009007F089
:205CD800E0F9384607F054F9BAF1000F02D19BF8050070B3284601F0E7FF07F01EFA9BF8E2
:205CF800050068B90A99009807F0CBF910B101208BF80D00284603F065FA00208BF8E800B3
:205D1800B8F1000F1CBFDBF8FC00C8F800009BF80B0030B100208BF80B006FF00D00BDE80B
:205D3800F88F9BF80D00002818BF6FF00C00BDE8F88F07F0F2F9D5E9007497F84400C006E1
:205D580015D5D7F840C0BB6C284610210022E0470DE0D7F8FC00314609EB0002204605F0E3
:205D780073FDD7F8FC10361A0144C7F8FC10002EEFD1204607F022F80028FAD0204607F0AC
:205D9800EBF897F84400800605D53C6CBB6C284620210022A0470020B8F1000F87F8E8000F
:205DB800C5D0D7F8FC00C8F800000020BDE8F88F2DE9FC4FD0F8C080D0F8D0C0D0F8E820CE
:205DD800D8F80030C346E6469C4511D3D8F814B0BBF1000F00F0898090F8FC3005244FF04D
:205DF800000E002B08BF0124DBF800308BF81040A3EB0E05A2F1080AB5F5806F28BF4FF487
:205E18008065D0F8D82032B101F1200301F12402C0F8DC5005E0C0F8D85001F1180301F10D
:205E38001C020026BAF1000FC8BF0126DBF8044012681F68CDF800E07CB1354B53F8263093
:205E5800BB6005FA06F30126BAF1000FC8BF02260EFB06332344013B05E02E4B53F82630A3
:205E7800BB6000F1F6033B6043F6F0740191D1F8009004EB0516264009F1080EC7F804E0BF
:205E9800BC683443BC600024BAF1000FC8BF0124DBF808709FB16146DFF87CC05CF82430AC
:205EB8008C46936005FA04F30124BAF1000FC8BF0224009901FB043139444C1E05E015498F
:205ED80051F8241000F1F40491605460C2F800E0916831439160C34504BF05EB0C01C0F827
:205EF800D01090F8FE10019A09B1BDE8FC8FD9F8241041F00301C9F82410D0F8CC00D2E911
:205F180004124068114300688162BDE8FC8F00BF8CD9000094D900009CD900002DE9F04789
:205F3800012816D1DFF830A1DAF83401012813D10220CAF8340105F051FF0120012405F0E4
:205F580047FE60B1CAF8344106F0B4FB4FF0FF347FE06FF001047CE06FF0040479E09AF814
:205F78005A419AF859119AF85801002C18BF0124002918BF0234002818BF0434012006F0DB
:205F9800B5FF013818BF01209AF83811B1FA81F1490910EA010902D1002001F0EBFCDAF819
:205FB80008002E4D10F0010807D12D4F286A8168384688470428F9D00646404607F057F814
:205FD800B8F1000F08D1012E04D1286A012142682348904706F0B2FE28684169204688475F
:205FF8009AF8540118B14FF4806006F085FF9AF8530118B14FF4816006F07EFF1948012173
:20601800016003200021CAF8340117480160204604F0C8FD0128FAD1144E3068042005F0E6
:20603800D7FD044612480125B9F1000F0560306802D1012001F09EFC07F037F8082005F032
:20605800C7FD0443CAF8345118BF4FF0FF3406F031FB2046BDE8F08700000020B801001000
:2060780000400340282008600C2008402C2009400C4009402DE9F047DFF83491D9F840A09D
:20609800BAF1000F00F088800AF10C020820FF2151FA80F0C3B21B1A18BF012312686AB1F0
:2060B80063B11388A3F60303012B01D90432EFE7DAF8100092E8FA003830FAC0DAF80820F6
:2060D8000025DAE90A10CAE90A55B2B110F0E2440CD021F00F0220F0E2434FF0000852EA55
:2060F800030005D006F0C0FEB04701E08846044606F0BAFE42462346B04706F0EBFE04464D
:20611800B9F8560001306FF31F30A9F856004FF6FD70AAF8300009F140008AF8335006F0CE
:2061380035FA204606F0F3FFB9F85600B9F85410884231D11F48204940680D6830B190F88C
:20615800FC200720002A08BF052000E005204C6803F0ECFB55B195F8FC00002100284FF024
:20617800000008BF286885F8FC1000E0002044B194F8FC200021002502B9256884F8FC1074
:2061980000E00025A84288BF0546681C04D02DB9BDE8F04706F076BBBDE8F08706F0AEFF66
:2061B800B5FBF0F10548BDE8F04706F04BBC00BFFC0300206002002098030020B08700209E
:2061D8002DE9F84F4FF00054002A994616460F46804618BF4FF080444D1C06F07BFE8246BD
:2061F80035B140463946002204F020FD07460FE03C48816C11B10969414506D0C16C11B13D
:206218000969414503D0876B02E0876C00E0C76C37B197F93300B0F1FF3F03DD04245BE0F4
:20623800032459E0DFF8BCB00A9DDBF84800874218D0DBF84C00874229D0404639464A46BA
:206258002B4602F0B5FE0028E8D02748017E012941D0007E04283ED024482549283006F027
:20627800A8FF38E0DBF848000022234605F04AFF06F036FE1F48002E18BF00F5803006F032
:20629800D9F9F5B1DBF8480006F0ECFE0CE006F027FE1848002E00F100501CBF0120C2F2ED
:2062B800024006F0C7F965B1DBF84C0006F0DAFE38690E49086291F8240040F0010081F812
:2062D8002400B9F1000F06D0DBF83810404601222B4602F06DFE8324504606F018FF2046B1
:2062F800BDE8F88FFC030020600200209803002002000040010001042DE9F041054688009C
:2063180058BFBDE8F0810020002403F05FFF3D493D483E4FCC61086040F60A008846B88729
:20633800FC8797F8480000F0F00087F848003C6497F8490000F0F000013087F84900284685
:2063580002F0EAF8AC68012021460E46496849B10A88A2F60302072AF7D800FA02F212F097
:20637800830FF2D0707B00F0F000707307F13C0070602748806B28B1C0680088A0F6030083
:2063980002281AD3284630F8381FB1B10021E9636987386495F8440095F8451000F0F000F3
:2063B80085F8440001F0F000013085F8450097F8490000F0F00087F8490006F027FC15483A
:2063D800F86197F8250030B105F088FE0028FBD004F03EFA0BE0012006F088FD012806D097
:2063F800707B00F0F000013070730B48F86100202146C8F81C00C8F800400120BDE8F041A0
:2064180006F088B90010044001010E0460020020FC030020394000005DA6000082B002F084
:20643800F7FC002869D044483D4C3E4F404EDFF8F88000250DF1060983463C48824606F034
:20645800CDFD10B106F0D0FDC8B12046FF214A46ADF8065002F074FE88B1BDF8060070B1D3
:20647800062806D3204606F0B9FC40F0100010283DD1BDF8061020460122FEF719F878781C
:2064980040B17988404601F0A3F950467D7005F047FC28E0387830B30820BB8801210022DA
:2064B8000090304604F0DEFF42F25C400E21F0802048C6F80A00B8887072000A307230460A
:2064D80001F086F9B888012101306FF39F30B880072006F003FC4CF2503005F021FC072025
:2064F800002106F0FBFB584605F01AFCA7E7BDF80610204606F09CFDC1E7084C072001213B
:2065180006F0ECFB204605F00BFC0720002106F0E5FB204605F004FCF0E700BFA0860100EE
:20653800008100205C060020F07A002020A10700688A0020DEADBEEFF07E0E002DE9F043BF
:2065580087B0DFF8FC8081462025EFF3118085F31188D8F838501DB180F3118800256AE068
:20657800C8F83890374F80F311880020C9F80C104FF48031C9F81C20002BC9E91200C9E95A
:20659800080118BF1F46D7E90116C9F81810397B012905D1C9E91060C9F8146030460DE070
:2065B800294A002031460023002506F04DFBC9E910012649C9F814008E423CD80021DFF850
:2065D80090E0C9E9160197F800C0C9F85410BCF1020F08BF0146BCF1000FC9F8501001ABA1
:2065F8009EE8F5001946F5C108F124001A4ACDF808900090174808BF024609F128001421C0
:2066180005F08EFF05462020EFF3118180F3118881F3118899F8100010B9484604F060F983
:2066380035B108F13000494606F080F94D4602E00025C8F83850284607B0BDE8F08300BF57
:20665800F001002040D9000040420F003F420F00BCD90000D9B2000035CE00001EF0040F93
:2066780014BFEFF3098169468869A1F1480214BF82F30988954621ED100BF1EE102A41F818
:20669800082DEFF3118102B400B5DFF8D8E0F047374A1268116801EA000010605DF804EBF5
:2066B8001EF0080F09D101BC80F311885DF8080BE1EE100ABDEC100B704704BC1EF0040F4D
:2066D80014BFEFF309816946A1F1200114BF81F309888D464A604FF08070C86125488861FE
:2066F800234B1B681868086040F201101860704702B401B4EFF3148100291CBF002282F3BA
:20671800148802B402B4DFF860E0F04701BC01BC00281CBF022181F3148801BCDFF84CE09B
:20673800F0470F484FF08051016001BC80F3118800BF00BFFFF7FEBF1EF0040F14BFEFF372
:206758000981694601F1200151F8080BE1EE100AB1EC100B14BF81F309888D46704700BFB7
:2067780004ED00E01D9A00006FD1000075D10000B0DA0000086700002DE9FF413B4E96F88D
:20679800420100286AD1012086F8420106F0BAFB374F86F87001374D7868C6F86C01387BF7
:2067B80086F84101A86810F4402F13D1386988B128686421C0F3066000FB01F406F09EFC12
:2067D800B4FBF0F22C4906F19400002305F058F906F0ACFA01AC204606F030FC2749A84678
:2067F800002506F10C00002206F030FB204606F025FC234906F15000082206F027FB214A39
:2068180006F1D8003221002304F0E2FC1E4C1F4A06F1F4002C2100232560454604F0D8FC43
:20683800D8F80800797BC0F3815021B1032804BF012186F83911032803D040F002000228EC
:2068580010D1206840F040002060022005F048F96868400702D4002005F042F9002004B05E
:20687800BDE8F08104F0A8FEF2E700BF00000020D4D90000AC4F00509DCE00008FB70000EF
:20689800EDAE0000B199000090220840AD5700002DE9F8431D46434BDDF8208043F6060601
:2068B8001C68038814F0007411D0B34227D0B3F5C15F33D040F60206B3423ED100F1120359
:2068D8000B604169116081692960C1692EE0B3420AD0B3F5C15F03D040F60206B34203D1FE
:2068F80000F11203143002E000F11A031C300B600068106000202860C8F800004BE000F133
:206918001A034FF000090B60C1691160016A2960416AC8F8001000F118011CE000F1120379
:206938000B6041691160416A2960816AC8F8001000F1100190F80F900DE000F11A030B603B
:20695800C1691160816A2960C16AC8F8001000F1180190F82490286868B10E8806F07DFA23
:20697800042808D8074606F00701484603F0D0FB296841F82700D8F8000060B106F06DFA2D
:20699800042808D805464846FF2103F0C1FBD8F8001041F82500002C18BF01242046BDE8BA
:2069B800F88300BF941200502DE9FE4FD0E90085994614460F46834613B10020C9F80000F2
:2069D80074B106F087FA064698F8070058B198F8E80070B1304606F09AFB6FF008046CE0C6
:2069F8006FF0090469E0304606F091FB6FF00E0463E000200121C8E93B74C8F8F440C8F8C8
:206A1800FC0088F8E810C8F83C0088F80D0088F80B002846019506F0ABFA304606F077FB59
:206A380008F1D0060DF1080A06F054FA04463046514605F0BBF9D8F8F450D8F8FC10A84241
:206A5800394438BF054602982A4606F0B9FB3046294604F0CDFDD8F8F400D8F8FC10401B0D
:206A7800C8F8F4004819C8F8FC00204606F04FFB012D03DBD8F8F4000028D5D106F02AFACF
:206A98000746D8F8FC0050B1019806F071FA584601F00AF9D8F8FC0010B1002402E0002085
:206AB8006FF00F04B9F1000F18BFC9F80000002088F8E800384606F02AFB2046BDE8FE8F42
:206AD8002DE9F84F3C4C3D4E3D4D42F62A294FF0010A4FF0030B00274FF00508D4F83C0106
:206AF800062833D8DFE800F00433183B203D4B000F20F060C6F8109004F0A6FB45F804ACFD
:206B180055F8040C8007FBD5C6F81CA094F8390190B10120EF6210E02F60C4F83CB12868FE
:206B38008007FCD40320DBE72F60C4F83C8128688007FCD40520D3E70320C6F800B0C4F8E6
:206B58003C012F6029688907FCD4C9E7FEE70126022084F83A6104F0DDF92E6009E0022008
:206B780000E0032084F83A01002004F0D3F90120286004F15000BDE8F84F06F0FEBA0020BB
:206B980045F8040C286055F8040C8007FBD428688007FCD40B480025012105600A480160BC
:206BB8000D2001F00DFC022004F000FEC4F83C5184F83B51BDE8F88F0000002000400C4059
:206BD80058600C403C500C4004800C40B0B50C46880722D4600758BFB0BD354D0120A8700F
:206BF800042004F07DFF33480068006B8047E8602D48806BF0B16968046961B1A1420AD07E
:206C180094F82800400704D5636A2046042100229847012060766C600DE0FFF72BFA2248FA
:206C3800006CE0B3214844F002012830BDE8B04006F0BFBA6C6860681F490078086002203B
:206C580004F04EFF102001F0B3FA012028761B48807810B90D2001F0ABFA6868416818488E
:206C78008A680AB9C96821B100218160154940F8141C154907220A600168002101604268F6
:206C980041601249124AE9610168114301601A2006F079FA1920BDE8B04006F074BABDE8E2
:206CB800B04003F049B800BFFC03002098030020600200208C010010D02108401CDA0000F1
:206CD8001410044051000706000004601163000002400040FEB5D0E9005401A805F0EEFF31
:206CF80095F834003649374A384E085C95F83510515C354A084395F83610515C2A6B40EA49
:206D18000103316820684F680299B847206840F2F272E1692E4B2F4F426494F854209A5CEA
:206D380094F85530FB5C1A430129426311D10146D4E90A2351F8307FFF2A27F4004718BF3A
:206D580007F50047FF2B0F6009D00A6842F4804208E0014651F8302F22F400420A600A68F1
:206D780022F480420A60C16A41F01001C162016B41F001010163E16B09B3A16BF9B1012146
:206D980005F0CCFED5F85801E16B40680068C162C0F8041591FAA1F17268B1FA81F15368D7
:206DB800022298477068A16B02224368D5F8580191FAA1F1B1FA81F1406800689847FEBDFB
:206DD800ACDA0000A5D7000094DA0000D00100109EDA000099DA00002DE9F047A4B006F0C8
:206DF80079F833490A78012A04D124B0BDE8F04706F08DB94FF0010981F8009006F087F958
:206E1800FFF7BAFC082001F0D3F921AC204605F06DFFDFF8A0A0294A10212346DAF80C0033
:206E38002290254804F0D4F92548002501AE0478244890F800804746A74213D8DAF80000F6
:206E580050F8271021F0FF0046F82700880707D4F8B201F0010105F041FF09FA07F00543A8
:206E78000137E9E7184805601848C16801F44001B1F5800F07D10068000E56F8201041F03C
:206E9800070146F820101248A4EB0802042306EB880103EB820240EA880006F091F90D48D7
:206EB8002022016862F30D21016024B0BDE8F08784060020FCD90000188A002035AB00001A
:206ED80021D90000A7D70000D0200240A84F005000100840003009402DE9FE4F4FF4804072
:206EF80005F014FFA0B1354C35496068D1F8132009786FF39F5201F00401806842EA4171CE
:206F180001AA00F06BFE60688168012005F002FC2E482C4F2C4D44F2020B00244FF0000A76
:206F380000F14009BAF1020F3CD055F82A80D8F80000A0B3D8F80000806905F0E7FE06463E
:206F5800D8F800000023324605F0DCF816F00A0F1ED0D8F800008069B9686BEA0000084061
:206F7800B860D8F80000C069396821EA000038601020D8F8001005F0CDFBD8F80010484669
:206F980005F0D2F9002044F00204C8F8000006E02EB1D8F800000D4944F4804408650AF1B0
:206FB800010ABFE724B10A482146283006F001F901F076FDBDE8FE4FFEF760B8600200204D
:206FD800850300210C10044064DA0000FC03002098030020F8B5044605F078FE074645681C
:206FF800204605F0EBFDB8B1D7E9014605F072FF0546D4F8C000B8B104210174384601F017
:20701800CFFBD4F8C800B0B1014640690028FBD1D4F8C000486112E005F05CFF0446D5F827
:20703800C00078B3103034E03068416821F002014160284630E0D4F8C000C4F8C8004169CB
:2070580000274761C4E93477C4E93677C4F8C01031B320463146FEF7ABFED4F8C000C4F864
:20707800E0700068B0F5806F03D920463146FEF79FFE94F8FE0010BB3068416841F0020197
:2070980041601CE095F8FB00002104F011FD05F1FC00012101702046BDE8F84006F037B8E3
:2070B80094F8FB000021C4F8C47004F001FD012084F8FC003068416A21F00301416228462C
:2070D80006F025F804F13000BDE8F84006F073B82DE9FC4706680446707A00286BD0D4F838
:2070F8000490D6F85801D0F80480D9F83470204602F0F2FC706F20B306F14C05284606F058
:2071180050F8316F884221D2307902281ED0B06E002850D0204602F0DFFC346F284606F051
:2071380040F8201AD6F868A0B46F7067284606F038F80021F1740AEB040108440190706F25
:207158000CE0B06E10B1306F0028D5D106F14C0001A904F02BFE01217067F17458B300214B
:20717800B0F5806FB17384BF4FF480607067012301990144013979601049B96043F6F071E0
:2071980001EB00100840B9680843B860D9F83C10D9F8000091FAA1F2B2FA82F203FA02F2F2
:2071B800D8F800309A61D6F85821526812689162012105F0BFFCBDE8FC8700BF0180000C08
:2071D800B0B58CB0344D687808B1012456E004AC204605F0B5FE0821002009912F492870D0
:2071F8008DF828008DF810008DF81C0000200891214603F0AFFE686078B32949142005F046
:2072180083FF1420012105F069FDAB200021012200248DF80F000DF10F0004F03DFA00B371
:20723800012001F01BFD04F043FB00B36FF06000002404220290019402A801A904F02CFA89
:20725800F8B19DF805009DF80710C22808BF142919D02873697350200AE010200024287093
:207278000CE020202870686805F063FF05E030202870686805F05DFF00246C6020460CB00B
:20729800B0BD4020EEE74FF480100124A86041F2C2406C70A881F1E7F005002000093D00C7
:2072B800016400202DE9F0418EB004464A1E002012F1030F0AD809AA0490029107922F4AF7
:2072D80006928DF814000222684600E003220C908DF834202020EFF3118680F31188608A6A
:2072F80030B1608A01386082012086F3118842E000293DD02248012104F1140790F8088059
:207318000172806909AD45620B9004F033F8A06909970A900560A5619DF83400022808D168
:2073380018494A680C98016042601060486001F04BFC86F31188404604F03AF82021EFF34A
:20735800118081F311880C9939B10A684B681A604A6809684A6000210C910B9900224A624C
:2073780080F311889DF83400002818BF012002E086F3118800200EB0BDE8F08135BA000029
:20739800A4040020300300202DE9F84315460C46804602F011F82C4800212D4F01602B4816
:2073B800814600683868816927208847294E2A49306B08403063B06F20F48070B0673868AC
:2073D800016B4FF4806088473868016B4FF4816088473868016B4FF4C06088471F48012171
:2073F80001601F48C6F8804131600168890704D4691C08BF4FF04045C560D9F80000F0696D
:207418008007FCD5072003F0ABFB0228FAD1B8F1000F13D1134C386A816820468847042860
:20743800F9D0012804D1386A0321426820469047D6F8180220F00300C6F818023868806B62
:20745800BDE8F843004700BF0C4009402C200940B80100100C200840FFFFFEFE282008601D
:20747800100009400040034070B52039062918D8DFE801F01A23042D3840480014780022E7
:207498002321FF2CF1D0D0E9015695F8FB0003F081FE726B2B49204685F8FB4000F030FE0D
:2074B80049E06FF001044AE0406890F8F910012943D1012180F8FC103DE0456800210024D1
:2074D80095F8FB0004F0F4FA85F8FC4037E0446894F8FB00FF282ED003F05CFEFF2084F81A
:2074F800FB0028E04068D0F8C01031BB012180F8FE1020E04068D0F8C010F1B9002480F817
:20751800FE401CE04168D1F8C020B2B191F8FE209AB180680268D0E90430546A184344F0E6
:2075380003045462D1F8CC10496809688862506840F002005060002401E04FF0FF3420464E
:2075580070BD00BF026000202DE9F04389B0FFF743FC2649072005F0D7FD254C07200021D6
:207578000025A0471C200021A0471D200021A04703F0A0FB03F0C0FB6C46DFF8789020462B
:20759800C8471D48DFF878804FF40066022721460022CDE901550596039704901748C047FA
:2075B800184908602046C8471748214600220596CDE90155CDE903701448C0471449086095
:2075D8002046C847134821460022CDE9015504904FF400700590012003900F48C0470F49E8
:2075F8000860002009B0BDE8F08300BF00600020F5CC00003DD00000205B002035640000D9
:20761800A9AE0000888A00202063002061AA0000948A0020F07400206DB10000988A0020F9
:207638002DE9F0438FB00C46002730491546814624229846009703A805F0C2FD6B460020AB
:2076580050210022C9F8007003F0D0FE002848D0074627484FF40071002C07F1480681608A
:2076780008BF04460021D4E90032A0680792002A4FF0000208BFE268FE64F963C7E90D51E8
:20769800F9627964BB6023691044002B18BF01233B63BE644FF0FF33089001200C91CDE93C
:2076B8000D11CDF82880CDE9045700218DF83000069307F110000CAA04F074FD0D4803A983
:2076D8006A4603F0E5FBF86040B14563C9F800702168F86800F05EFC002003E0384604F045
:2076F800D5FB0C200FB0BDE8F08300BFA0D80000B8050020B1CC0000F0B5314A046A516BC4
:20771800137D0C61446A01F1200C032B0B704C61846A8C61C46ACC6190E8F000ACE8F00010
:2077380000F1400400F110074C64F0CF01F1300CACE8F000046B0C64446B8C64846BC06B3B
:20775800CC6408650BD8DFE803F0020D1016156DC4B2106C936C55F824404C600FE00020C3
:2077780000230CE01748C06D06E0174880694860D0E90A3003E000204860106C936C926B6A
:20779800C1E9020332B12BB110F8014B013B02F8014BF8E70D4802684A6590F824208A6585
:2077B80090F82520CA65C28C0A66826A4A66C26A8A66026BCA66426B0A67806B4867F0BD3D
:2077D800C8020020F0010020A404002004ED00E0FEB5304E05463078012804D11DB10C46BB
:2077F80009B1FF2C02D900242046FEBD7078012807D1B0684FF0FF31012205F017F90020B4
:207818007070254F29462246781C3C7005F0D8FC012005F03BF92149601C00250022002382
:20783800CDE90055C873087B4F6100F0F0000873B06804F02EFD10F0020F0446757018BF0E
:2078580005F0DCFA0020C4F3400405F01FF9B06801F0F2FB42F2107004F062FA01F06AF9CF
:2078780020B141F2883004F05BFABDE70C4D0426002EF6D00720012105F030FA284604F006
:207898004FFA0720002105F029FA284604F048FA013EEDE720060020007F00208C050020DA
:2078B8008038010070B52548066804F003FC24480025244C0560206C806C8047224800688D
:2078D80038B122480068B6F1FF3018BF304600F0C7FC1F4840F2391205601E48016862F392
:2078F8001B4101601C48016801F44051B1F5805F06D10168194A114001F5003202600160FC
:20791800174D0126EE612068016A142088471548016841F4E021016013482E60006800F4DD
:207938004000B0F5000F03D1206C416C0F4888470F4801680029FCD170BD00BF1C130050E7
:2079580084046042B001001080012843800520438C2108404820034028000940EFFFFCFC59
:207978000000244300200940B44F0050BD3786000C00684270B5F8B1012858D1012005F066
:20799800B5FA012853D02D4C94F8380100284ED12848294E0569306810F4402F30D17DB3BE
:2079B80004F078FE502005F0B5FB0120A84704F1940005F0E2FB25E005F0E9FB1E48006819
:2079D80010F4402F0AD11B4804693CB11B48943005F097FB04F04EFE0020A047174C94F8A0
:2079F800380120B31648016821F08001016080218160032003F0DAFE002084F8380116E06E
:207A180005F0C9FB012084F83801306810F4402F00D14DB9207A800606D409488021816010
:207A3800016841F080010160032004F059F8002070BD00BFD4D90000B44F0050000000201E
:207A5800902208402DE9F84F1E4614460F46814605F040FA804604F04DFE00284AD005461C
:207A78002848DDF82CB005F04CFBDFF89CA0274A0A9B4FF0FF31BAF854001A400232013034
:207A98006FF31F30AAF854000020AE6085F83240C5E90379C5E90F100BF0200185F8440036
:207AB80085F838006863C5E90800C5E906218022BAF85410A5F85000C5E9120085F833206E
:207AD8002986397B01F00F01022904D1012185F83810B968696389F8FC000AF13800294637
:207AF80004F022FCDAF83800A84208BF02F024F92C8E01E04FF6FE74404605F008FB20B2F0
:207B1800BDE8F88FB0870020FC030020FDEFFF9F2DE9F8432020EFF3118980F311882C4894
:207B38000068006B80472B4E4FF000082A4F012286F85D8086F85C20D7E9104522462B46F4
:207B580005F082F8A0FB042300FB053301FB0431746DC7E91221B168B268611A821A914297
:207B780005D986F85C8089F31188BDE8F883051B89F311880020854206D304442D1A0120DB
:207B9800214602F005FAF6E72021EFF3118781F3118896F85D1019B10020214602F0F8F9A1
:207BB800411C05D0411BB06D814238BF084600E0B06D011904F076FF002086F85C0001205F
:207BD80086F85E00B46087F31188BDE8F88300BF8C01001030030020F8860020F0B585B043
:207BF8000D4600211446CDE90311CDE9011101A9009104A903AA02ABFEF74AFE029F002FBE
:207C1800394618BF0121019E0140002E324618BF01221140002D10D411B3049840F22B2114
:207C380005806FF39F5538462A4604F055FC0398314601F01DFF676010E0C9B104984FF0F3
:207C5800FF316FF39F552A46018030462B2104F043FC0398314602F03DF8666015201EE06E
:207C7800C8B104984FF6FF720188914214D110E078B16FF39F5503982B212A4604F02CFCFE
:207C9800FF2806D004984FF0FF3101801420656005E0032005E00498058065801020208087
:207CB800832005B0F0BD7047F8B505680446D5F8F80000B1F8BD68796668022807D105F1BA
:207CD800D000694604F073FCC5F8F80009E0D5F8EC10D5F8FC20D5F8F4001144C5F8F8008F
:207CF80000910028E6D031688A6B22F400628A6395F84410C9060AD52F6C47B1297A31B95B
:207D1800AB6C204610210022B847D5F8F800B0F5806F84BF4FF48060C5F8F8000099336BD1
:207D380001444A1E3168B66B1A600E4A9A6043F6F07202EB001010409A6810439860D5F8F6
:207D580058014068006886620846022104F0F2FE287A0028AED120460121012604F0ACFAD3
:207D78002E72F8BD018000C02DE9FC412A4D95F86100002844D000240026602C40D095F8EE
:207D98006100F040C00702D120340136F5E7112095F8618000FA06F705F09CF895F861101C
:207DB800B94385F8611005F0B2F9281928D0817A31B31021194A2C59B14011EA080190F972
:207DD800091052F821804668CFB209D001F030FB002079B200224FF00073009020460EE060
:207DF800017A022902D1C17CC90601D401F020FBCDF8008079B2204600224FF00063B04774
:207E180095F8610028B106480021BDE8FC4105F0D0B9BDE8FC8100BF908600209430044095
:207E380038880020002850D02DE9F8432021044605F058F904F0DAFF206024484FF00008E0
:207E5800017842788368C4F80630C368C4F80A308388C5880669627121710022C4F812605D
:207E7800E38125824169C4F816108178A1760321C078E076002004F0CDFB1548154F395863
:207E9800814603208847144E05F0E2F80546386840688047002003210022A58304F0BAFB4F
:207EB80057F809100520884705F0D2F80546386840688047A8B241F2CC01484340F6FF71AA
:207ED800B0FBF1F0E083BDE8F84370475C050020A8FEFFFFE40100101C900C4070B50129A3
:207EF80053D00446002942D128480121057A01722021EFF3118681F3118894F8201003298E
:207F180016D002291BD0012929D12168E26C636819606168236859601168914204D1A169D6
:207F3800C26822EA0101C160606AC0B1C0680FE020686168086060682168486012E0616A0F
:207F580069B10A68C8684B681A604A6809684A6028B10168426811604168006841602046DE
:207F780003F0B6FB86F31188284603F021FA216B481C0AD006480029806818BF0846D4E9AC
:207F98000A214368BDE87040184770BDA4040020F00100202DE9F0412B4B012702462024C8
:207FB800187A1F72EFF3118C84F3118854698C4202D18CF3118841E01D6A002907FA01F7B7
:207FD80005EBC10648BF03F12C0648BF002792F82050012D26D1D2F800E0D2F84C8055685B
:207FF800C5F800E0D2F804E01568C5F804E0D8F80050454505D1D2F818E0DD6825EA0E0557
:20801800DD609D699542354601D1DE613568D5F804E01560C2F804E0CEF800206A60DD684C
:208038003D43DD60B1F1FF3FD66497615161DCBF0021D961012119748CF3118803F0B8F946
:208058002046BDE8F08100BFA404002070B505F028F804F05DFF04F061FF044600F00C00E1
:208078000C2803D100BF00BF30BF3AE060071DD403F030F805464FF47A70012105FB00F656
:20809800012004F0F1FB864210D91C4C04F10C00656104F087FD00BF00BF0120FDF73EFF9F
:2080B80000BF00BF002084F820001CE000BF00BF200715D40E4E0F4D30688168284688476E
:2080D8000428F9D0B0FA80F004F01001400940EA111005F05EF8084801210160006800E07A
:2080F80030BF00BF00BFBDE8704004F0DEBF00BFD8010010004003402C2009400000002035
:208118002DE9F84FFF2831D0264B0C4605464FF4BE21AF0004F0020843EA80004158C9B224
:20813800914227D121489A464FEA142947EA0006834604F0CFFE0BF10101220C86F80090A2
:2081580039430A7046F00201220E0A7004F0DFFFB8F1000F02BF45EA0A0004F00101017043
:208178001148012181EA5801384316E04FF0FF30BDE8F88F00F5BE2024F0FF0162B9B8F1F2
:20819800000F02BF2B4304F001041C70064B012484EA58043B431C60114301600020BDE850
:2081B800F88F00BF00200240001A4442011008402DE9F041254E0546371804F08BFE0446EB
:2081D80097F84A01411C87F84A1128B1204604F09EFF0020BDE8F081DFF8748018F8257000
:2081F80007F03F00142898BFFFF7E2FF08EB8500458878B2B0F1FF3F0CDD78061FD41548C2
:208218000068416928468847284602F0CBFC0128FAD1DBE70F4E3068C16928468847306826
:20823800416A284688473068C16A284688470A4801210160094801688907FCD5C6E706EBB0
:208258008500D0F8601101208847BFE70000002028D80000B8010010282008602820084089
:20827800F8B505462248234E4168890705D40168F02242EA114186F84D101F494FF0012263
:208298001F4F0A601D49098839680968846820468847A00105D4E00103D5307840F00200B7
:2082B80030703868214642682846904703F0EEFE1448154A0068C0F305311170C1054FF09F
:2082D800130158BF232140237354382101EA901000F56050A2F85C003868816820468847B0
:2082F800022003F0F9F8094801210160F8BD00BFAC4F00500962084004A40C4000A00C403A
:20831800F00100100C1400500EB00C40940460428B4208BF824207D9009A002A01D0106053
:208338005160002100207047002B08BF002A10D1009A002A01D01060516002000B0000219B
:208358000020002B08BF002A1CBFC943C04302F0C2BBF0B51C4615460B4602460020002134
:20837800B4FA84F6202E04BFB5FA85F62036B3FA83F7202F04BFB2FA82F72037F61BB6F1BF
:20839800200727BF05FA07F400257F42B4403EBF25FA07F73C43B540A34208BFAA4201D3EA
:2083B800521BA341404149416D0845EAC4756408761EF1D5059F002F01D03A607B60F0BDE0
:2083D800F8B5254F05463E1804F084FD044696F84A01013886F84A01000637D11F4810F9AB
:2083F800251000EB85004588CEB2B1F1FF3F0CDD70061FD41A4800688169284688472846E2
:2084180002F0AEFB0228FAD11AE0154F3868016A284688473868816A284688473868016B3A
:20843800284688470F48012101600F4801688907FCD505E007EB8500D0F860110020884768
:2084580006F03F00142898BFFFF7BAFF204604F05EFE0020F8BD00BF0000002028D8000023
:20847800B801001028200860282008402DE9F041002918D41F4615460E46044604F0D0FB62
:20849800804620463146802202F0D0FB20B1064690F9330000280AD4404604F08EFE0021BC
:2084B8000220BDE8F08100200021BDE8F081D6E9080145F00A0547F0E0472840394008437F
:2084D80010D0404604F079FED6E9082303EA070102EA050042404B40C4E92C01C6E9082322
:2084F800BDE8F081B1680B48814203D0B168C4F8A810B0604046C4E9285704F05EFE04F1B8
:2085180050004FF0FF3104F0BCFDD4E92C01BDE8F08100BF459F000010B586B00146427E32
:208538008068002343F606040593CDE903330293438003881C1B022C10D3B3F5C15F03D08B
:2085580040F60204A34212D1038A002A23F4FE6312BF038243F43472028208E0038B23F48C
:20857800FE630AB1038302E043F43472028300224A7602A9009105A904AA03ABFEF788F95F
:2085980028B105984FF6FF71008888420ED0049C0299204601F06CFA0748016821B1204680
:2085B80006B0BDE81040084706B010BD049C0299204601F08FFBEFE734060020F8B51546D2
:2085D800044625480E461168D268AF690068002F18BF3846216120636261D5E904210029ED
:2085F80008BF4FF4007162B1D31D11444FF0FF3023F007032063C91A21F00701C4E90A13BC
:2086180008E00731082221F00701A16202F0EEFEE062F0B1D5E9010104F13803EA6966630F
:2086380007C395F8200084F8480018B10B4841690131416100206065204600F0ADFF08B1AD
:208658000230F8BD054804F1080104F06FF90020F8BD0120F8BD00BF908A0020A404002008
:208678002DE9F84F00248046002100220460684600F05AFC204DDFF884A081464FF0FF375C
:208698004FF0190B0020602C1ED02A19917AB9B1107A022816D0DAF80400418B006908441C
:2086B80095F8621011FB0B01506903F051FB064604F024FDB6FBF0F0B84238BF0746012042
:2086D8002034E0E70120002709EA0001012904D10099B94238BF0F4606E0B9F1000F01D0DC
:2086F800009F01E0C10701D0C8F8007040EA090000F00100BDE8F88F908600206002002011
:208718002DE9F04FC1B0824624484078012808D1934632B10D4621B105EB0A00B0F5801F6E
:2087380004D90026304641B0BDE8F08F6846002400F10409B5FA85F04609002DF2D004EB72
:208758000A085FFA88F0C0F58077BD4238BF2F4602F040FC0028E5D002200BEB04013A465F
:208778008DF803808DF800004FEA18208DF802004FEA18408DF80100484604F021FD3A1D4E
:208798006846002102F088FF0028CAD003F090F80028C6D0ED1B3C44CCE700BFF00500206F
:2087B800F8B5D0E901650446287904F0EAFCD6F8CC206969286852681268D16296F8F930D6
:2087D80013B9C368DB06FCD4436823F0020343602B69D3621943476A27F003074762C2F819
:2087F8000415416921F00101416101210162D6E93512D6F8C00001604AB1EB699B68C3F367
:2088180009139A4203D91144DA4311440160D6F8DC204AB16B6A9B68C3F309139A4203D91D
:20883800DB431A4411440160204601F031FF287903F0E0FE2879BDE8F84004F0A4BCF8B576
:208858000446FD201D468DF8030020461E68324600F0DAF810B101208DF803009DF8030086
:20887800FD2815D1A6B1E068007B00F00F0002280ED13768204631463A4600F0C5F820B931
:20889800002F3E46F5D1002602E002208DF803009DF80300FD2804D1E06B10B104208DF84E
:2088B80003009DF80370042F0FD0022F06D0012F0FD12846214603F049FD0AE0326822B107
:2088D8002846214603F0D2FC03E02846214603F02BFD78B2F8BD704770B546680D46044611
:2088F80004F0F8FA317809B100242FE00121317004F00DFCA8883081286830B11549C1E9CA
:2089180000401549022004F06DF8D4E90160416803F055FB054604F0DDFA1049104A0A60E9
:208938000A68012AFCD00F4A8D500F4D327A737A013AB2FA82F252096A60B3FA83F20B4B93
:2089580052091A600122AA602A600A6004F0DFFB204670BD2C060020A1CF0000000C084092
:2089780051E5CC1A00F4FFFF00010043208300432DE9F04FADF5037D064622484078012899
:2089980007D114462AB10F4619B1B819B0F5801F04D900200DF5037DBDE8F08F01A84FF0F3
:2089B80000084FF0030900F1040A42A800F1040B37B308EB06003D468DF80891010A8DF84F
:2089D8000B01000CB7F5807F8DF809018DF80A11584628BF4FF48075FF22294604F05CFBF5
:2089F80042A82A1D01A902F057FE0028D1D004EB080051462A4604F0E3FB7F1BA844D7E760
:208A18000120C7E7F005002070B5B2FA82F3B1FA81F45B096409B0B312B190F844506DB3C1
:208A380089B191F844406CB3446B0E69096C05698908A408AE4214BFED6800252944611A4D
:208A5800B1F1704F22DAB2B1D168097B01F00F01022915D1516B0569006C14698008890843
:208A7800A54214BFE26800221044081AB0F1704F01DB012804DB0124012304E0002302E0CC
:208A9800012400E0002404EA030070BD00240029C8BF0124002AF6D00129D5DAF3E7704724
:208AB8002DE9F84F204E214FDFF8848000254FF0010B4FF002094FF0110A602D08BFBDE87B
:208AD800F88F7C192ED0A07A01282BD1607A41B20BFA00F01131C0B20BFA01F1CA43326019
:208AF80072681143716003F0E9FE04F11000002103F08AF9812809D1A06920B1002103F078
:208B180083F9812802D184F80A900BE0607A97F861100AFA00F00843002187F861004046A4
:208B380004F047FB2035C8E70810044090860020388800207CB51F4D2879F0B91E4C40F2EE
:208B580001101E494FF4866204230090204601F08FF80146002001B17CBD1949C1E9074020
:208B7800FF20CA7B087501202871887B40F00600887302F05400A330C873114C0026207B9C
:208B9800E17D668000F0F000207301F0F0000130E075002003F07AFF4FF40001A868094B6B
:208BB8000022CDE900162146FEF74CFF012068707CBD00BF20060020788A0020206B002004
:208BD8003805002095A200002DE9F041044680681F4F206297F85E00E8B197F85C00D0B986
:208BF8001C480068006B8047DFF86C80D8E910562A46334604F028F8A0FB052300FB063381
:208C180001FB0531C8E91221B9687B6DBA689A1A411A91420CD903F07BF901212175A2680B
:208C38001044E06097F85C0078B187F85D100CE001212175A2681118181A8242E16004D2A4
:208C58001046BDE8F04103F02DBFBDE8F08100BF300300208C010010F8860020002840D056
:208C78002DE9F0418EB01F490AAE002503904FF020080896059507918DF8185001A8012190
:208C98000D901948EFF3118788F31188047A017280690C9002F06EFB14494A680D9801604A
:208CB800426010604860FFF78FFF0C9846620B960A96204687F3118802F07AFBEFF311807E
:208CD80088F311880D990A684B681A604A6809684A600D9580F311880C9845620EB0BDE8FA
:208CF800F041704799C90000A404002030030020F8B5D0E90167054604F0ECF80446D6F8EE
:208D1800C00098B396F8F81019B9007C0338012831D82846FFF744FDD6F8C0000022022365
:208D3800016805463DB12F7C033F022F28BF2B742A606D69F6E73246016052F8C81F21B1BC
:208D58000A4649690029FBD1143210600020C6E93000C6E93400C6E93600204604F0D7F95D
:208D780006F13000BDE8F84004F025BA3868416821F0020141602046BDE8F84004F0C7B94F
:208D98002DE9F843DFF880900646D9F8000028B326B30024154612B3DFF870800F466B46A1
:208DB80004220094414603F013FCC0B90098042815D198F800000024222810D198F80100C5
:208DD80069280CD1B8F8020090FA90F8B8F1000F04D0B84598BFB8F5807F03D90024204657
:208DF800BDE8F883D9F800006B463146424603F0EFFB00240028F2D10098404504BFA5F851
:208E180000800124EBE700BF7C060020FC7C002070B58AB002AC204604F08CF819481A491B
:208E38001A4A2346FBF7DEFE194D0024A86028B3142002F0EFF8A868164900220023CDE99B
:208E5800004403F026FA002003F020FE012003262870114DFFF76EFE04467EB1072001210E
:208E780003F03CFF284602F05BFF0720002103F035FF284602F054FF013EEEE720460AB09C
:208E980070BD00BF007E002000060020E00400202006002074050020803801002DE9F04127
:208EB80086B0DFF8708098F8650078BB012088F86500C8F80480C8F8008003F087F916481A
:208ED80001AA114690E8F8000520F8C10490134808F11004124900F12403204601F024FC44
:208EF800C8F84C4002F0D6F80E48D0E9102347F69160101A73F1000031BF4FF0FF300020D2
:208F180047F6906103F0A0FEC8F8580006B0BDE8F08100BF30030020E8D90000F0010020B2
:208F3800297B0000F886002010B504461E4849B138300068B0B1C3681B7B03F00F03022B44
:208F5800F7D101E0806B68B102B11060C268137B03F00F03022B08D151B101698A8DC968B2
:208F7800114415E0002100201CE00120002119E012880169A2F60302012A4A8B8CBF0969B9
:208F9800496919231144094A92F8622012FB0311406B02F0DDFE206004F0B0F82168B1FB2D
:208FB800F0F10120216010BDFC030020908600202DE9F84F07461E4815460E46009300F1B1
:208FD80038094C4624680CB1B442FBD14FF0000A00F1400B44B32069D4F80080B84220D15F
:208FF800204600224FF0805303F08CF8009870B1204600224FF0807303F084F830690D4977
:20901800086291F8240040F0010081F824004846214603F027F85846214603F085F90AF1DB
:20903800010A002D4446D5D15046BDE8F88F00BFFC03002098030020F8B5044603F04AFF22
:209058001A4F05464FF0FF30386204F1B80004F058F8174EB6F85600B6F85410884210D125
:20907800144890F82400397E022918BF002808D0284604F04CF8072000F058FC03F02AFFEA
:209098000546B6F85600B6F85410884206D10A4804F037F8082002F0A3FB02E0012084F80A
:2090B800FC002846BDE8F84004F031B860020020FC03002098030020B08700202DE9F84370
:2090D8001E4A5278012A35D1A1B30144002401F6FF7240F6FF7122EA0106B6F5801F2AD8EB
:2090F8006FF00F0220EA01014FF02008E94602EA10270D46B14218D201F06CFFA8B1280C0A
:20911800002104228DF802708DF800808DF803408DF80100484602F0BFFA58B102F0C8FBAF
:20913800103705F580510028E3D10024B54228BF012400E000242046BDE8F883F005002063
:209158002DE9F047DFF87090064699F8000001282AD14EB314463AB399F801000F4610B9DA
:20917800FFF7E8FC00B399F8020008B307200121012503F0B3FD114802F0D2FD0720002188
:209198004FF0000A03F0AAFD99F803800C493046B84588BF5FFA87F8424604F011F8A4F8B8
:2091B800008089F802A000E000252846BDE8F08700252580F9E700BF20060020A08601008F
:2091D8000082002070B50568D5F8F81031B3D5F8582144685668A16B20683268D162022156
:2091F80003F09CFCD5F85801A16B154A40680068C0F8041591FAA1F112683068B1FA81F10E
:20921800926990470446D5F8F800011B6879022806D105F1D00002F0B2FD0BE000240CE0F5
:20923800D5F8F400D5F8FC200A44401AC5F8FC20C5F8F4000020C5F8F800204670BD00BF13
:20925800D401001070B5184B2021EFF3118081F31188174C1548DA6C02609C64154C1A667F
:209278001C64154B04689C4210D14268144B22F47F421A44426081764FF40071C160D0F857
:209298002C1221F04041C0F82C1270BD0B4D0024362CEAD00E2C8EBF42F8245053F8246027
:2092B80042F824600134F3E7C802002008ED00E000060000003A0120B4DA00006DC10000ED
:2092D8000000FA0570B50446B0F90E00227A81B2920702D5227B1F2A0CD8154A6368D26CE0
:2092F80052F820509D4218BF42F820304A42E281227B0BE00E4B1D6D45F820400D4DDB6CC4
:2093180053F82060AE4218BF43F82050102901D30A4902E0042902D3074901440A70217A0A
:20933800C90718BF01F070FD0020A060002070BDC80200207566000014ED00E0F0E300E04A
:209358001A481B4AD0F8841000681140194A914211D1C0F30332C0F34061082A0ED0092A82
:2093780011D00F2A07D1020213D400F08072A9B1A2B1112000E0FF2040B270470A2000293D
:2093980008BF0C20F8E74FF0FF30002908BF0920F2E70E20002908BF0D20EDE70B20002A0F
:2093B80018BF1020002918BF0F20E5E79412005000F0FF0F0010B40B10B5174801688907B3
:2093D80026D417480468A00221D41648006800688047C0F13E000722C1100729B8BFC210C2
:2093F800012000EB24718A42D8BF0A460E490968C1F30321891A0F29A8BF0F210129D8BF2E
:20941800014641F0F000094981F84D00087810BD0249C16010BD00BF10000940FD000040D9
:20943800B44F0050EC0100100C1300500D620840F8B5054603F04EFD0446A87A50B36F7A10
:20945800012603F077F9697A48B1154A48B21130536806FA00F08343C0435360106006FA5D
:2094780001F31049002206FA07F02A72AA72C5E90422AA61C5E9002291F8605091F86220C3
:209498002B4381F8603012B1013A81F86220C0B202F0A6F92046BDE8F84003F038BE00BF56
:2094B80008100440908600202DE9F041D0E901480546D8F80000416821F0020141602046DA
:2094D80003F05DFED4F8CC0002F0CAF804F1300003F06DFE94F8F80018B904F16C0003F0AE
:2094F80062FED5E901750D4E95F83800B04795F83900B04795F83A00B04797F8FB00B047AD
:2095180098F80C00FEF75CFF04F11C0003F0E2F8002084F8FD00BDE8F08100BFADB100009D
:20953800F8B51A4901220446087A0A7254F8485F01F03EFFA54208BFF8BD15484FF0FF3148
:20955800FDF7B0FE2068134EA0421AD0076881680569026843681A60426803685A602A68E6
:209578006B681A606A682B685A60096811B1C06800B18847B06829461C22436898473846BF
:20959800E2E70348BDE8F84000F032BDA4040020348A0020F001002070B51A491A4A0446F6
:2095B80002F076FB0146E061012051B3002184F8200061626069B0F1FF3F1ADD6069012179
:2095D800124A01FA00F0A0616069157A1172116A01EBC000E0642020EFF3118680F3118820
:2095F800204603F08FFA86F31188284601F0E0FE06E00648A16121462C30E06403F096F963
:20961800002070BD81C500002DB10000A4040020F8B5054616484BF2F521174E006800FB88
:2096380001F714483C0A006800F44020B0F5802F10D11248006880030CD4F06800688047DB
:2096580001F0E4FD3168C9688847C010390B484304EBE0342DB90A48006820F07F40204412
:2096780044083069416C2046BDE8F840084700BF08400C40B44F0050E00100108C13005028
:2096980010200940F8B5164F1648BD6C03F046FB0446154801680668214011F0200318BF92
:2096B800002D0AD0284600223D6502F02BFD0F484FF48041283003F07CFD04EA060010F428
:2096D800602008BFF8BD0A4991F8612042EA504081F8610007480021BDE8F84003F069BD1D
:2096F800FC03002020000E000C10044098030020908600203888002000B17047B0B51A4CA1
:20971800606D58B340F2000CEFF311808CF311882020EFF3118180F31188D4E91850616DDD
:20973800B1FA81F1C1F11F0100EBC101A94215D9086802680A6051600A688A4204D1416AE9
:20975800626D22EA0101616500F0FAF9616D29B1606EB1FA81F1C1F11F01E5E7002084F89E
:209778005000BDE8B0407047F00100207CB504460698362903DB00220092174A0CE0164671
:20979800124A1D46124BE181126E52F821209A4207D0002200920F4A0B4602F00BF9012000
:2097B8007CBD084601F00EFB286969682073C4E90016287AA060297D11B140F00200A0601C
:2097D8002046FFF77FFD00207CBD00BFC80200206DC100000DD600001FD70000F0B5836AFE
:2097F8005C1E144218BF1A460C4018BF1C1B14EB010C01D30020F0BD571E00F120031C4658
:209818001B68002BF6D017EA030618BF961B596806EB0C05A942F2D34A1BF01856B1A94258
:209838005E6012D0196840F80C1000EB0C014A601960F0BDA94201D1196805E0196840F8F7
:209858000C1000EB0C014A602160F0BD10B596B0184C2020EFF3118180F31188E06810B9C4
:2098780002F0D7FBFAE7E068216A134A0223B0FA80F0C0F11F00137501EBC002E26151F82A
:20989800300000212174A06140F2000CEFF311808CF311882020EFF3118180F3118803F04D
:2098B800F1F9A16968461C301C3102F0A3FC16B010BD00BFA4040020C8020020F0B540F6E5
:2098D800FF7C10F8013B0024082CFAD00646DF0716F8015B0DD1467806F00F070337122FD0
:2098F8000DD190F90220D7B2B2F1FF3F09DD03300DE001F8015B304601345B08E4E70230F7
:2099180006E0C27807F07F07043047EAC2171237320942EA0515654508BFF0BDED43002F0D
:20993800EAD04A5D013F0A700131F8E770B5054603F0D0FA174E044696F82400A84386F8EC
:209958002400306820B1B83003F013FC054600E00025706818B1B83003F00BFC054396F8CF
:20997800240030B92DB9306A18B190F82810890704D42046BDE8704003F0C9BB456A20460A
:2099980003F0C5FB306A022100220024A847346270BD00BF98030020B0B5174C60682168B4
:2099B80001EA000521EA0002680622601DD51348006800F44000B0F5000F03D11048006871
:2099D80001F0DAFE042003F091FA811E022905D201F0F2FD022001F0E9FE03E0012808BFB6
:2099F80001F0EAFD202002F0F3F8280648BF00F075FEA560B0BD00BF90220840B44F005044
:209A1800640600202DE9F0414FF02008EFF3118188F311880122144F11490D7A0A72114931
:209A380091F8506081F850200021104A3C7D3975396D1268D2B251F82210886040F2000CC5
:209A5800EFF311808CF31188D1E900018847EFF3118088F311883C7546EA0520BDE8F08136
:209A7800A4040020F0010020C802002004ED00E089B36FF0C0020B0E02EA8112202B05D025
:209A9800212B05D0A02B05D1302118E0102116E0202114E0B1F1807F01D240210FE0102B48
:209AB80005D0112B05D0402B05D1702107E0502105E0602103E09021502B08BF802111434D
:209AD80041F00F0104C8531C18BF8A42FAD14FF0FF3140F8041C704770B50468616F59B399
:209AF800D4F8582145685668E96B28683268D162012103F013F8D4F85801E96B0F4A406853
:209B18000068C0F8041591FAA1F112683068B1FA81F192699047616F091AE07C20B104F1C1
:209B38004C0001F065FD05E0206FA26F401A20675018A0670020606770BD00BFD4010010E1
:209B58002DE9F047164C002100F12C03154D4FF0010A80F8281084F850100ECBD4E9168990
:209B7800276E2E7DC4E91703A26585F814A0016340F2000CEFF311818CF31188D0E9053270
:209B9800C169104698472020EFF3118180F311882E7584F850A0C4E916892766BDE8F0878A
:209BB800F0010020C8020020B0B5134D0124E86B01680120884701281BD028683C210122D8
:209BD80000230024C5680D48A84790B101F0D8FC0B480C490068D1E900238860C01A0A4BAB
:209BF800A2EB92025843B2EB104F98BF020C01240A602046B0BD00BFA401001000A00C406E
:209C180030200940E005002040420F00B0B51448144D807B95F83911084306D003F05AF9A2
:209C380095F83B1121B103F072FA00242046B0BD012485F83B4103F06AFA022001F050FF34
:209C58000D20FEF7B5FA084801680029EED1074940220A604A60002185F83A11C461E4E7DB
:209C7800D4D900000000002004800C4038500C40F0B5DDF814C02CF0030404F10C0505FBE4
:209C980003F4944201D9012220E00CF003024FF0000E0F460E460024ACEB02020C327BB1C2
:209CB800BE1887F804E0A7F806C0013B3E607E7906F0F0067E7104FB05162F440134EEE7AB
:209CD8000022016031604260014801601046F0BD848A002079B36FF0C0020B0E02EA8112F6
:209CF800202B05D0212B05D0A02B05D1302118E0102116E0202114E0B1F1807F01D24021F0
:209D18000FE0102B05D0112B05D0402B05D1702107E0502105E0602103E09021502B08BFB5
:209D38008021114341F00F0104C8531C18BF8A42FAD140F8041C70471CB51548017E022945
:209D580004D11920BDE81C4002F0D8BF017E01291DD0007E04281AD003F0BCF8044601A88F
:209D7800FEF77EFC28B101990A4831B102F06AFE0AE0084803F0C5F906E003F0C2F906488E
:209D98000421283003F015FA204603F0C0F91CBD60020020F487002098030020B0B54FF0C5
:209DB800FF3002F0B3FF104D04461049E86988420DD10F480F49002202F0DEFE0220287660
:209DD80001F0A6FE18B9FEF76BFEFBF757F90A48044208BFB0BD09484FF000512830BDE8BB
:209DF800B04003F0E6B900BF6002002039400000FC030020F16E0000020000409803002094
:209E18002DE9FF41144DD5E900673879FEF7D0F903F060F804463078B0B90DF104084046A9
:209E380002F064FFB87979790C4A434601950290301D01F0CDF938684FF0FF31C162084904
:209E58008160012131704160204603F060F9024804B0BDE8F08100BF6CDA0000A5D0000065
:209E780000180020B0B58AB010484179D9B901250F492422457101AC204603F0A1F94FF4F2
:209E980000708DF824500D4D0D49224600230690084805900020049007480190284602F097
:209EB800BDF9084845630AB0B0BD00BFF0010020A0D80000F078002004D900005887002009
:209ED8007BD10000A404002021F003010844009940F8083C40F80C2C40F8041C029940F845
:209EF800101C019940F8141C0F4940F8181C4FF0FF3140F81C1C40E9091140E90B1140E9C8
:209F1800131140E9111140E90F1140E90D1140F8781DC0E90911C0E90111C0E90311C0E979
:209F38000511C0E90711704705CB00002DE9F041D0F8A8501F4616468846044625B120468F
:209F5800414632463B46A847D4E928010F40064056EA070008BFBDE8F0812046414680224C
:209F780000F064FEC4E92C6740B1D4F8A8108160D0E90812B143BA43C0E908120020C4F87E
:209F9800A80004F15000BDE8F04103F00EB970472DE9F047054615488A464FF0FF394FF0FA
:209FB800000804686768BC421DD026462468307D0028F8D06DB1F06850450AD1306918B17E
:209FD80030625044F06001E086F81480D6E906108847307D0028E6D0F068A0EB0A00484557
:209FF80038BF8146DFE74846BDE8F08730030020B0B5164A0121147A11722022EFF3118516
:20A0180082F31188024652F8143F93420FD010680368136001745A60C16809B100220A7578
:20A038008068294601F0ACFC85F3118808E0017CC90706BF418A01310121418285F311881A
:20A058002046BDE8B04001F0B3B900BFA404002070B5144E2021306EEFF3118581F311881E
:20A07800716D726EB1FA81F1C1F11F0102EBC101814210D90C480121047A01720B4802F014
:20A09800C8FB002086F85000204685F31188BDE8704001F08DB9002086F8500085F31188F5
:20A0B80070BD00BFF0010020A404002089A40000F8B51C46B3F5807F88BFF8BD124F0B4632
:20A0D8000146124E15460022788801306FF39F3078803046009401F0C5F92DB124B1B01DB1
:20A0F8002946224603F06CF83978A01D29B181B20648BDE8F840FDF76BBB81B20348BDE837
:20A11800F84000F0DDB900BFA4050020F67B00200F280ED840F20252DFE800F014101210B0
:20A13800080D081010100D100810100D4FF2011208E01E2802D141F2011203E0002201E0E7
:20A158004FF4817231B1FF2907D14FF203101040C03008E042F0300005E0C8070CBF42F040
:20A17800200042F01000000400F2037070477047B0B5144DA969CC6B20640120A063616C0A
:20A1980031B1D1E900238868096951649847F6E72046FFF7C5F9206B48B10121287A297218
:20A1B8000949CA692260CC6101F002F903E004F11000FFF71DFFE0684FF0FF31BDE8B04021
:20A1D800FDF7E8BEA4040020F0010020B0B5124949684A68D2E90115D46860B155EA040070
:20A1F80005D00E480022C2610D4A5032026021B1FEF755FC01E001B1884755EA040008BF18
:20A21800B0BD02F003FD05B1A84704B1A0470448BDE8B04002F00EBA600200200010044015
:20A2380001000706B0B588B002F090FC02AC204602F020FC0120019001A9204602F018FDF2
:20A2580005462046012102F0C3FE054320464FF4806102F07AFF284300D0FEE7064A07A804
:20A2780002A90023FDF7DCF900B1FEE702F02CFE002008B0B0BD00BF61750000100258BF7A
:20A29800704770B502F050FE054610F8084FC4B1211891F902004978CA09002102F02AFBDA
:20A2B8000A4EB07838B1F07884420AD2084802F0CAFEF47005E0064802F0C5FE0120F47038
:20A2D800B070BDE8704002F097BC00BF200600200082002000B5EFF3038212F0FF0F0DD0FC
:20A2F8006A46A2F1200282F309886FF0020E10604FF08071D1610B49916170475DF804EB59
:20A31800694681F3098880F308884FF00200EFF3148180F314880448016821F040410160FF
:20A33800704700BF14A3000034EF00E010B502F0D1FD0F4C217E022902D0217E042904D1B8
:20A358000E490C6802F0E3FE10E002F0E0FE09480068006B8047084AA0FB020301FB02317B
:20A3780010F1905041F17A00E16C0C18204610BD600200208C01001000093D0004300440B7
:20A39800B0B501F065FB0E4C0E4D1420611CA8470A202146A84709202146A8470A49082020
:20A3B800A847B92000F0B4F8084C1420A0470A20A0470920A04708202146BDE8B04008471E
:20A3D8000064002021D1000002200020ADB1000010B504281CD10F4802F0CBFEC0B102F0FC
:20A3F8008DFE04460B4802F0C2FE604380084A280ED8084802F085FE052001F071FB064853
:20A41800012180F8251005480421283002F0D1FE002010BDF4870020600200209803002005
:20A43800F0B52022EFF3118182F3118890F8282012B181F31188F0BD0C4A012492F85030C9
:20A4580082F85040466B456A776806604760386080F82840546D2C435465706081F3118850
:20A4780003B1F0BDBDE8F040FFF7F2BDF0010020B0B5124CD4E91851606DB0FA80F0C0F157
:20A498001F0001EBC001086802680A6051600A688A4204D1416A626D22EA01016165FFF78C
:20A4B8004FFB606D40B1616EB0FA80F0C0F11F0001EBC001A942E6D8B0BD00BFF001002030
:20A4D800FEB5124F06463868E8B1E6B100240D46D1B146F622118DF80B5001940422ADF88C
:20A4F8000810290A8DF80A1002A901AB02F0C3FC50B9386801AB31462A4602F0BCFCB0FAC2
:20A5180080F0440900E000242046FEBD7C060020B0B504461420002102F0E0FB07250A2078
:20A53800002102F0DBFB681C0FD024FA05F000F00101092002F0D2FB0A20012102F0CEFBC3
:20A55800082002F0E7FD013DE9E71420012102F0C5FB4FF42F70BDE8B04002F0DBBDB0B569
:20A57800836A5C1E14EA020518BF5D1B00F120031C46204624680CB18C42FAD32A44C1E930
:20A59800004201603CB15518A54204D1D4E900542244C1E90052984207D043681C188C4219
:20A5B80003D109681A4442600160B0BD10B50E480078012816D10D4801F082FB0C4C20464C
:20A5D80001F0DCFD0B48046101F038FD40F2000CEFF311808CF3118802F0C6FDBDE8104048
:20A5F800FFF734B902F06AFCF0010020F1AA000000890020C80200200E480F4A0F4B016857
:20A61800825800680340D0B20D4A7F2888BF0020934207D1090F022906D307D0032901D118
:20A63800153004E0FF2002E00A2000E00B3040B2704700BF1813005088FDFFFF00F0FF0F2F
:20A658000010B40B80B50D4801420CD0012002F04DFC012808D10B4800210C4AC1610A49CD
:20A67800CA613C31016080BD02F048FD3221B1FBF0F10348BDE8804002F0E4B90400002012
:20A69800F48700200010044060020020394000007FB5D0E90154204601F021FE20684168CF
:20A6B80021F002014160416921F00F0141610321016202A802F002FB074995F8F93095F8AD
:20A6D800FA202068D5E9396509680C680399CDE90065A0477FBD00BFC4010010B0B502F0BA
:20A6F800F9FB044602F0F1FC0028FBD0032001F05DF80B48002180F83811204602F007FD38
:20A718000848816802200D4688470446102001F05FFA24B103202946BDE8B0400847B0BD28
:20A7380000000020D4D90000F8B592E87800771C08BF0526002780F828700127C0E90431D3
:20A7580000F11801B740F0C11169C0E90B1108494A6E02EBC602426301F148024060006051
:20A7780000F10801104602F0E1F80020F8BD00BFF00100202DE9F0414768044602F0AAFB2A
:20A7980005464FF00008D7F8C8609EB171697068C6F81480C7F8C81001F0B0FE284602F02F
:20A7B800B6FCD7F8BC2020463146904702F092FB0546E8E72846BDE8F04102F0A8BC704786
:20A7D800F8B50C4890F8281001B18FBD012180F8281002F015FC00200849019006480290EB
:20A7F800081A0390064801A900F0A6FD054988608FBD00BFC8020020201B0020205B0020E0
:20A81800D4880020F00100200E485022016841F4087121F0020101600B48032140F8041C70
:20A8380041F2300181600121016082604FF4CA62016082604FF4865201608260016003489A
:20A8580001607047000004605860044000410440B0B502F03FFB044602F037FC0C4800216E
:20A8780080F83811032000F0A1FF204602F04FFC0848816802200D4688470446102001F0C1
:20A89800A7F924B103202946BDE8B0400847B0BD00000020D4D900002DE9FC479846AAB1E9
:20A8B80015460E46074600244FF0FF3A0DF1040931192A1B38464B46CDF800A0FAF7CCFC21
:20A8D80001990C4428B96D1AF2D102E000246FF00900B8F1000F18BFC8F80040BDE8FC8726
:20A8F800B0B52021EFF3118481F3118801250B49CA6A0D604069030CB0F5802F38BF0423D1
:20A91800981848610648232100680268002090470448056084F31188B0BD00BF0420094011
