:204000004343313378325231FFFFFFFF0301BFFFFFFF0700FFFFFFFFFFFFFFFF004000008E
:1840200000010000FFFFFFFF3800FFFF01BFFFFFFFFFFFFF004000005B
:204038002DE9F84305460C46480413D4A00024D4A0075CD460057ED4200500F1068120075D
:2040580000F13B81600040F1F68004F0BDFB24F08044F0E007F0F6F9DFF81C140F6D3FB1E7
:20407800D7E90A1202F0E04201F00A01891849D007F0C1FA24F48044DDE0BB48DFF8FC73EE
:20409800016841F080010160B878012804D1042005F062FF0020B87007F0D4F90646042068
:2040B80007F0DCF9DFF8D8130A68904219D12A7EBAB1FA68AAB1DFF8C003806C002800F0BE
:2040D8009780C16840F603020988914206D0C06840F604010088884240F08A8005F114001A
:2040F80088E040F6C4120860C5E9042284E001F0F5F8DFF88403006C002840F09D8024F063
:20411800020498E0D7E90A65D7E90A12AA43B143C7E90A1207F06FFAB8680028AAD056EAEF
:204138000500A7D0D7F808C03869B7F9301032462B46E0479EE707F085F9054606F008FD73
:20415800002800F0B780CC48876B002F00F0B280DFF828830420CB49002288F81800C6481F
:2041780006F0F0FF07F053FAC74807F03EFAC7480068006B8047C8F810000125042088F87D
:20419800025006F051F8386990F82810C8F80400490703D5436A042100229847012004F041
:2041B8002DFDD8F80400457603F060F8D8F8040081680B461A465B684BB11E88A6F603066B
:2041D800072EF7D805FA06F616F0830FF2D0537B03F0F003013353730023FD6853602D88D0
:2041F800A5F60305012D00F28A80C8F810309FE005F1100005F00EFA304607F0FCF906F000
:204218002BF878B12E6A28466FF4807100224FF00073B0479848806B10B104F0D5FA01E0E5
:2042380044F00204EE692846002100224FF08063B04724F0005434B1974821462830BDE87B
:20425800F84307F013BABDE8F8838C4EB078012804D1042005F080FE0020B07005F0FCFF60
:2042780038B170686FF4807100224FF00073056AA847306950B185480068006B8047326943
:204298007168801A000BC860002030617A4D81490022284606F056FF02203076286C20B116
:2042B8007D480221283007F0E1F904F08DFA24F40064C0E707F0ABF941E007F0C3F805467E
:2042D80006F046FCA0B1DFF8B48198F8000000070ED498F9000000280AD4684603F06AF81E
:2042F80008B1009820B1DFF8B49199F8610048B307F08DF904F068FA24F008049BE70346BD
:2043180033F8385FA5B190F8445090F8456005F0F00580F8445006F0F005013580F8455000
:2043380000255360C5634587507B00F0F000507357480022C2610160012006F007FD24F4B3
:20435800806478E700260127602E0FD009EB0600817A31B18772407A07FA00F0C0B205F065
:2043780015FE2036F0E700BFCC210840032088F81800454807F039F907F049F9444F3E4D29
:204398000022786900207861F968F8602846444906F0D8FE3D480068006B8047D8F80C107E
:2043B800D8F82020411A02EB1130B0EB113F38BF4FF0FF3098F82410C8F8200021B1D8F8B6
:2043D8000810B0EBC12F20D906F0D0FCB8B140F60900414621F83C0F002048804A7B02F035
:2043F800F00201324A730A7B02F0F0020A734860F8613960B8F83E0010F4406FFAD00020B8
:20441800C8F82000012088F8240004F0F3FE2548002101600220002106F098FC022005F027
:204438009BFD102002F076FE98F8010020B9D8F80400503007F018F91B48807810B90D201F
:2044580002F068FE98F8250028B1002088F82500052005F081FD002088F818001348C8F82E
:204478001C000220B5F85610B5F85420914208BF072003F0A3FF3DE7FC0300206002002097
:204498003C06002045AB0000F07A00208C01001000100440215F000098030020D079002093
:2044B8004588000000000460B4BD0000155C00002DE9F04F8DB0044600209A4616460F4644
:2044D800CDE90B00CDE909008A488568804603F0BBFC1C2803D003F0B7FC1B281BD1308871
:2044F80040F60201884218BFB0F5C15F03D1F07B022810D93EE043F6070188420BD196F820
:204518002400032807D330697B4940F0806020F0604088422ED100206FB366B3387825FA4A
:2045380000F0C00726D03046002107F08FF87348C4E90176006880B109A800900CA90BAA7E
:204558000AAB304601F048FA0B980B214FF6FF72502306F0ABFBFF280CD006F073FF684F2F
:2045780006467878012802D840B1012070E0304607F041F800200DB0BDE8F08F01F0A0F951
:2045980060480DF10409016841F0020101605E48C8F80000484606F0C1FEDFF870B15D490B
:2045B8004A469BF801009BF8005003905848283005F09CFC584859494A4605F097FC4846DC
:2045D80006F054FEDFF85881564A19214B460295404605F00BFA544A08F11C001A214B46CA
:2045F80005F004FA5148524906F0E7FF5148524906F0E3FF5148006810F4402F06D0504AB0
:2046180007F128000421002306F06CFA9BF8020010B10D2002F076FC08F1400006F09DFD0E
:2046380008F1380006F099FD4649002007223876B8843862386181F860200521C7E90210CF
:204658004149F96138700420002106F07FFB78782F4941F8204001307870304606F0CBFFB1
:20467800BAF1000F02D0DAF8000008E00DF1040A36492022504606F0FDFF4FF0FF30DAF847
:204698000420BAF81010DAE90635002AB2FA82F608BF40F6C4122060012076096183256361
:2046B80060762B4826764FF4FA766261C4E90362C4E90700C4E90903DAF80C0000B12062F7
:2046D800DAF8140000B16062DAF8080000B1E06104F13800C82106F07DFF04F150000021AF
:2046F80006F064FB1B4904F1B80006F066FF204641E700BFCC2108400F000005080600201D
:204718006002002000200940110000E0B4BD000098030020F1AE0000787B0020196A000044
:20473800FC030020458800002D810000347B002021AB0000F07A00209DAE0000B44F005004
:204758006D8E0000D0790020155C0000F8BC0000B78B00002DB600002DE9FC47D0E9005829
:204778008246D8F80000D0F8409019F4F06FC0F8449035D05FEA495117D5D5E91401411AF7
:20479800504605F0CBFED8F800008169C90605D401688DF807109DF80710F6E729680131FA
:2047B8002960A97B09B90121A973696C40684FF0004600F00F0404EA0100B0FA80F126FA05
:2047D80001F1014005D02F6C1FB12A68AB6C5046B847B4FA84F026FA00F020404042A863F1
:2047F800D5F85801D8F83C1009F0400740680068D0F804251140394347D0DAE9006450467D
:2048180003F0B2FED7B1F07C90B90BE0316F69B10068B16EB26F8854306FB16F013101384D
:20483800B167306720688169C906EFD5F07C28B1D6E91401411A504605F070FE96F864004D
:20485800E0B13079022819D017B1B179012901D0316F99B90024B16E0128346786F86440EB
:20487800B46607D1B36CB26FD6F8CC6050460094B04703E006F17C0006F0F6FE504601F00C
:20489800C1FBD5F858014068006800F204500068D8F83810084228D0D5F8F80028B3DAE9A3
:2048B8000076504603F012FA504602F049F87879012812D1D7F8F40078B997F8E80060B193
:2048D800002087F8E800BB6CD7F8EC10D7F8FC20D7F8504100905046A047D7F8F80020B94F
:2048F8003068816B41F4006181635FEA095023D5D8F8000081690907FCD4016B21F48071FC
:204918000163297A91B10020287295F84400800606D52C6C24B1AB6C504620210022A047E6
:204938005046012105F0AAFED8F80000816B21F400618163687908B1BDE8FC8705F5807048
:20495800BDE8FC4706F090BE2DE9FF41DFF8BC81002003900290D8F83840B4B3D8F84C0099
:2049780010B9D8F8480070B3D8F8480060B12069D8F848100969814206D194F83300C006B0
:2049980002D5D8F84C0090B1002702A887F0010103AA03F08FF80546FFB9F5B102990029ED
:2049B80000F09D805A4806F033FB002714E0D8F84800C06840880028F9D0D8F84800C068B8
:2049D80040880128F3D00127DFE752480221283006F04CFE0027002500242CB34E48466835
:2049F80016B30298B0FA80F04009284001281BD1D8F84800D8F84C10039A87F00103CDE94A
:204A1800003208F1380208F14003B047012868D0022809D1D8F84800012201230069D8F8E9
:204A38004810B1F9301065E0002C204618BF01203840012851D1394821694068814203D041
:204A580034484FF4806145E00298002818BF01202840012806D1D8F8480018B9D8F84C0052
:204A780000284DD0082006F029FA94F833004C25C00608F1380058BF482506F0C3F848F8FC
:204A98000500274BD4E90601C2439A60DA681043D860C84318605868084321465860082022
:204AB800E56806F053F9284606F0F0F8288843F60601411A022906D3B0F5C15F03D040F6E6
:204AD8000201884203D10120294606F03FF911484FF08041283006F0C9FDBDE8FF810027A6
:204AF8007BE70398002818BF044601220023B4F9301020690092002200F096FCBDE8FF8141
:204B1800082005F043FABDE8FF8100BFFC030020347B0020980300201006002060020020DE
:204B3800081004402DE9FE4FD0F80080994614460E46824613B10020C9F8000006F082FCE8
:204B5800834698F8070038B198F8640048B106F05BFD6FF00805B4E006F056FD6FF00E05FE
:204B7800AFE0002C4AD0504603F0FEFC00200121C8E91A64C8F87040C8F87800C8F83800B4
:204B980088F80C0088F80A00504688F8641005F059F9504601F036FA08F14C0402AD204601
:204BB800294606F040F8D8F87810D8F870707218B84238BF0746029910463A4606F05AFDB2
:204BD8002046394605F04FFCD8F87000D8F87810C21B3944012FC8F87020C8F8781001DB02
:204BF800B842DCD198F8041002290CD10020C8F8680088F86400C8F870001CE006F004FDFB
:204C18006FF009055DE0B84215D10020D8F86860012988F86400C8F868000CD10124584664
:204C380088F8104006F0E7FC98F80F0000284BD006F008FC834606F0E7FC98F8040008B1E8
:204C580000252FE0D8F8701008F17C0031B30C9906F0A1FC10B1012088F80C0006F0F2FBD6
:204C78000446504603F080FC0020C8F86800C8F8700088F86400504601F0C4F998F80A6033
:204C980098F80C50204606F0B6FC002D18BF6FF00C05002E18BF6FF00D0503E000210025EF
:204CB80006F079FC06F0CEFBB9F1000F07D098F8041001291CBFD8F87810C9F8001006F05A
:204CD8009AFC2846BDE8FE8F002598F810000028AED006F0B7FBA8F80F4006F08CFCD8F836
:204CF8004830D8F87820D8F8CC70504631460095B84788F80F50E8E7B0B560480021604C87
:204D1800016094F83A01032812D002282ED0012840F0AF8094F8400103F0C2F9002084F87F
:204D380040015948817B0220002908BF06209EE054480168B1F5C060C4F82C01B8BFC1F5E6
:204D5800C060D4F81011002900D5494288422ADDD4F8140105F07EFED4F8180105F08CFE1E
:204D7800D4F8280105F0ACFE01201DE04548056806F0ACFAC4F8140106F0B0FAC4F818018D
:204D980006F0B4FAB5F5C061C4F82801C4F8101109D094F830215AB1D4F81401D4F820211B
:204DB800D4F82C110AE0002084F8300106205EE0C4F82401D4E94502C4F82C110223C4F8F8
:204DD8001C01002901EB410148BF6FF001031944042391FBF3F111440029C4F820110FDD92
:204DF8001F2931D3D4F824212AB33E28A8BF3E2001302929A8BF2921C4F81C010B3909E0FC
:204E1800D4F82421032A09D111F1140FD8BF6FF013011531C4F82011002113E00128D8BF2C
:204E38000120013811F10A0FD8BF6FF00901C4F81C010B3103E03329A8BF33211539C4F8CC
:204E580020110321C4F8241105F004FE012005F025FED4F8200105F00FFED4F8240105F0EF
:204E78002FFEA5F2FF510420032938BF0620C4F83C01BDE8B04000F03BBE00BF3C500C408B
:204E98000000002008400C406CBD0000FEB504465A480078A04213D908780D46012801D16A
:204EB800686868B16878012801D1A86840B1544F57F8346006F0C6FAF17921B106F09BFB11
:204ED80000242046FEBD07EBC40401216768F17106F091FB002005F1040C7074F081B0605B
:204EF80030602988B180A98BC6E93D00C6E90E0086F86400B186297D2B69B1719CE806103C
:204F1800C6F85021BCF1000FC6E910C34FF0FF32C6F8CC10A969C6E93B203163A97F86F8AC
:204F38003610296AC6E91A00C6E91C00B16486F8E800C6F8580102D13249C6E9101097F8AE
:204F5800400001F0DFFFD7E9031206F14C0006F0DDF9D7E9051206F1D00006F0D7F92A496F
:204F780038680968C96888477A6C97F8240046F2020101F06FFF254DBA6C97F8200029461F
:204F980001F068FFF86901280CD1FA6C97F82800294601F05FFF3A6D97F82C0046F20201C2
:204FB80001F058FF03F074FCC6F85801204600F0A9FE174A06F5AE700421234605F092FD8E
:204FD8006D46284606F052F9387A7968114A2B460094019006F1140004F008FD06F17C005C
:204FF800002105F0E3FE06F58070002105F0DEFE3868D7E90C121060486062E736BD0000F3
:20501800A4BD000093940000D001001002600020DDB10000714700002DE9F84FD0E900B77A
:20503800984616468946054613B10020C8F800008EB106F07CF8824606F004FA04469BF81E
:20505800070060B19BF8E80078B106F0DAFA6FF00800BDE8F88F6FF00900BDE8F88F06F095
:20507800D0FA6FF00E00BDE8F88F00200121CBE93B96CBF8F460CBF8FC008BF8E810CBF8DA
:205098003C008BF80D008BF80B000BF580700021009006F080FA384606F01CFABAF1000F49
:2050B80002D19BF8050070B3284601F049FC06F0A8FA9BF8050068B90A99009806F06BFABF
:2050D80010B101208BF80D00284602F0FFFD00208BF8E800B8F1000F1CBFDBF8FC00C8F83D
:2050F80000009BF80B0030B100208BF80B006FF00D00BDE8F88F9BF80D00002818BF6FF0D5
:205118000C00BDE8F88F06F07CFAD5E9007497F84400C00615D5D7F840C0BB6C2846102189
:205138000022E0470DE0D7F8FC00314609EB0002204604F05FFFD7F8FC10361A0144C7F802
:20515800FC10002EEFD1204606F0F0F80028FAD0204606F0B3F997F84400800605D53C6C24
:20517800BB6C284620210022A0470020B8F1000F87F8E800C5D0D7F8FC00C8F800000020B9
:20519800BDE8F88F2DE9F047012816D1DFF830A1DAF83401012813D10220CAF8340105F0A4
:2051B80091F90120012405F087F860B1CAF8344105F0ACFD4FF0FF347FE06FF001047CE01C
:2051D8006FF0040479E09AF85A419AF859119AF85801002C18BF0124002918BF023400285D
:2051F80018BF0434012006F039F9013818BF01209AF83811B1FA81F1490910EA010902D1ED
:20521800002001F003FADAF808002E4D10F0010807D12D4F286A8168384688470428F9D0F9
:205238000646404606F0B2F9B8F1000F08D1012E04D1286A012142682348904706F03EF882
:2052580028684169204688479AF8540118B14FF4806006F009F99AF8530118B14FF4816029
:2052780006F002F919480121016003200021CAF8340117480160204604F066F90128FAD199
:20529800144E3068042005F017F8044612480125B9F1000F0560306802D1012001F0B6F9C0
:2052B80006F087F9082005F007F80443CAF8345118BF4FF0FF3405F029FD2046BDE8F087D0
:2052D80000000020B801001000400340282008600C2008402C2009400C4009402DE9F047AF
:2052F800DFF83491D9F840A0BAF1000F00F088800AF10C020820FF2151FA80F0C3B21B1AE1
:2053180018BF012312686AB163B11388A3F60303012B01D90432EFE7DAF8100092E8FA002F
:205338003830FAC0DAF808200025DAE90A10CAE90A55B2B110F0E2440CD021F00F0220F08E
:20535800E2434FF0000852EA030005D006F03CF8B04701E08846044606F036F84246234686
:20537800B04706F06FF80446B9F8560001306FF31F30A9F856004FF6FD70AAF8300009F119
:2053980040008AF8335005F03DFC204606F033F9B9F85600B9F85410884231D11F48204942
:2053B80040680D6830B190F8FC200720002A08BF052000E005204C6803F000F855B195F8BF
:2053D800FC00002100284FF0000008BF286885F8FC1000E0002044B194F8FC20002100256E
:2053F80002B9256884F8FC1000E00025A84288BF0546681C04D02DB9BDE8F04705F042BD36
:20541800BDE8F08706F0EEF8B5FBF0F10548BDE8F04705F0FDBD00BFFC03002060020020B3
:2054380098030020F07A00202DE9F84F4FF00054002A994616460F46804618BF4FF08044C5
:205458004D1C05F0FFFF824635B140463946002204F0BEF807460FE03C48816C11B1096978
:20547800414506D0C16C11B10969414503D0876B02E0876C00E0C76C37B197F93300B0F1D8
:20549800FF3F03DD04245BE0032459E0DFF8BCB00A9DDBF84800874218D0DBF84C00874275
:2054B80029D0404639464A462B4602F047FB0028E8D02748017E012941D0007E04283ED0E0
:2054D80024482549283006F0D1F838E0DBF848000022234605F076F905F0BAFF1F48002E5E
:2054F80018BF00F5803005F0D1FBF5B1DBF8480006F047F80CE005F0ABFF1848002E00F157
:2055180000501CBF0120C2F2024005F0BFFB65B1DBF84C0006F035F838690E49086291F83F
:20553800240040F0010081F82400B9F1000F06D0DBF83810404601222B4602F0FFFA83240B
:20555800504606F058F82046BDE8F88FFC0300206002002098030020020000400100010421
:205578002DE9F0410546880058BFBDE8F0810020002403F043FB3D493D483E4FCC6108602A
:2055980040F60A008846B887FC8797F8480000F0F00087F848003C6497F8490000F0F0004D
:2055B800013087F84900284601F060FEAC68012021460E46496849B10A88A2F60302072A22
:2055D800F7D800FA02F212F0830FF2D0707B00F0F000707307F13C0070602748806B28B1BB
:2055F800C0680088A0F6030002281AD3284630F8381FB1B10021E9636987386495F844001A
:2056180095F8451000F0F00085F8440001F0F000013085F8450097F8490000F0F00087F8E4
:20563800490005F0BBFD1548F86197F8250030B105F0B4F80028FBD003F000FE0BE0012080
:2056580005F00CFF012806D0707B00F0F000013070730B48F86100202146C8F81C00C8F885
:2056780000400120BDE8F04105F070BB0010044001010E0460020020FC0300203940000039
:20569800E19000002DE9F04387B0DFF8FC8081462025EFF3118085F31188D8F838501DB1F8
:2056B80080F3118800256AE0C8F83890374F80F311880020C9F80C104FF48031C9F81C204F
:2056D800002BC9E91200C9E9080118BF1F46D7E90116C9F81810397B012905D1C9E9106036
:2056F800C9F8146030460DE0294A002031460023002505F071FDC9E910012649C9F814003E
:205718008E423CD80021DFF890E0C9E9160197F800C0C9F85410BCF1020F08BF0146BCF16F
:20573800000FC9F8501001AB9EE8F5001946F5C108F124001A4ACDF808900090174808BF51
:20575800024609F12800142105F026FA05462020EFF3118180F3118881F3118899F81000C4
:2057780010B9484603F0B2FD35B108F13000494605F0DCFB4D4602E00025C8F8385028465E
:2057980007B0BDE8F08300BFF001002038BD000040420F003F420F0054BD0000F59A00009C
:2057B80095B300001EF0040F14BFEFF3098169468869A1F1480214BF82F30988954621EDEB
:2057D800100BF1EE102A41F8082DEFF3118102B400B5DFF8D8E0F047374A1268116801EA0B
:2057F800000010605DF804EB1EF0080F09D101BC80F311885DF8080BE1EE100ABDEC100B00
:20581800704704BC1EF0040F14BFEFF309816946A1F1200114BF81F309888D464A604FF0A3
:205838008070C86125488861234B1B681868086040F201101860704702B401B4EFF31481B4
:2058580000291CBF002282F3148802B402B4DFF860E0F04701BC01BC00281CBF022181F32B
:20587800148801BCDFF84CE0F0470F484FF08051016001BC80F3118800BF00BFFFF7FEBFBB
:205898001EF0040F14BFEFF30981694601F1200151F8080BE1EE100AB1EC100B14BF81F38A
:2058B80009888D46704700BF04ED00E0AD84000039B600003FB6000028BE00005058000082
:2058D8002DE9FF413B4E96F8420100286AD1012086F8420105F0CEFD374F86F87001374D02
:2058F8007868C6F86C01387B86F84101A86810F4402F13D1386988B128686421C0F30660A3
:2059180000FB01F405F06EFEB4FBF0F22C4906F19400002304F070FC05F0C8FC01AC20463E
:2059380005F020FE2749A846002506F10C00002205F03CFD204605F015FE234906F1500045
:20595800082205F033FD214A06F1D8003221002304F04CF81E4C1F4A06F1F4002C210023CA
:205978002560454604F042F8D8F80800797BC0F3815021B1032804BF012186F839110328AC
:2059980003D040F00200022810D1206840F040002060022004F048FC6868400702D4002000
:2059B80004F042FC002004B0BDE8F08104F012FAF2E700BF000000206CBD0000AC4F005087
:2059D8000BB40000DFA10000099800004184000090220840114D00002DE9F8431D46434B70
:2059F800DDF8208043F606061C68038814F0007411D0B34227D0B3F5C15F33D040F6020678
:205A1800B3423ED100F112030B604169116081692960C1692EE0B3420AD0B3F5C15F03D0C9
:205A380040F60206B34203D100F11203143002E000F11A031C300B600068106000202860D6
:205A5800C8F800004BE000F11A034FF000090B60C1691160016A2960416AC8F8001000F187
:205A780018011CE000F112030B6041691160416A2960816AC8F8001000F1100190F80F9055
:205A98000DE000F11A030B60C1691160816A2960C16AC8F8001000F1180190F824902868A8
:205AB80068B10E8805F089FC042808D8074606F00701484603F044F8296841F82700D8F8D0
:205AD800000060B105F079FC042808D805464846FF2103F035F8D8F8001041F82500002CA4
:205AF80018BF01242046BDE8F88300BF941200502DE9F84F3C4C3D4E3D4D42F62A294FF093
:205B1800010A4FF0030B00274FF00508D4F83C01062833D8DFE800F00433183B203D4B0077
:205B38000F20F060C6F8109003F09CFF45F804AC55F8040C8007FBD5C6F81CA094F8390101
:205B580090B10120EF6210E02F60C4F83CB128688007FCD40320DBE72F60C4F83C812868EE
:205B78008007FCD40520D3E70320C6F800B0C4F83C012F6029688907FCD4C9E7FEE7012611
:205B9800022084F83A6103F053FE2E6009E0022000E0032084F83A01002003F049FE0120A2
:205BB800286004F15000BDE8F84F05F04BBD002045F8040C286055F8040C8007FBD42868DF
:205BD8008007FCD40B480025012105600A4801600D2001F09FFA022004F0BEF9C4F83C51D7
:205BF80084F83B51BDE8F88F0000002000400C4058600C403C500C4004800C40B0B50C464A
:205C1800880722D4600758BFB0BD354D0120A870042004F009FB33480068006B8047E860C8
:205C38002D48806BF0B16968046961B1A1420AD094F82800400704D5636A204604210022F0
:205C58009847012060766C600DE0FFF747FB2248006CE0B3214844F002012830BDE8B0406F
:205C780005F004BD6C6860681F4900780860022004F0DAFA102001F045F9012028761B4807
:205C9800807810B90D2001F03DF96868416818488A680AB9C96821B100218160154940F8AE
:205CB800141C154907220A60016800210160426841601249124AE9610168114301601A201C
:205CD80005F0C2FC1920BDE8B04005F0BDBCBDE8B04002F079BD00BFFC0300209803002067
:205CF800600200208C010010D0210840B4BD000014100440510007060000046079550000CB
:205D180002400040FEB5D0E9005401A805F09EFA95F834003649374A384E085C95F8351076
:205D3800515C354A084395F83610515C2A6B40EA0103316820684F680299B847206840F265
:205D5800F272E1692E4B2F4F426494F854209A5C94F85530FB5C1A430129426311D101462D
:205D7800D4E90A2351F8307FFF2A27F4004718BF07F50047FF2B0F6009D00A6842F48042A8
:205D980008E0014651F8302F22F400420A600A6822F480420A60C16A41F01001C162016BA2
:205DB80041F001010163E16B09B3A16BF9B1012105F09AF9D5F85801E16B40680068C16227
:205DD800C0F8041591FAA1F17268B1FA81F15368022298477068A16B02224368D5F858012F
:205DF80091FAA1F1B1FA81F1406800689847FEBD24BE0000AEBC00000CBE0000D0010010B0
:205E180016BE000011BE00002DE9F047A4B005F019FB33490A78012A04D124B0BDE8F0476F
:205E380005F0E9BB4FF0010981F8009005F0E3FBFFF746FD082001F065F821AC204605F0B5
:205E580015FADFF8A0A0294A10212346DAF80C002290254803F0CAFD2548002501AE047883
:205E7800244890F800804746A74213D8DAF8000050F8271021F0FF0046F82700880707D405
:205E9800F8B201F0010105F0E9F909FA07F005430137E9E7184805601848C16801F44001A8
:205EB800B1F5800F07D10068000E56F8201041F0070146F820101248A4EB0802042306EB17
:205ED800880103EB820240EA880005F0D3FB0D482022016862F30D21016024B0BDE8F08766
:205EF8005106002094BD0000107D0020D994000035BD000059BC0000D0200240A84F005028
:205F180000100840003009402DE9FE4F4FF4804005F0BCF9A0B1354C35496068D1F8132074
:205F380009786FF39F5201F00401806842EA417101AA00F09FFC60688168012004F006FFB8
:205F58002E482C4F2C4D44F2020B00244FF0000A00F14009BAF1020F3CD055F82A80D8F846
:205F78000000A0B3D8F80000806905F08FF90646D8F800000023324604F024FC16F00A0F96
:205F98001ED0D8F800008069B9686BEA00000840B860D8F80000C069396821EA000038602F
:205FB8001020D8F8001004F0D1FED8F80010484604F008FD002044F00204C8F8000006E08F
:205FD8002EB1D8F800000D4944F4804408650AF1010ABFE724B10A482146283005F046FB73
:205FF80001F06CFBBDE8FE4FFEF7AEBC60020020850300210C100440E4BD0000FC03002095
:20601800980300202DE9FC4706680446707A00286BD0D4F80490D6F85801D0F80480D9F8AB
:206038003470204602F0A0FA706F20B306F14C05284605F017FB316F884221D23079022813
:206058001ED0B06E002850D0204602F08DFA346F284605F007FB201AD6F868A0B46F7067E3
:20607800284605F0FFFA0021F1740AEB040108440190706F0CE0B06E10B1306F0028D5D138
:2060980006F14C0001A904F005FA01217067F17458B30021B0F5806FB17384BF4FF4806060
:2060B8007067012301990144013979601049B96043F6F07101EB00100840B9680843B86007
:2060D800D9F83C10D9F8000091FAA1F2B2FA82F203FA02F2D8F800309A61D6F8582152688F
:2060F80012689162012105F00BF8BDE8FC8700BF0180000C2DE9F0418EB004464A1E002036
:2061180012F1030F0AD809AA0490029107922F4A06928DF814000222684600E003220C90E0
:206138008DF834202020EFF3118680F31188608A30B1608A01386082012086F3118842E084
:2061580000293DD02248012104F1140790F808800172806909AD45620B9003F019FDA069DF
:2061780009970A900560A5619DF83400022808D118494A680C98016042601060486001F0D3
:2061980031FB86F31188404603F020FD2021EFF3118081F311880C9939B10A684B681A6024
:2061B8004A6809684A6000210C910B9900224A6280F311889DF83400002818BF012002E0F3
:2061D80086F3118800200EB0BDE8F081ADA10000A4040020300300202DE9F84315460C463A
:2061F800804601F06DFE2C4800212D4F01602B48814600683868816927208847294E2A49C7
:20621800306B08403063B06F20F48070B0673868016B4FF4806088473868016B4FF4816088
:2062380088473868016B4FF4C06088471F48012101601F48C6F8804131600168890704D407
:20625800691C08BF4FF04045C560D9F80000F0698007FCD5072003F055F90228FAD1B8F169
:20627800000F13D1134C386A8168204688470428F9D0012804D1386A032142682046904754
:20629800D6F8180220F00300C6F818023868806BBDE8F843004700BF0C4009402C20094078
:2062B800B80100100C200840FFFFFEFE2820086010000940004003402DE9F0438FB00C4629
:2062D800002730491546814624229846009703A805F0D0F96B46002050210022C9F800702B
:2062F80003F092FC002848D0074627484FF40071002C07F14806816008BF04460021D4E913
:206318000032A0680792002A4FF0000208BFE268FE64F963C7E90D51F9627964BB6023696B
:206338001044002B18BF01233B63BE644FF0FF33089001200C91CDE90D11CDF82880CDE94D
:20635800045700218DF83000069307F110000CAA04F088FA0D4803A96A4603F005FAF8602C
:2063780040B14563C9F800702168F86800F0BCFC002003E0384604F0FDF80C200FB0BDE8B0
:20639800F08300BFD4BC0000A405002041B20000F0B5314A046A516B137D0C61446A01F180
:2063B800200C032B0B704C61846A8C61C46ACC6190E8F000ACE8F00000F1400400F11007E4
:2063D8004C64F0CF01F1300CACE8F000046B0C64446B8C64846BC06BCC6408650BD8DFE8A5
:2063F80003F0020D1016156DC4B2106C936C55F824404C600FE0002000230CE01748C06DE3
:2064180006E0174880694860D0E90A3003E000204860106C936C926BC1E9020332B12BB10A
:2064380010F8014B013B02F8014BF8E70D4802684A6590F824208A6590F82520CA65C28C1C
:206458000A66826A4A66C26A8A66026BCA66426B0A67806B4867F0BDC8020020F0010020FF
:20647800A404002004ED00E0FEB5304E05463078012804D11DB10C4609B1FF2C02D9002445
:206498002046FEBD7078012807D1B0684FF0FF31012204F0B1FD00207070254F2946224643
:2064B800781C3C7005F0E6F8012004F0D5FD2149601C002500220023CDE90055C873087BB1
:2064D8004F6100F0F0000873B06804F042FA10F0020F0446757018BF04F040FF0020C4F330
:2064F800400404F0B9FDB06801F06CFB42F2107003F08AFF01F02CF920B141F2883003F031
:2065180083FFBDE70C4D0426002EF6D00720012104F0A4FE284603F077FF0720002104F0D4
:206538009DFE284603F070FF013EEDE7FC050020007500208C0500208038010070B5254813
:20655800066804F017F924480025244C0560206C806C80472248006838B122480068B6F1D8
:20657800FF3018BF304600F025FD1F4840F2391205601E48016862F31B4101601C4801687E
:2065980001F44051B1F5805F06D10168194A114001F5003202600160174D0126EE61206897
:2065B800016A142088471548016841F4E021016013482E60006800F44000B0F5000F03D1EB
:2065D800206C416C0F4888470F4801680029FCD170BD00BF1C13005084046042B001001038
:2065F80080012843800520438C2108404820034028000940EFFFFCFC0000244300200940E8
:20661800B44F0050BD3786000C00684270B5F8B1012858D1012004F021FF012853D02D4CC5
:2066380094F8380100284ED12848294E0569306810F4402F30D17DB304F058FB502004F0FA
:20665800DDFF0120A84704F1940004F0FBFF25E004F0FEFF1E48006810F4402F0AD11B484A
:2066780004693CB11B48943004F0BFFF04F02EFB0020A047174C94F8380120B316480168E9
:2066980021F08001016080218160032003F064FC002084F8380116E004F0DEFF012084F8BE
:2066B8003801306810F4402F00D14DB9207A800606D4094880218160016841F0800101605E
:2066D800032003F0B1FD002070BD00BF6CBD0000B44F005000000020902208402DE9F84FDF
:2066F8001E4614460F46814604F0ACFE804604F01DFB00284AD005462848DDF82CB004F096
:2067180074FFDFF89CA0274A0A9B4FF0FF31BAF854001A40023201306FF31F30AAF85400EA
:206738000020AE6085F83240C5E90379C5E90F100BF0200185F8440085F838006863C5E922
:206758000800C5E906218022BAF85410A5F85000C5E9120085F833202986397B01F00F01AB
:20677800022904D1012185F83810B968696389F8FC000AF13800294604F024F9DAF83800F3
:20679800A84208BF02F020F82C8E01E04FF6FE74404604F030FF20B2BDE8F88FF07A0020A3
:2067B800FC030020FDEFFF9F2DE9F8432020EFF3118980F311882C480068006B80472B4E78
:2067D8004FF000082A4F012286F85D8086F85C20D7E9104522462B4604F0FEFCA0FB0423CB
:2067F80000FB053301FB0431746DC7E91221B168B268611A821A914205D986F85C8089F388
:206818001188BDE8F883051B89F311880020854206D304442D1A0120214602F001F9F6E7D2
:206838002021EFF3118781F3118896F85D1019B10020214602F0F4F8411C05D0411BB06DA3
:20685800814238BF084600E0B06D011904F010FC002086F85C00012086F85E00B46087F37C
:206878001188BDE8F88300BF8C01001030030020387A0020F0B585B00D4600211446CDE968
:206898000311CDE9011101A9009104A903AA02ABFFF7A2F8029F002F394618BF0121019E4B
:2068B8000140002E324618BF01221140002D10D411B3049840F22B2105806FF39F55384646
:2068D8002A4604F057F90398314601F019FE676010E0C9B104984FF0FF316FF39F552A46D0
:2068F800018030462B2104F045F90398314601F039FF666015201EE0C8B104984FF6FF720C
:206918000188914214D110E078B16FF39F5503982B212A4604F02EF9FF2806D004984FF065
:20693800FF3101801420656005E0032005E004980580658010202080832005B0F0BD704716
:20695800F8B505680446D5F8F80000B1F8BD68796668022807D105F1D000694604F063F91A
:20697800C5F8F80009E0D5F8EC10D5F8FC20D5F8F4001144C5F8F80000910028E6D03168DC
:206998008A6B22F400628A6395F84410C9060AD52F6C47B1297A31B9AB6C20461021002206
:2069B800B847D5F8F800B0F5806F84BF4FF48060C5F8F8000099336B01444A1E3168B66BAE
:2069D8001A600E4A9A6043F6F07202EB001010409A6810439860D5F8580140680068866280
:2069F8000846022104F08CFB287A0028AED120460121012603F0C0FF2E72F8BD018000C053
:206A18002DE9FC412A4D95F86100002844D000240026602C40D095F86100F040C00702D1CC
:206A380020340136F5E7112095F8618000FA06F704F008FD95F86110B94385F8611004F06C
:206A5800DAFD281928D0817A31B31021194A2C59B14011EA080190F9091052F821804668E6
:206A7800CFB209D001F068FA002079B200224FF00073009020460EE0017A022902D1C17C98
:206A9800C90601D401F058FACDF8008079B2204600224FF00063B04795F8610028B1064851
:206AB8000021BDE8FC4104F0E1BDBDE8FC8100BFD079002094300440787B002082B000F0A2
:206AD8006DFFE8B32A48274C274D2A4EDFF89C8000270DF10609824604F01AFD10B104F017
:206AF8001DFDC8B12046FF214A46ADF8067001F0ABF888B1BDF8060070B1062806D32046A4
:206B180004F01CFC40F01000102813D1BDF806102046012200F09EFC287838B16988404617
:206B3800FFF7A2FC50462F7003F06EFC304603F06BFCD1E7BDF80610204604F00DFDEBE78E
:206B5800074C0720012104F089FB204603F05CFC0720002104F082FB204603F055FCF0E71E
:206B7800A08601000076002030060020F070002020A10700F07E0E00002850D02DE9F8438D
:206B98002021044604F026FD04F0E0FB206024484FF00008017842788368C4F80630C368FE
:206BB800C4F80A308388C5880669627121710022C4F81260E38125824169C4F816108178BB
:206BD800A1760321C078E076002004F04FF81548154F3958814603208847144E04F0CCFC50
:206BF8000546386840688047002003210022A58304F03CF857F809100520884704F0BCFC65
:206C18000546386840688047A8B241F2CC01484340F6FF71B0FBF1F0E083BDE8F8437047F1
:206C38005C050020A8FEFFFFE40100101C900C4070B5012953D00446002942D128480121A0
:206C5800057A01722021EFF3118681F3118894F82010032916D002291BD0012929D12168D2
:206C7800E26C636819606168236859601168914204D1A169C26822EA0101C160606AC0B19E
:206C9800C0680FE020686168086060682168486012E0616A69B10A68C8684B681A604A68BB
:206CB80009684A6028B1016842681160416800684160204603F0E2F886F31188284602F0ED
:206CD80085FF216B481C0AD006480029806818BF0846D4E90A214368BDE87040184770BD56
:206CF800A4040020F00100202DE9F0412B4B012702462024187A1F72EFF3118C84F3118880
:206D180054698C4202D18CF3118841E01D6A002907FA01F705EBC10648BF03F12C0648BF30
:206D3800002792F82050012D26D1D2F800E0D2F84C805568C5F800E0D2F804E01568C5F873
:206D580004E0D8F80050454505D1D2F818E0DD6825EA0E05DD609D699542354601D1DE61E8
:206D78003568D5F804E01560C2F804E0CEF800206A60DD683D43DD60B1F1FF3FD6649761D6
:206D98005161DCBF0021D961012119748CF3118802F01CFF2046BDE8F08100BFA40400205C
:206DB80070B504F002FC04F06BFB04F06FFB044600F00C000C2803D100BF00BF30BF3AE017
:206DD80060071DD402F0B4FD05464FF47A70012105FB00F6012004F047F8864210D91C4CA3
:206DF80004F10C00656104F0C3F900BF00BF0120FEF7C8F900BF00BF002084F820001CE079
:206E180000BF00BF200715D40E4E0F4D30688168284688470428F9D0B0FA80F004F0100142
:206E3800400940EA111004F015FC084801210160006800E030BF00BF00BFBDE8704004F0D0
:206E5800B8BB00BFD8010010004003402C200940000000202DE9F84FFF2831D0264B0C467F
:206E780005464FF4BE21AF0004F0020843EA80004158C9B2914227D121489A464FEA142995
:206E980047EA0006834604F0DDFA0BF10101220C86F8009039430A7046F00201220E0A70FC
:206EB80004F0A9FBB8F1000F02BF45EA0A0004F0010101701148012181EA5801384316E059
:206ED8004FF0FF30BDE8F88F00F5BE2024F0FF0162B9B8F1000F02BF2B4304F001041C7092
:206EF800064B012484EA58043B431C60114301600020BDE8F88F00BF00200240001A44427E
:206F1800011008402DE9F041254E0546371804F099FA044697F84A01411C87F84A1128B1F1
:206F3800204604F068FB0020BDE8F081DFF8748018F8257007F03F00142898BFFFF7E2FF36
:206F580008EB8500458878B2B0F1FF3F0CDD78061FD415480068416928468847284602F065
:206F7800F3FA0128FAD1DBE70F4E3068C169284688473068416A284688473068C16A284649
:206F980088470A4801210160094801688907FCD5C6E706EB8500D0F8601101208847BFE728
:206FB800000000205ABC0000B80100102820086028200840F8B505462248234E416889076E
:206FD80005D40168F02242EA114186F84D101F494FF001221F4F0A601D4909883968096841
:206FF800846820468847A00105D4E00103D5307840F00200307038682146426828469047B5
:2070180003F0A4FB1448154A0068C0F305311170C1054FF0130158BF232140237354382142
:2070380001EA901000F56050A2F85C003868816820468847022002F05DFE09480121016011
:20705800F8BD00BFAC4F00500962084004A40C4000A00C40F00100100C1400500EB00C404B
:20707800940460428B4208BF824207D9009A002A01D010605160002100207047002B08BFE6
:20709800002A10D1009A002A01D01060516002000B0000210020002B08BF002A1CBFC943C6
:2070B800C04302F00ABEF0B51C4615460B46024600200021B4FA84F6202E04BFB5FA85F65C
:2070D8002036B3FA83F7202F04BFB2FA82F72037F61BB6F1200727BF05FA07F400257F42E8
:2070F800B4403EBF25FA07F73C43B540A34208BFAA4201D3521BA341404149416D0845EA8A
:20711800C4756408761EF1D5059F002F01D03A607B60F0BDF8B5254F05463E1804F092F951
:20713800044696F84A01013886F84A01000637D11F4810F9251000EB85004588CEB2B1F100
:20715800FF3F0CDD70061FD41A480068816928468847284602F0D6F90228FAD11AE0154F14
:207178003868016A284688473868816A284688473868016B284688470F48012101600F486D
:2071980001688907FCD505E007EB8500D0F860110020884706F03F00142898BFFFF7BAFF12
:2071B800204604F028FA0020F8BD00BF000000205ABC0000B8010010282008602820084068
:2071D8002DE9F041002918D41F4615460E46044603F0EEFF804620463146802202F0F8F9D5
:2071F80020B1064690F9330000280AD4404604F03FFA00210220BDE8F08100200021BDE8A6
:20721800F081D6E9080145F00A0547F0E04728403940084310D0404604F02AFAD6E90823E7
:2072380003EA070102EA050042404B40C4E92C01C6E90823BDE8F081B1680B48814203D077
:20725800B168C4F8A810B0604046C4E9285704F00FFA04F150004FF0FF3104F09CF9D4E9D0
:207278002C01BDE8F08100BFD589000010B586B00146427E8068002343F606040593CDE9F8
:2072980003330293438003881C1B022C10D3B3F5C15F03D040F60204A34212D1038A002A1F
:2072B80023F4FE6312BF038243F43472028208E0038B23F4FE630AB1038302E043F4347299
:2072D800028300224A7602A9009105A904AA03ABFEF782FB28B105984FF6FF7100888842FA
:2072F8000ED0049C0299204601F00AF90748016821B1204606B0BDE81040084706B010BD96
:20731800049C0299204601F02DFAEFE708060020F8B51546044625480E461168D268AF69BA
:207338000068002F18BF3846216120636261D5E90421002908BF4FF4007162B1D31D1144A2
:207358004FF0FF3023F007032063C91A21F00701C4E90A1308E00731082221F00701A162DB
:2073780002F052FCE062F0B1D5E9010104F13803EA69666307C395F8200084F8480018B1C2
:207398000B4841690131416100206065204600F04BFE08B10230F8BD054804F1080103F0A2
:2073B800C5FD0020F8BD0120F8BD00BF647D0020A40400202DE9F84F002480460021002236
:2073D8000460684600F076FB204DDFF884A081464FF0FF374FF0190B0020602C1ED02A193E
:2073F800917AB9B1107A022816D0DAF80400418B0069084495F8621011FB0B01506903F04C
:207418001BF8064604F0EEF8B6FBF0F0B84238BF074601202034E0E70120002709EA0001D4
:20743800012904D10099B94238BF0F4606E0B9F1000F01D0009F01E0C10701D0C8F800709C
:2074580040EA090000F00100BDE8F88FD07900206002002070B588B0C8B10D46062916D398
:2074780029461646044603F0C1F980B120480670204603F063FFA0F11101022909D3A178A5
:20749800E678022801D0102801D1062D08D108B070BD2046294608B0BDE8704002F024BFC9
:2074B80061F30D26A179481E05280FD8DFE800F0030E101316196C462046FFF75DFB0120F8
:2074D80031462246202301F073FCE0E730460AE03046032107E03046042104E0304605214F
:2074F80001E03046062108B0BDE8704003F09CBD34060020F8B50446FD201D468DF8030044
:2075180020461E68324600F08DF810B101208DF803009DF80300FD2815D1A6B1E068007B53
:2075380000F00F0002280ED13768204631463A4600F078F820B9002F3E46F5D1002602E075
:2075580002208DF803009DF80300FD2804D1E06B10B104208DF803009DF80370042F0FD005
:20757800022F06D0012F0FD12846214603F03CFA0AE0326822B12846214603F0D7F903E00C
:207598002846214603F01EFA78B2F8BD70B58AB0FEF73AFC1B49072004F02AF81A4C07205C
:2075B80000210025A0471C200021A0471D200021A04701AC204603F0C9FF14480226214644
:2075D8000022CDE90255049605904FF4006006900F4802F0C9F80F490860204603F0B6FF24
:2075F8000D48214600220496CDE9025505904FF400700690094802F0B7F809490860002044
:207618000AB070BD0060002075B20000205B0020D56A00005C7D0020F06C0020C597000019
:20763800687D002070B5B2FA82F3B1FA81F45B096409B0B312B190F844506DB389B191F8D1
:2076580044406CB3446B0E69096C05698908A408AE4214BFED6800252944611AB1F1704FA3
:2076780022DAB2B1D168097B01F00F01022915D1516B0569006C146980088908A54214BFDE
:20769800E26800221044081AB0F1704F01DB012804DB0124012304E0002302E0012400E075
:2076B800002404EA030070BD00240029C8BF0124002AF6D00129D5DAF3E770472DE9F84FC0
:2076D800204E214FDFF8848000254FF0010B4FF002094FF0110A602D08BFBDE8F88F7C19B0
:2076F8002ED0A07A01282BD1607A41B20BFA00F01131C0B20BFA01F1CA43326072681143FB
:20771800716003F0DBFB04F11000002102F0F0FE812809D1A06920B1002102F0E9FE8128B1
:2077380002D184F80A900BE0607A97F861100AFA00F00843002187F86100404603F096FF35
:207758002035C8E708100440D0790020787B00207CB51F4D2879F0B91E4C40F201101E493A
:207778004FF4866204230090204600F0C9FF0146002001B17CBD1949C1E90740FF20CA7BE8
:20779800087501202871887B40F00600887302F05400A330C873114C0026207BE17D6680B0
:2077B80000F0F000207301F0F0000130E075002003F052FC4FF40001A868094B0022CDE9F6
:2077D80000162146FEF78AFF012068707CBD00BFFC050020487D002020630020380500209F
:2077F800C58C00002DE9F041044680681F4F206297F85E00E8B197F85C00D0B91C480068F1
:20781800006B8047DFF86C80D8E910562A46334603F0E2FCA0FB052300FB063301FB053151
:20783800C8E91221B9687B6DBA689A1A411A91420CD902F0E1FE01212175A2681044E06033
:2078580097F85C0078B187F85D100CE001212175A2681118181A8242E16004D21046BDE831
:20787800F04103F005BCBDE8F08100BF300300208C010010387A0020002840D02DE9F041F5
:207898008EB01F490AAE002503904FF020080896059507918DF8185001A801210D901948CD
:2078B800EFF3118788F31188047A017280690C9002F06EF914494A680D980160426010602C
:2078D8004860FFF78FFF0C9846620B960A96204687F3118802F07AF9EFF3118088F3118872
:2078F8000D990A684B681A604A6809684A600D9580F311880C9845620EB0BDE8F04170471A
:207918007DAF0000A4040020300300202DE9F843DFF880900646D9F8000028B326B30024DB
:20793800154612B3DFF870800F466B4604220094414603F089F9C0B90098042815D198F8D9
:2079580000000024222810D198F8010069280CD1B8F8020090FA90F8B8F1000F04D0B84574
:2079780098BFB8F5807F03D900242046BDE8F883D9F800006B463146424603F065F9002470
:207998000028F2D10098404504BFA5F800800124EBE700BF4C060020FC72002070B58AB0D2
:2079B80002AC204603F07EFD19481A491A4A2346FCF77EFD194D0024A86028B3142001F09C
:2079D80057FFA868164900220023CDE9004402F0C0FF002003F040FB012003262870114D4C
:2079F800FFF7B6FE04467EB10720012103F036FC284602F009FD0720002103F02FFC2846A4
:207A180002F002FD013EEEE720460AB070BD00BF00740020DC050020E0040020FC05002083
:207A380074050020803801002DE9F04186B0DFF8708098F8650078BB012088F86500C8F8AA
:207A58000480C8F8008002F021FF164801AA114690E8F8000520F8C10490134808F110048E
:207A7800124900F12403204601F07AFBC8F84C4001F03EFF0E48D0E9102347F69160101A9B
:207A980073F1000031BF4FF0FF30002047F6906103F0A2FBC8F8580006B0BDE8F08100BF8B
:207AB8003003002080BD0000F0010020C1670000387A002010B504461E4849B138300068D4
:207AD800B0B1C3681B7B03F00F03022BF7D101E0806B68B102B11060C268137B03F00F03AD
:207AF800022B08D151B101698A8DC968114415E0002100201CE00120002119E012880169EE
:207B1800A2F60302012A4A8B8CBF0969496919231144094A92F8622012FB0311406B02F093
:207B38008BFC206003F05EFD2168B1FBF0F10120216010BDFC030020D07900202DE9F84F6E
:207B580007461E4815460E46009300F138094C4624680CB1B442FBD14FF0000A00F1400BC4
:207B780044B32069D4F80080B84220D1204600224FF0805302F026FE009870B12046002245
:207B98004FF0807302F01EFE30690D49086291F8240040F0010081F824004846214602F0D2
:207BB800C1FD5846214602F00DFF0AF1010A002D4446D5D15046BDE8F88F00BFFC030020E9
:207BD80098030020F8B5044603F03CFC1A4F05464FF0FF30386204F1B80003F006FD174EEC
:207BF800B6F85600B6F85410884210D1144890F82400397E022918BF002808D0284603F08A
:207C1800FAFC072000F0DAFB03F01CFC0546B6F85600B6F85410884206D10A4803F0E5FC37
:207C3800082002F0B3F902E0012084F8FC002846BDE8F84003F0DFBC60020020FC03002071
:207C580098030020F07A00202DE9F047DFF87090064699F8000001282AD14EB314463AB35A
:207C780099F801000F4610B9FFF772FD00B399F8020008B307200121012503F0EFFA114832
:207C980002F0C2FB072000214FF0000A03F0E6FA99F803800C493046B84588BF5FFA87F8BE
:207CB800424603F0E7FCA4F8008089F802A000E000252846BDE8F08700252580F9E700BF17
:207CD800FC050020A08601000077002070B50568D5F8F81031B3D5F8582144685668A16BA6
:207CF80020683268D162022103F0FEF9D5F85801A16B154A40680068C0F8041591FAA1F17B
:207D180012683068B1FA81F1926990470446D5F8F800011B6879022806D105F1D00002F085
:207D3800A2FB0BE000240CE0D5F8F400D5F8FC200A44401AC5F8FC20C5F8F4000020C5F8DA
:207D5800F800204670BD00BFD401001070B5184B2021EFF3118081F31188174C1548DA6C8D
:207D780002609C64154C1A661C64154B04689C4210D14268144B22F47F421A4442608176C6
:207D98004FF40071C160D0F82C1221F04041C0F82C1270BD0B4D0024362CEAD00E2C8EBF1C
:207DB80042F8245053F8246042F824600134F3E7C802002008ED00E000060000003A012041
:207DD8002CBE00002DA800000000FA0570B50446B0F90E00227A81B2920702D5227B1F2A82
:207DF8000CD8154A6368D26C52F820509D4218BF42F820304A42E281227B0BE00E4B1D6DCB
:207E180045F820400D4DDB6C53F82060AE4218BF43F82050102901D30A4902E0042902D38B
:207E3800074901440A70217AC90718BF01F058FC0020A060002070BDC8020020BD57000029
:207E580014ED00E0F0E300E01A481B4AD0F8841000681140194A914211D1C0F30332C0F3E7
:207E78004061082A0ED0092A11D00F2A07D1020213D400F08072A9B1A2B1112000E0FF206A
:207E980040B270470A20002908BF0C20F8E74FF0FF30002908BF0920F2E70E20002908BF7E
:207EB8000D20EDE70B20002A18BF1020002918BF0F20E5E79412005000F0FF0F0010B40B8F
:207ED80010B517480168890726D417480468A00221D41648006800688047C0F13E00072204
:207EF800C1100729B8BFC210012000EB24718A42D8BF0A460E490968C1F30321891A0F2951
:207F1800A8BF0F210129D8BF014641F0F000094981F84D00087810BD0249C16010BD00BF2C
:207F380010000940FD000040B44F0050EC0100100C1300500D620840F8B5054603F082FAB6
:207F58000446A87A50B36F7A012602F00FFF697A48B1154A48B21130536806FA00F08343A3
:207F7800C0435360106006FA01F31049002206FA07F02A72AA72C5E90422AA61C5E90022F6
:207F980091F8605091F862202B4381F8603012B1013A81F86220C0B201F0F8FF2046BDE8B0
:207FB800F84003F028BB00BF08100440D0790020F8B51A4901220446087A0A7254F8485FA9
:207FD80001F004FEA54208BFF8BD15484FF0FF31FEF790F82068134EA0421AD007688168DD
:207FF8000569026843681A60426803685A602A686B681A606A682B685A60096811B1C06844
:2080180000B18847B06829461C22436898473846E2E70348BDE8F84000F032BDA404002063
:208038002C7D0020F001002070B51A491A4A044602F0A2F90146E061012051B3002184F841
:20805800200061626069B0F1FF3F1ADD60690121124A01FA00F0A0616069157A1172116AFD
:2080780001EBC000E0642020EFF3118680F31188204603F02DF886F31188284601F0A6FDA1
:2080980006E00648A16121462C30E06402F04EFF002070BDF9AB000089990000A404002071
:2080B800F8B5054616484BF2F521174E006800FB01F714483C0A006800F44020B0F5802F8D
:2080D80010D11248006880030CD4F0680068804701F0AAFC3168C9688847C010390B48432C
:2080F80004EBE0342DB90A48006820F07F40204444083069416C2046BDE8F840084700BFAF
:2081180008400C40B44F0050E00100108C13005010200940F8B5164F1648BD6C03F0BEF8C5
:208138000446154801680668214011F0200318BF002D0AD0284600223D6502F043FB0F488D
:208158004FF48041283003F091FA04EA060010F4602008BFF8BD0A4991F8612042EA504020
:2081780081F8610007480021BDE8F84003F07EBAFC03002020000E000C100440980300202D
:20819800D0790020787B002000B17047B0B51A4C606D58B340F2000CEFF311808CF3118877
:2081B8002020EFF3118180F31188D4E91850616DB1FA81F1C1F11F0100EBC101A94215D97F
:2081D800086802680A6051600A688A4204D1416A626D22EA0101616500F0FAF9616D29B1A6
:2081F800606EB1FA81F1C1F11F01E5E7002084F85000BDE8B0407047F00100207CB504461A
:208218000698362903DB00220092174A0CE01646124A1D46124BE181126E52F821209A42A9
:2082380007D0002200920F4A0B4601F07FFF01207CBD084601F032FA286969682073C4E91B
:208258000016287AA060297D11B140F00200A0602046FFF7BBFD00207CBD00BFC80200209E
:208278002DA80000C1BA0000D3BB0000F0B5836A5C1E144218BF1A460C4018BF1C1B14EB16
:20829800010C01D30020F0BD571E00F120031C461B68002BF6D017EA030618BF961B596866
:2082B80006EB0C05A942F2D34A1BF01856B1A9425E6012D0196840F80C1000EB0C014A607E
:2082D8001960F0BDA94201D1196805E0196840F80C1000EB0C014A602160F0BD10B596B08D
:2082F800184C2020EFF3118180F31188E06810B902F0EEF9FAE7E068216A134A0223B0FA78
:2083180080F0C0F11F00137501EBC002E26151F8300000212174A06140F2000CEFF31180AB
:208338008CF311882020EFF3118180F3118802F071FFA16968461C301C3102F0BBFA16B02D
:2083580010BD00BFA4040020C8020020F0B540F6FF7C10F8013B0024082CFAD00646DF07D9
:2083780016F8015B0DD1467806F00F070337122F0DD190F90220D7B2B2F1FF3F09DD03304C
:208398000DE001F8015B304601345B08E4E7023006E0C27807F07F07043047EAC217123754
:2083B800320942EA0515654508BFF0BDED43002FEAD04A5D013F0A700131F8E770B505460B
:2083D80003F040F8174E044696F82400A84386F82400306820B1B83003F030F9054600E0D4
:2083F8000025706818B1B83003F028F9054396F8240030B92DB9306A18B190F82810890727
:2084180004D42046BDE8704003F0F5B8456A204603F0F1F8306A022100220024A847346298
:2084380070BD00BF98030020B0B5174C6068216801EA000521EA0002680622601DD513482A
:20845800006800F44000B0F5000F03D11048006801F068FD042003F001F8811E022905D219
:2084780001F0B8FC022001F077FD03E0012808BF01F0B0FC202001F01FFF280648BF00F0D4
:2084980049FEA560B0BD00BF90220840B44F0050380600202DE9F0414FF02008EFF311817F
:2084B80088F311880122144F11490D7A0A72114991F8506081F850200021104A3C7D39754F
:2084D800396D1268D2B251F82210886040F2000CEFF311808CF31188D1E900018847EFF348
:2084F800118088F311883C7546EA0520BDE8F081A4040020F0010020C802002004ED00E00F
:2085180089B36FF0C0020B0E02EA8112202B05D0212B05D0A02B05D1302118E0102116E0FC
:20853800202114E0B1F1807F01D240210FE0102B05D0112B05D0402B05D1702107E05021DF
:2085580005E0602103E09021502B08BF8021114341F00F0104C8531C18BF8A42FAD14FF0A9
:20857800FF3140F8041C704770B50468616F59B3D4F8582145685668E96B28683268D162D6
:20859800012102F0B1FDD4F85801E96B0F4A40680068C0F8041591FAA1F112683068B1FA74
:2085B80081F192699047616F091AE07C20B104F14C0001F02BFC05E0206FA26F401A206780
:2085D8005018A0670020606770BD00BFD40100102DE9F047164C002100F12C03154D4FF0CB
:2085F800010A80F8281084F850100ECBD4E91689276E2E7DC4E91703A26585F814A00163F4
:2086180040F2000CEFF311818CF31188D0E90532C169104698472020EFF3118180F3118869
:208638002E7584F850A0C4E916892766BDE8F087F0010020C8020020B0B5134D0124E86BE6
:2086580001680120884701281BD028683C21012200230024C5680D48A84790B101F09EFB02
:208678000B480C490068D1E900238860C01A0A4BA2EB92025843B2EB104F98BF020C01249C
:208698000A602046B0BD00BFA401001000A00C4030200940CC05002040420F00B0B5144849
:2086B800144D807B95F83911084306D002F0CAFE95F83B1121B102F09EFF00242046B0BD63
:2086D800012485F83B4102F096FF022001F0ACFD0D20FEF717FC084801680029EED10749FB
:2086F80040220A604A60002185F83A11C461E4E76CBD00000000002004800C4038500C4026
:20871800F0B5DDF814C02CF0030404F10C0505FB03F4944201D9012220E00CF003024FF0C0
:20873800000E0F460E460024ACEB02020C327BB1BE1887F804E0A7F806C0013B3E607E79D2
:2087580006F0F0067E7104FB05162F440134EEE70022016031604260014801601046F0BD2C
:20877800587D002079B36FF0C0020B0E02EA8112202B05D0212B05D0A02B05D1302118E0DC
:20879800102116E0202114E0B1F1807F01D240210FE0102B05D0112B05D0402B05D17021AE
:2087B80007E0502105E0602103E09021502B08BF8021114341F00F0104C8531C18BF8A42F9
:2087D800FAD140F8041C70471CB51548017E022904D11920BDE81C4002F050BD017E012918
:2087F8001DD0007E04281AD002F02CFE044601A8FEF7E0FD28B101990A4831B102F008FC62
:208818000AE0084802F0F1FE06E002F0EEFE06480421283002F02AFF204602F0ECFE1CBD60
:2088380060020020347B002098030020B0B54FF0FF3002F02BFD104D04461049E86988420C
:208858000DD10F480F49002202F07CFC0220287601F002FD18B9FEF731FFFCF775F80A488F
:20887800044208BFB0BD09484FF000512830BDE8B04002F0FBBE00BF600200203940000033
:20889800FC030020215F000002000040980300202DE9FF41144DD5E900673879FEF732FB75
:2088B80002F0D0FD04463078B0B90DF10408404602F0DCFCB87979790C4A43460195029002
:2088D800301D01F093F838684FF0FF31C16208498160012131704160204602F08CFE0248C3
:2088F80004B0BDE8F08100BFECBD0000B9B5000000180020B0B58AB010484179D9B901251F
:208918000F492422457101AC204602F0B3FE4FF400708DF824500D4D0D49224600230690B8
:20893800084805900020049007480190284601F0D5FF084845630AB0B0BD00BFF001002084
:20895800D4BC0000F06E002018BD0000987A002045B60000A404002021F00301084400992D
:2089780040F8083C40F80C2C40F8041C029940F8101C019940F8141C0F4940F8181C4FF097
:20899800FF3140F81C1C40E9091140E90B1140E9131140E9111140E90F1140E90D1140F837
:2089B800781DC0E90911C0E90111C0E90311C0E90511C0E907117047D1B000002DE9F041D0
:2089D800D0F8A8501F4616468846044625B12046414632463B46A847D4E928010F400640C0
:2089F80056EA070008BFBDE8F08120464146802200F0EEFDC4E92C6740B1D4F8A81081603B
:208A1800D0E90812B143BA43C0E908120020C4F8A80004F15000BDE8F04102F025BE70478C
:208A38002DE9F047054615488A464FF0FF394FF0000804686768BC421DD026462468307DD0
:208A58000028F8D06DB1F06850450AD1306918B130625044F06001E086F81480D6E9061088
:208A78008847307D0028E6D0F068A0EB0A00484538BF8146DFE74846BDE8F0873003002089
:208A9800B0B5164A0121147A11722022EFF3118582F31188024652F8143F93420FD01068ED
:208AB8000368136001745A60C16809B100220A758068294601F020FB85F3118808E0017C34
:208AD800C90706BF418A01310121418285F311882046BDE8B04001F079B800BFA404002052
:208AF80070B5144E2021306EEFF3118581F31188716D726EB1FA81F1C1F11F0102EBC10117
:208B1800814210D90C480121047A01720B4802F08DF9002086F85000204685F31188BDE855
:208B3800704001F053B8002086F8500085F3118870BD00BFF0010020A40400200D8F000011
:208B58000F280ED840F20252DFE800F014101210080D081010100D100810100D4FF201126A
:208B780008E01E2802D141F2011203E0002201E04FF4817231B1FF2907D14FF203101040F4
:208B9800C03008E042F0300005E0C8070CBF42F0200042F01000000400F203707047704799
:208BB800B0B5144DA969CC6B20640120A063616C31B1D1E900238868096951649847F6E787
:208BD8002046FFF7F5F9206B48B10121287A29720949CA692260CC6100F0F8FF03E004F15D
:208BF8001000FFF74DFFE0684FF0FF31BDE8B040FEF77AB8A4040020F0010020B0B51249FF
:208C180049684A68D2E90115D46860B155EA040005D00E480022C2610D4A5032026021B1FB
:208C3800FFF7FDFE01E001B1884755EA040008BFB0BD02F0B3FA05B1A84704B1A047044826
:208C5800BDE8B04002F022B8600200200010044001000706B0B588B002F05EFA02AC2046BC
:208C780002F0EEF90120019001A9204602F0C8FA05462046012102F045FC054320464FF496
:208C9800806102F0CAFC284300D0FEE7064A07A802A90023FDF710FB00B1FEE702F0CCFBE8
:208CB800002008B0B0BD00BFA5750000100258BF704770B502F0F0FB054610F8084FC4B17D
:208CD800211891F902004978CA09002102F012F90A4EB07838B1F07884420AD2084802F050
:208CF80046FCF47005E0064802F041FC0120F470B070BDE8704002F047BA00BFFC05002087
:208D18000077002000B5EFF3038212F0FF0F0DD06A46A2F1200282F309886FF0020E106051
:208D38004FF08071D1610B49916170475DF804EB694681F3098880F308884FF00200EFF39E
:208D5800148180F314880448016821F040410160704700BF448D000034EF00E010B502F0AE
:208D780071FB0F4C217E022902D0217E042904D10E490C6802F03FFC10E002F03CFC094874
:208D98000068006B8047084AA0FB020301FB023110F1905041F17A00E16C0C18204610BDCF
:208DB800600200208C01001000093D0004300440F8B5124F1C460B460146114E15460022DA
:208DD800788801306FF39F3078803046009400F057FF25B1B01D2946224602F04BFC39786D
:208DF800A01D29B181B20648BDE8F840FDF73CBB81B20348BDE8F84000F0A4B8340600207A
:208E1800F6710020B0B501F0DFF90E4C0E4D1420611CA8470A202146A84709202146A84731
:208E38000A490820A847B92000F0B4F8084C1420A0470A20A0470920A04708202146BDE877
:208E5800B04008470064002009B6000002200020C999000010B504281CD10F4802F0EEFBC4
:208E7800C0B102F0BFFB04460B4802F0E5FB604380084A280ED8084802F0B7FB052001F0C1
:208E9800D3F90648012180F8251005480421283002F0ECFB002010BD347B002060020020F0
:208EB80098030020F0B52022EFF3118182F3118890F8282012B181F31188F0BD0C4A0124AE
:208ED80092F8503082F85040466B456A776806604760386080F82840546D2C4354657060E9
:208EF80081F3118803B1F0BDBDE8F040FFF7F8BDF0010020B0B5124CD4E91851606DB0FAFB
:208F180080F0C0F11F0001EBC001086802680A6051600A688A4204D1416A626D22EA0101BC
:208F38006165FFF755FB606D40B1616EB0FA80F0C0F11F0001EBC001A942E6D8B0BD00BF14
:208F5800F0010020FEB5124F06463868E8B1E6B100240D46D1B146F622118DF80B500194DB
:208F78000422ADF80810290A8DF80A1002A901AB02F031FA50B9386801AB31462A4602F082
:208F98002AFAB0FA80F0440900E000242046FEBD4C060020B0B504461420002102F05EF94A
:208FB80007250A20002102F059F9681C0FD024FA05F000F00101092002F050F90A200121C6
:208FD80002F04CF9082002F019FB013DE9E71420012102F043F94FF42F70BDE8B04002F019
:208FF8000DBBB0B5836A5C1E14EA020518BF5D1B00F120031C46204624680CB18C42FAD3B1
:209018002A44C1E9004201603CB15518A54204D1D4E900542244C1E90052984207D0436898
:209038001C188C4203D109681A4442600160B0BD10B50E480078012816D10D4801F0B4F96D
:209058000C4C204601F0FAFB0B48046101F056FB40F2000CEFF311808CF3118802F0E9FABC
:20907800BDE81040FFF73AB902F0E0F9F001002095940000407C0020C80200200E480F4A80
:209098000F4B0168825800680340D0B20D4A7F2888BF0020934207D1090F022906D307D0E9
:2090B800032901D1153004E0FF2002E00A2000E00B3040B2704700BF1813005088FDFFFFC5
:2090D80000F0FF0F0010B40B80B50D4801420CD0012002F0C3F9012808D10B4800210C4A67
:2090F800C1610A49CA613C31016080BD02F07AFA3221B1FBF0F10348BDE8804001F088BF7F
:2091180004000020347B0020001004406002002039400000B0B502F095F9044602F051FA89
:209138000028FBD0032000F017FF0B48002180F83811204602F05FFA0848816802200D4667
:2091580088470446102001F0B7F824B103202946BDE8B0400847B0BD000000206CBD00000D
:20917800F8B592E87800771C08BF0526002780F828700127C0E9043100F11801B740F0C1C4
:209198001169C0E90B1108494A6E02EBC602426301F148024060006000F10801104601F098
:2091B800C5FE0020F8BD00BFF0010020F8B50C4890F8281001B18FBD012180F8281002F0AC
:2091D800B3F900200849019006480290081A0390064801A900F0BEFC054988608FBD00BF51
:2091F800C8020020201B0020205B0020147C0020F00100200E485022016841F4087121F0C6
:20921800020101600B48032140F8041C41F2300181600121016082604FF4CA6201608260A7
:209238004FF48652016082600160034801607047000004605860044000410440B0B502F0B8
:2092580001F9044602F0BDF90C48002180F83811032000F081FE204602F0CDF908488168EB
:2092780002200D4688470446102001F025F824B103202946BDE8B0400847B0BD0000002032
:209298006CBD00002DE9FC479846AAB115460E46074600244FF0FF3A0DF1040931192A1BC9
:2092B80038464B46CDF800A0FBF73CFC01990C4428B96D1AF2D102E000246FF00900B8F1CC
:2092D800000F18BFC8F80040BDE8FC87B0B52021EFF3118481F3118801250B49CA6A0D6023
:2092F8004069030CB0F5802F38BF04239818486106482321006802680020904704480560C7
:2093180084F31188B0BD00BF04200940840100108002244310B504460868082898BF0820E0
:20933800A062431ED1E901211340E26103D0C31A1A44C91AE261B1FBF0F1484304F11001EE
:209358006062054801F0F2FDE069616A002202602062416010BD00BF200600202DE9F84328
:20937800DFF838900546984617460E46484601F02DF90446284631463A46FEF777FF074650
:209398004846214602F03CF82FB9054A40462B46009600F0CBFE3846BDE8F883687C00207B
:2093B80034BA0000B0B5104C00252574E06810B901F08EF9FAE7E068216AB0FA80F0C0F120
:2093D8001F0001EBC000E169884209D9E061A169026801F11C0002F11C01A26101F06AFA89
:2093F800207C0028E1D1B0BDA404002010B5FEF7ADFC01F0EBFCFFF7D9FE0B480B490C4CA3
:20941800016094F8440010B9012084F84400FEF70BFB01F03BFA01F075FAFFF76BFA00F08D
:2094380037FE0120207010BD607D0020387A0020F001002070B50D46044602F003F8D4E915
:2094580001128A4204D102F0D6F84FF0FF3070BDE36822680133B3FBF1F606FB113155545B
:20947800E160A168626901319142A16088BF0A46626102F0C0F8A06870BD704710B50C48B0
:20949800032290F85010012180F8501009480275094A137A1172006940B1084C204602F07C
:2094B80025F82046BDE8104002F026B810BD00BFF0010020C8020020A40400203B9F000023
:2094D800F8B50D480D4D0E4F0126046804608CB1B4FA84F0696880F01F0006FA00F251F8CA
:2094F800201094430029F2D057F820205203EED58847ECE7F8BD00BFE020024094BD000012
:20951800001008400F49C3070A68496D01D1002106E001F0040102F00103C91818BF0121F2
:20953800830744BF02F0020341EA5301400744BF02F0040041EA90010220002918BF0120D1
:20955800704700BF402108400F49C3070A68496D01D1012106E001F0040102F00103C918E3
:2095780018BF0121830744BF02F0020301EA5301400744BF02F0040001EA90010220002910
:2095980018BF0120704700BF40210840B0B511F1800201D1002112E00C4A002303EB8305DF
:2095B80044577F2C09D00544D5F801501540954203D08C4201DC0133F0E72BB1591E01EB19
:2095D80081010844D0F801201046B0BDFFFF3F00F0B50F4C00234FF0580C8EB20027B3F5E7
:2095F800307F0FD0E1180D8EB54208D139B10D69854204D14AB191F83350154203D15833A8
:209618000137ECE700210846F0BD07FB0C41FAE7306A002070B5044605680D48C6680D486D
:209638000068006B8047811B080B05EB1132B5EB113F40F6C41188BF50088842206004D8D6
:2096580080084A2802D84FF49671216070BD00BF600200208C010010F8B50D4E04460D4F9A
:20967800306E50F82100B84201D00020F8BD0A480D4624300090204601F08EFA0028F4D0D7
:20969800306E50F82500C01B18BF2046F8BD00BFC80200202DA80000F001002010280FD331
:2096B80010380E4A0123410900F01F0002EB810103FA00F0D1F8F020C1F87001104070470F
:2096D8000F281CBF0020704704480168026822F00202026001F00200704700BF10E000E0B9
:2096F80010280FD310380E4A0123410900F01F0002EB810103FA00F0D1F8F020C1F8F0003D
:20971800104070470F281CBF0020704704480168026842F00202026001F00200704700BF21
:2097380010E000E000B1704780B52021EFF3118081F311880A494A6D22B180F31188FFF704
:20975800CFF904E0002281F8502080F3118805490122087A0A72BDE8804000F037BA00BFBA
:20977800F0010020A40400202DE9F04115468846074600205821002200262B4600F044FABB
:2097980078B1394642462B46044601F0A7F808B1264606E00448214658228068436898478C
:2097B80000263046BDE8F081F0010020C2B00020ADF8060000F046FA20B94FF4FA70FEF7E6
:2097D8005BF8F7E702AC0DF1060520464FF480712A46FEF79BF80028F7D0BDF8060001F05C
:2097F800C5FDBDF8061020460022FDF733FEECE70B4801688907FCD50A4801210A4AD0F897
:209818003C0101284FF0010008BF202008239061002010600548036043601160704700BF9D
:2098380058600C400000002000400C4038500C4040F00201022918BF70477CB50A4D0B4CC1
:2098580080B27022042329684E68009020460021B0472868002170227023D0F80CC02046E0
:2098780002B0BDE870406047A401001000A00C4010B50B4C0146A06860B10A4A0A48052931
:20989800C8BF1046FFF782FE084A01466FF39F50904200D110BDA068BDE8104001F076BAE5
:2098B800FC0500201005002054040020FFFF3F00B0B50C46002100F12005C4E90111416A2D
:2098D8000A48216000F082FE01462D6845B16868D4E9012302448342626038BFA060F4E70B
:2098F8000248BDE8B04001F08BBD00BF687C002010B588B001AC0B491C22204601F0BAFE2A
:2099180000200A4A002123468DF810004FF47A70039002208DF804000348FBF7B3FE08B08B
:2099380010BD00BF38BD0000387A002059B5000070B52020EFF3118480F31188094800680D
:20995800006B8047084AD2E91556084AD2E9102384F3118801F040FC281AB04288BF00202D
:2099780070BD00BF8C01001030030020387A002070B50E480121047A017285692020EFF383
:20999800118680F31188284600F002F9032085F82000284600F072FA86F311886D602D60BD
:2099B8002046BDE8704000F011B900BFA4040020FF2817D0B0B5044601F0FAFA0A4D28680A
:2099D80050F82410204601F013FE686850F8241011B1002140F82410A868002140F8241053
:2099F800BDE8B040704700BF94BD0000BBB12DE9F04786B0DFF82CE0EC4666469EE8B00706
:209A180086E8B007D3E900451B7A8DF80830634601940495FFF720FE06B0BDE8F0870023D6
:209A3800FFF71ABE54BD000070B50D4B1B3800FB00F193E87000DB6801FB00F283FB0223B4
:209A5800C6FB0123C5FB00231009190940EA0370001941EBE471000C40EA014070BD00BF51
:209A7800EC0500207CB50C4D0C4C00214FF4C072072328684668022000902046B04728683E
:209A980000214FF4C0720723D0F80CC0204602B0BDE87040604700BFA401001000A00C40E6
:209AB8000C48052180F85A10032180F84E1002218170012101700021817340F20461A0F84D
:209AD80058100549C0F872100821C1750721C172704700BF120400218141002170B50446C5
:209AF8000C4801210160D4E91001D4E91623851841EB0306280C002240EA064100F00CF826
:209B1800D4E91623D4E9060150346CC4BDE87040084700BF0420094010B50C4601F045FDA5
:209B38000B498A69A31A0632B3F1004F09D8131BB3F1FF3F2346C8BF1346A24298BF234600
:209B58001A460A6000B110BDBDE8104001F031BD1820094010B504460848002908BF0146BA
:209B78002046FFF7D7FB06480649074A074BC4E902102046C4E9003210BD00BFC0BD000052
:209B9800C9980000A1B6000061A3000075930000B0B50D49CA68036844682360436804684B
:209BB8006360C46C83692568A54204BF9A43CA608A69824204BF0022CA6101220A740221E5
:209BD80080F82010B0BD00BFA404002000B1704710B50B4C2020EFF3118180F31188207CF1
:209BF80028B1084890F8500008B9FFF7DBFB0020207240F2000CEFF311808CF3118810BD77
:209C1800A4040020F0010020F8B50E460B4900281C468D68314618BF0546002A2F6808BF5E
:209C380008222846B847074628B9054A20462B46009600F07BFA3846F8BD00BFF001002023
:209C58004ABB000010B58AB001AC204601F048FC03210020ADF820104FF461218DF822001B
:209C7800ADF80400002007912146FBF70FF903490028086018BF01200AB010BD4C0600203D
:209C9800D0B1B0B5049CC025C370417001F4E06145EA1323002C837018BF013C230A4471AD
:209CB80003714FF40063002A18BF4FF4C0531944090A0170BDE8B0407047704710F1240F03
:209CD800D8BF6FF023001B28A8BF1B2003210F222430A1EB101122EA000022FA01F14FF6B9
:209CF800FF7222FA00F040EA014001490860704718A00C40B0B50A490A4A0B4B0C684D686C
:209D1800AC42FCD1844208BFB0BD155C145DAC424FF0FF3538BF01252C441C5D0C60EDE7ED
:209D380000600C40F4BD0000F8BD000010B50A4C0021206842680120904720680168012081
:209D5800884708B100F02AF804480068E068006880470349C86010BDE0010010302009405B
:209D7800CC05002010B50A490A4C0860D1F8980040F00300C1F8980020688169202088479E
:209D9800054800682068806BBDE81040004700BF8C210840B80100102C20094010B50A481E
:209DB8000B4C0188C907094907D14FF00122226000880868BDE810400047086880474FF023
:209DD8008070206010BD00BF00A00C408000001004A40C407CB50B4D0B4C00214FF040522D
:209DF8001C2328684668032000902046B047286800214FF400720923456801200090204668
:209E1800A8477CBDA401001000A00C40F8B50C46054601F017FB2B1D6E690ECB8F1AA7428A
:209E380038BF3C4622442344B24288BF16466E61B3FBF1F606FB1131C5E9022101F0DBFBEE
:209E58002046F8BD70B50668054601F0FBFA0446707A70B901207072284600F075FB68680D
:209E780001F032FB2846FCF7CDF82846002100F083FD2046BDE8704001F0BDBB10B590F816
:209E9800480088B12020EFF3118480F31188074841690139416105D1054884F31188016AF3
:209EB8000020884784F3118810BD00BFA4040020C802002070B50948094C84420BD0094D8B
:209ED800094EB54207D0F5E8020110F8012B54F822209047F5E701F0CFFB70BD20C0000028
:209EF80014C0000088C00000F8C00000B2B110B586B09368062B03D35C1C01D000200BE0C2
:209F1800002404930194D2E90034D268CDE90234059201AA01F0B8F806B010BD002201F04B
:209F3800B3B8704708490A4B421808499A42096808D801F44001B1F5000F03D105490968EB
:209F5800496C0847704700BF5C8F82FFB44F0050B71E0500F001001070B50B4D04462E18C8
:209F780001F070FA96F84311013986F84311090605D10121AA68A14022EA0101A96001F07E
:209F98003AFB002070BD00BF00000020B0B5054601F058FA044608480178A943017000786D
:209FB800000704D405480821283001F05FFB2046BDE8B04001F01FBB60020020980300208E
:209FD800F8B515460E46074601F03CFA044608484068B84201D0032504E03046294600F0AB
:209FF80087FA0546204601F006FB2846F8BD00BF600200202DE9F04106460A4815460C462F
:20A0180000278046BC4209D0D8F80020E95D30689269904708B10137F4E73C462046BDE86B
:20A03800F08100BFD001001010B50A490122087A0A720949CC6944B12268CA61FFF7C6FDD4
:20A058002046BDE8104000F095BABDE81040FFF7BDBD00BFA4040020F0010020B0B50B4A97
:20A078000023156C946CC0E901452A7841B1BE2A06D1691C631C11F8014B013BBE2CFAD099
:20A098000360B2F1BE0018BF0120B0BDC80200200B4890F8641001B17047012180F86410CF
:20A0B8002021EFF3118281F311884FF0FF31C162016C826C21F0070111440839C16370474E
:20A0D800C8020020B0B504468260816100201D462075D3E9010120610648E161214600F0CD
:20A0F80025FF287820B12046BDE8B04001F040B8B0BD00BF3003002070B50B4AD368C56C6A
:20A1180084696E6823430560466030606860D360012380F820301374202081F31188EFF3C6
:20A13800118180F3118870BDA40400201EB50B492431884208BF1EBD02AC0028059918BF41
:20A158000446226001AA18BF021D002813606A4618BF00F108021160FEE700BFF001002037
:20A178000A48083880F308880948016841F47001016000BF00BF01F081FA08B1FFF79AFE40
:20A1980001F034F8002001F029FA00BF0040012088ED00E010B52021EFF3118481F3118857
:20A1B800017C02290CD10268816843681A600022027442680068426008462146FFF79CFFF8
:20A1D80084F3118810BD704780B50A49142001F00FFA1420002101F041F8012001F00EFA84
:20A1F8001420012101F03AF84FF40C70BDE8804001F004BA01640020BFB5044653B1002094
:20A218000190D3E901051B7803958DF80430029001AB00E0034B2046FFF754FF204604B0BA
:20A23800B0BD00BFCCBD0000B0B50446012000FA04F501F007F907498A682A438A6021449F
:20A2580091F84321013281F8432101F0D4F90020B0BD00BF000000200A484068826800F1EA
:20A278003801134652680AB18A42FAD1597B090706D1408F40F60901884204BF01207047F9
:20A29800002070476002002007480068C00608D406480749006808400649884204BF0120A9
:20A2B80070470020704700BFB04F00505013005000C4FF3F00C0071CB0B5044609480568E5
:20A2D80055B1A868204205D0D5E9033220460021984718B92D68F3E70020B0BD4FF0FF3085
:20A2F800B0BD00BF00000020B0B540B10C4631B1B4F5837F03D8064D0146287800B1B0BD92
:20A318000448224601F0B6F901206C802870B0BD30060020F07000209EB0094C012184F8A8
:20A338003010616B09B969466163FCF731F80320207504480068C0B20F2800D2FEE7FEE7F7
:20A35800C802002004ED00E02DE9F041DFF82480064614460D46404600F038F90746304605
:20A3780029462246FEF73DFE40463946BDE8F04101F046B8687C00207FB51346D0E90A247C
:20A39800BE251AB104F8015B013AFAE7D0E90A54D0E90D26C06BCDE900160290291F204649
:20A3B800FEF7DAFA04B070BD10B50A4B2022EFF3118182F311881A6C072A04DCDC6B44F8E3
:20A3D8002200501C1864002081F31188082AB8BF012010BDF001002070B50A4D0446202080
:20A3F800EFF3118180F31188286C461E701C0128B8BF70BDE86B50F8261020468847013E2F
:20A41800F4E700BFF001002080B50A49884206D301F0DCF8162101604FF0FF3080BD00F254
:20A43800E7304FF47A71B0FBF1F00130FDF724FA002080BD40420F00B0B50C460546FEF70B
:20A458008DFC291A04F57A72C4EB9100012898BF01200023B2EB910F28BF1846B1F1404F7C
:20A4780028BF1846B0BDB0B50C46054600F0EAFFD5E901122B69A24238BF1446121BAA6066
:20A498001A19B2FBF1F303FB1121296101F0B3F82046B0BDF8B50C46054600F0D3FFEA6859
:20A4B80095E8C2000132B2FBF6F303FB16252944216001F0A0F8701BF11B814238BF08462D
:20A4D800F8BDFEE706480122017A027205480160054890F8501080F850200448016070473B
:20A4F800A4040020547D0020F0010020507D002010B50C460849097E02290AD100F0C6FBE7
:20A5180004B12060C1B20220012908BF6FF07E0000E00120C0B210BD60020020F8B50C46CA
:20A53800D0E90016002701F14C053068013C47F100018269D20606D429B10068C1B22846FC
:20A55800FEF778FFF1E7F8BDD0E900100A6C5AB191F84410090707D501684FF480624A649B
:20A578008A6B42F480628A630068816B41F040018163704710B50446103000F01FFB2046A9
:20A5980050F80C1F09B100F031FC04482146502280684368BDE81040184700BFF00100207D
:20A5B80010B5074C207838B9064807494FF4387201F060F801202070BDE81040FFF770BA48
:20A5D800500600204C400021A4B60000B0B5094D0446A168A869814204BF0120B0BD04F1BE
:20A5F8000C004FF0FF31FBF785FDA869A0600020B0BD00BFA404002010B52020EFF31184B3
:20A6180080F3118805480068006B8047044AD2E9102384F3118800F0DFFD10BD8C010010AD
:20A63800387A002070B504462020EFF3118580F31188207D40B1E668FFF7DEFF216A301A79
:20A65800884288BF002000E0002085F3118870BD00B1704710B5074C207C28B1064890F8A8
:20A67800500008B9FEF79EFE00202072BDE81040704700BFA4040020F0010020B0B5056858
:20A6980002200C46FFF768FC64B1D5F8EC000021B1EB107F06D10420FFF75EFC4FF0FF3001
:20A6B800C5F8EC00B0BD70B50446006C04F144052CCDA0FB010602FB0161C6184D41300CB1
:20A6D800002240EA0541FFF727FAC4E9146570BD81B040F2000CEFF311808CF3118800204C
:20A6F8000090009810B900980130F9E72020EFF3118180F3118801B07047000080B50648FD
:20A71800006938B1054800F0F1FE0548BDE8804000F0F2BE80BD00BFC802002065AE000058
:20A73800B1AF0000B0B50D46044600F08BFED5E9001211B14A606A6800E06260002A18BF75
:20A7580014462160BDE8B04000F055BF80B5FFF79BFD60B10648006881034FEA00414FF0A6
:20A77800000058BF0816BDE88040FFF7A7BA80BDB44F005080B5064806490068084006496F
:20A79800884204D1FEF77AFC1328C8BF80BDFEE71813005000F0FF0F0010B40BB0B500F016
:20A7B80051FE0446064890F8380118B100F040F9054600E00125204600F01DFF2846B0BD49
:20A7D80000000020F8B51D461646044600F03AFE44B104F1200720348ECF33432F432A434C
:20A7F80031438EC4BDE8F84000F005BF08B1062901D2002070470378024600201F2B08D84B
:20A818001379527942EA0322073292B28A4298BF012070471EF0040F14BFEFF309806846F3
:20A8380085462DE9F00F684671467446024A904768462146FEE700BFA5B3000010B5074AB7
:20A8580004460C30012100F00DF800202146A0600348BDE8104000F069BB00BFD8BD000014
:20A878001806002010B5418203461430012100249861C3E9024111781974586102481946C7
:20A89800BDE8104000F052BB28060020084890F86C1001B17047012180F86C10406E0021BE
:20A8B8003029F7D04218526042500831F8E700BFF00100202DE9F04F2DED108BC0F800D048
:20A8D800D1F800D0BDEC108BBDE8F08F00BF00BF00BF00BF00BF00BF00BF00BF10B5044658
:20A8F8000748002A08BF02462046FCF711FD20B101462046FCF79CF90024204610BD00BF35
:20A91800D4BC0000084890F8381001B17047012180F83810006A00213029F7D0421852606D
